:100000000C945D000C9485000C9485000C94850084
:100010000C9485000C9485000C9485000C9485004C
:100020000C9485000C9485000C9485000C9485003C
:100030000C9485000C9485000C9485000C9485002C
:100040000C94FC030C9485000C9485000C948500A2
:100050000C9485000C9485000C9485000C9485000C
:100060000C9446040C948500000000080002010076
:100070000003040700000000000000000000000072
:10008000250028002B0000000000240027002A0083
:10009000040404040404040402020202020203032E
:1000A0000303030301020408102040800102040836
:1000B0001020010204081020650511241FBECFEF97
:1000C000D8E0DEBFCDBF11E0A0E0B1E0E4E2FEE0A9
:1000D00002C005900D92A639B107D9F722E0A6E932
:1000E000B1E001C01D92A137B207E1F710E0CDE504
:1000F000D0E004C02197FE010E940A07CC35D10749
:10010000C9F70E9487050C9410070C94000090E03A
:10011000FC01EC55FF4F249180579F4FFC018491C7
:10012000882399F090E0880F991FFC01EA57FF4F50
:10013000A591B491FC01E458FF4F859194918FB73C
:10014000F894EC91E22BEC938FBF089590E0FC01C2
:10015000E859FF4F2491FC01EC55FF4F3491FC010D
:10016000E057FF4FE491EE23C9F0222339F023300A
:1001700001F1A8F4213019F1223029F1F0E0EE0F5D
:10018000FF1FE458FF4FA591B4918FB7F894EC91FD
:10019000611126C030953E233C938FBF08952730D0
:1001A000A9F02830C9F0243049F7809180008F7D74
:1001B00003C0809180008F7780938000DFCF84B56B
:1001C0008F7784BDDBCF84B58F7DFBCF8091B0006E
:1001D0008F778093B000D2CF8091B0008F7DF9CF20
:1001E0003E2BDACF3FB7F89480915502909156029A
:1001F000A0915702B091580226B5A89B05C02F3F89
:1002000019F00196A11DB11D3FBFBA2FA92F982F3C
:100210008827BC01CD01620F711D811D911D42E037
:10022000660F771F881F991F4A95D1F708958F92FF
:100230009F92AF92BF92CF92DF92EF92FF924B01CB
:100240005C010E94F2006B017C010E94F2006C19BB
:100250007D098E099F09683E734081059105A8F3C9
:1002600021E0821A9108A108B10888EEC80E83E047
:10027000D81EE11CF11C81149104A104B10429F7DA
:10028000FF90EF90DF90CF90BF90AF909F908F90B6
:10029000089508950895AF92BF92CF92DF92EF92A2
:1002A000FF920F931F93CF93DF936C017B018B0120
:1002B000040F151FEB015E01AE18BF08C017D10770
:1002C00059F06991D601ED91FC910190F081E02DFA
:1002D000C6010995892B79F7C501DF91CF911F914F
:1002E0000F91FF90EF90DF90CF90BF90AF90089567
:1002F0002091FE01260F3327331F21323105ECF404
:1003000020912202FC0190E080E0243069F082E03C
:100310000895A091FE012191AC0142525E4FA40FBD
:10032000B52FB11D2C930196861798F38091FE018D
:10033000680F6093FE0180E0089581E008951092B7
:10034000220281E0809324021092230261E082E184
:100350000E94A60061E083E10E94A600E9EBF0E0C4
:1003600080818E7F808380818D7F808388E48093ED
:10037000B80085E48093BC000895CF93DF9391E0AB
:100380009093DD018823B9F0C091B800D091BA00F4
:100390008091BC008A7B8093BC0060E082E10E9477
:1003A000A60060E083E10E94A6000E949F01D09316
:1003B000BA00C093B800DF91CF9108950895E091FD
:1003C0004F0280914E02E81730F4F0E0E854FE4FFF
:1003D000808190E008958FEF9FEF089590914F02F4
:1003E00080914E022FEF3FEF981748F4E92FF0E08D
:1003F000E854FE4F208130E09F5F90934F02C90187
:10040000089580914E0290914F02891B990B089597
:10041000CF92DF92EF92FF920F931F93CF93DF93D0
:100420007C01CB018A012091B701222389F0EB01E5
:100430006B01C40ED51ECC15DD0569F06991D7019D
:10044000ED91FC910190F081E02DC7010995F3CF6A
:10045000642F0E947801C801DF91CF911F910F9105
:10046000FF90EF90DF90CF900895CF93DF931F928E
:10047000CDB7DEB769832091B7012223F9F020912F
:100480004C02203258F021E030E0FC01338322831B
:1004900090E080E00F90DF91CF91089580914D0220
:1004A000E82FF0E0E956FE4F998190838F5F8093AB
:1004B0004D0280934C0281E090E0ECCF61E0CE01F0
:1004C00001960E947801F7CFCF92DF92EF92FF92D0
:1004D0000F931F93CF93DF93FC01C48121E02093FE
:1004E000B701C093960110924D0210924C02838581
:1004F000682B89E592E00E943502D0914C02D132FE
:1005000008F092C00E94F2006B017C0180912202EF
:10051000811165C082E08093220281E080932402F1
:100520008FEF8093210210924602D0934502A7E9F3
:10053000B1E0E5E2F2E080E0D81385C01092470216
:1005400080914702CC0FC82BC093470280912302B1
:10055000813009F07CC0109223020E94F2006B01EE
:100560007C01809147028093BB008091D9019091DA
:10057000DA01A091DB01B091DC01892B8A2B8B2B56
:1005800099F00E94F2000091D9011091DA012091B6
:10059000DB013091DC016C197D098E099F0906177A
:1005A000170728073907E0F18091BC0083FDD9CFF8
:1005B00085EC8093BC000E94F2006B017C0180916D
:1005C0002202823009F445C0809121028F3F61F1FF
:1005D00080912102803241F18091210225C08091D9
:1005E000D9019091DA01A091DB01B091DC01892B56
:1005F0008A2B8B2B09F48ACF0E94F2000091D9013B
:100600001091DA012091DB013091DC016C197D0938
:100610008E099F09061717072807390708F076CFB4
:100620008091D8010E94BD0110924D0210924C029F
:100630001092B701DF91CF911F910F91FF90EF9032
:10064000DF90CF9008959D9191938F5F75CF85EE48
:10065000B0CF8091D9019091DA01A091DB01B091E6
:10066000DC01892B8A2B8B2B09F4A9CF0E94F20085
:100670000091D9011091DA012091DB013091DC0168
:100680006C197D098E099F09061717072807390776
:1006900008F095CFC5CF089590E080E00895FC0163
:1006A00001900020E9F73197AF01481B590BBC01BD
:1006B00085E692E00C944B0185ED8093BC0080911F
:1006C000D9019091DA01A091DB01B091DC0107968C
:1006D000A11DB11D23E0B695A795979587952A95FD
:1006E000D1F72091BC0024FD03C01092220208958E
:1006F0004091D9015091DA016091DB017091DC01E8
:10070000452B462B472B69F30097A105B10541F016
:100710002AE22A95F1F700C00197A109B109E1CFBA
:100720008091D8010C94BD010F931F93CF938C013E
:10073000C62F0E9464026C2F6460C8010E9464028C
:100740006C2F6B7FC8010E94640283EC90E00197DC
:10075000F1F7CF911F910F9108950F931F93CF93AE
:10076000DF938C01D62FC42F607F642B0E949403EB
:1007700080E1D89FB00111246C2BC801DF91CF918B
:100780001F910F910C949403CF93DF93CDB7DEB7F5
:1007900028970FB6F894DEBF0FBECDBF98E0E0E01B
:1007A000F1E0DE01119601900D929A95E1F790919A
:1007B0006E02981710F48FEF890F90E0880F991F41
:1007C00021E030E02C0F3D1F820F931FFC01608160
:1007D000606840E085E692E028960FB6F894DEBFA8
:1007E0000FBECDBFDF91CF910C94AD0341E00E94CD
:1007F000AD0381E090E008951F920F920FB60F9223
:1008000011242F933F938F939F93AF93BF93809126
:10081000510290915202A0915302B0915402309132
:10082000500223E0230F2D3758F50196A11DB11D6D
:10083000209350028093510290935202A09353024E
:10084000B09354028091550290915602A0915702A4
:10085000B09158020196A11DB11D8093550290934D
:100860005602A0935702B0935802BF91AF919F9147
:100870008F913F912F910F900FBE0F901F90189561
:1008800026E8230F0296A11DB11DD2CF1F920F9211
:100890000FB60F9211242F933F934F935F936F9353
:1008A0007F938F939F93AF93BF93EF93FF93809129
:1008B000B900887F803609F44AC0F0F5883209F41F
:1008C000A7C018F5803109F49BC0B8F4882309F457
:1008D000F9C0883009F494C0FF91EF91BF91AF91B6
:1008E0009F918F917F916F915F914F913F912F9148
:1008F0000F900FBE0F901F901895883109F488C093
:10090000803251F78093210214C0803409F49DC0D5
:1009100040F48033B9F38833F9F68093210285ECF3
:10092000B0C0803509F485C0883509F496C0883494
:1009300099F60E945C03D0CF883909F48CC038F551
:10094000883729F050F4883611F0803729F683E093
:10095000809322021092200257C0883809F47BC08D
:10096000803919F0803809F0B7CF809120028032A9
:1009700008F071C0E091200281E08E0F8093200288
:100980008091BB00F0E0E050FE4F80833DC0803B93
:1009900039F0E0F4803A09F479C0883A09F09CCF44
:1009A00084E0809322021092FF011092FE01E091F8
:1009B0004A02F0914B0209958091FE0181110FC00E
:1009C00081E08093FE011092DE0109C0803C09F4B1
:1009D000A6CF883C09F4A3CF883B09F07DCFE091F6
:1009E000FF0181E08E0F8093FF01F0E0E252FE4FA5
:1009F00080818093BB009091FF018091FE0129C00E
:100A0000809147028093BB0085EC8093BC0064CF4B
:100A10009091460280914502981758F5E091460260
:100A200081E08E0F80934602F0E0EB5DFD4F808108
:100A3000E9CFE091460281E08E0F809346028091DB
:100A4000BB00F0E0EB5DFD4F80839091460280910A
:100A500045029817C8F285E8D8CFE091460281E0B8
:100A60008E0F809346028091BB00F0E0EB5DFD4F5E
:100A700080838091240281115CCF81E080932302E6
:100A800084EA8093BC001092220226CF85EC8093EA
:100A9000BC001092220280912002803230F4E0915A
:100AA0002002F0E0E050FE4F10826091200270E0E2
:100AB000E0914802F091490280E092E0099510929D
:100AC00020020ACF1092210234CFE9E5F2E013822E
:100AD000128288EE93E0A0E0B0E084839583A68341
:100AE000B7838CE091E091838083E5E6F2E01382A6
:100AF00012828EE191E09183808387E2848384E196
:100B0000808784E08187128688E0838708957894BF
:100B100084B5826084BD84B5816084BD85B5826002
:100B200085BD85B5816085BD80916E0081608093B3
:100B30006E0010928100809181008260809381001C
:100B4000809181008160809381008091800081602C
:100B5000809380008091B10084608093B100809187
:100B6000B00081608093B00080917A0084608093AF
:100B70007A0080917A00826080937A0080917A0076
:100B8000816080937A0080917A00806880937A00F7
:100B90001092C10010924F0210924E0210924D021C
:100BA00010924C020E949F0189E491E090934B02C5
:100BB00080934A028AE491E090934902809348022C
:100BC00010926A0280916E02823018F098E0909341
:100BD0006A0290916F02992339F0813029F4809153
:100BE0006A02846080936A0262E370E080E090E0D1
:100BF0000E9417016091700285E692E00E946402F3
:100C000068EE73E080E090E00E94170160E385E603
:100C100092E00E949403CBE4D6E4CE010197F1F771
:100C200060E385E692E00E9494032197F1F760E388
:100C300085E692E00E94940383E592E00197F1F744
:100C400060E285E692E00E94940360916A0260622D
:100C500040E085E692E00E94AD0384E080936B0261
:100C600040E06CE085E692E00E94AD0340E061E088
:100C700085E692E00E94AD03CBE3DFE1CE01019770
:100C8000F1F782E080936C0240E066E085E692E056
:100C90000E94AD0340E062E085E692E00E94AD0371
:100CA0002197F1F784E00E94870083E00E9487008B
:100CB00088E00E94870087E00E94870085E00E940C
:100CC000870086E00E948700C0E0D0E061E084E019
:100CD0000E94A60061E083E00E94A60080E00E94DE
:100CE000C40386E291E00E944F0381E00E94C403A6
:100CF0008AE391E00E944F0382E00E94C4038FE4E4
:100D000091E00E944F0383E00E94C40384E691E0D7
:100D10000E944F0361E088E00E94A60060E087E047
:100D20000E94A60061E085E00E94A60060E086E0E7
:100D30000E94A60068E873E180E090E00E9417013D
:100D400080E00E94C40386E291E00E944F0381E0AC
:100D50000E94C4038AE391E00E944F0382E00E9454
:100D6000C4038FE491E00E944F0383E00E94C40318
:100D700084E791E00E944F0360E088E00E94A600B3
:100D800061E087E00E94A60060E085E00E94A60086
:100D900061E086E00E94A60068E873E180E090E0F0
:100DA0000E94170180E00E94C40386E291E00E9445
:100DB0004F0381E00E94C4038AE391E00E944F0345
:100DC00082E00E94C4038FE491E00E944F0383E01D
:100DD0000E94C40385E891E00E944F0360E088E030
:100DE0000E94A60060E087E00E94A60060E085E027
:100DF0000E94A60060E086E00E94A60060ED77E019
:100E000080E090E00E941701209709F45FCF0E94D4
:100E100000005CCFEE0FFF1F0590F491E02D0994C8
:040E2000F894FFCF74
:100E240000004000140054000000000035020802D5
:100E34004C03DE010102EE01DF0100000000F603B5
:100E44004B014C034B0352455055424C4943204FF0
:100E540046204C4547454E445300202020524F42E3
:100E64004F54204341522076312E30202020003C24
:100E7400444556454C4F5045522020505245564902
:100E840045573E0020524F424F5420464F5257413F
:100E94005244200020524F424F54204241434B576A
:100EA400415244200020524F424F542053544F503B
:060EB400202020200000B8
:00000001FF
