:020000040000FA
:100000000C945E000C9486000C9486000C94860080
:100010000C9486000C9486000C9486000C94860048
:100020000C9486000C9486000C9486000C94860038
:100030000C9486000C9486000C9486000C94860028
:100040000C94B5050C9486000C9425060C94FF05C1
:100050000C9486000C9486000C9486000C94860008
:100060000C9457060C948600000000080002010062
:100070000003040700000000000000000000000072
:10008000250028002B0000000000240027002A0083
:10009000040404040404040402020202020203032E
:1000A0000303030301020408102040800102040836
:1000B000102001020408102076078C0A11241FBEAC
:1000C000CFEFD8E0DEBFCDBF23E0AEEFB1E001C09F
:1000D0001D92A138B207E1F711E0A0E0B1E0E8E934
:1000E000F9E102C005900D92AE3FB107D9F710E0DB
:1000F000CDE5D0E004C02197FE010E94C70ACC35AF
:10010000D107C9F70E94C5070C94BF0C0C940000DE
:1001100090E0FC01EC55FF4F249180579F4FFC016C
:100120008491882399F090E0880F991FFC01EA5789
:10013000FF4FA591B491FC01E458FF4F8591949134
:100140008FB7F894EC91E22BEC938FBF089590E079
:10015000FC01E859FF4F2491FC01EC55FF4F34910D
:10016000FC01E057FF4FE491EE23C9F0222339F060
:10017000233001F1A8F4213019F1223029F1F0E007
:10018000EE0FFF1FE458FF4FA591B4918FB7F8947D
:10019000EC91611126C030953E233C938FBF0895AA
:1001A0002730A9F02830C9F0243049F78091800029
:1001B0008F7D03C0809180008F7780938000DFCF98
:1001C00084B58F7784BDDBCF84B58F7DFBCF8091E5
:1001D000B0008F778093B000D2CF8091B0008F7D38
:1001E000F9CF3E2BDACF1F93CF93DF93182FEB017C
:1001F0000E948800209739F460E0812FDF91CF9131
:100200001F910C94A700CF3FD10511F461E0F5CF09
:10021000E12FF0E0E859FF4FE491E33031F140F491
:10022000E130B1F0E230E1F0C038D1057CF7E4CF45
:10023000E73029F1E83059F1E430B1F780918000DE
:10024000806280938000D0938B00C0938A0004C0AA
:1002500084B5806884BDC7BDDF91CF911F9108959B
:1002600084B5806284BDC8BDF7CF8091800080686E
:1002700080938000D0938900C0938800EDCF809157
:10028000B00080688093B000C093B300E5CF809148
:10029000B00080628093B000C093B400DDCF3FB760
:1002A000F8948091BE029091BF02A091C002B091DB
:1002B000C10226B5A89B05C02F3F19F00196A11DCC
:1002C000B11D3FBFBA2FA92F982F8827BC01CD01A0
:1002D000620F711D811D911D42E0660F771F881FFF
:1002E000991F4A95D1F708958F929F92AF92BF922E
:1002F000CF92DF92EF92FF924B015C010E944F017F
:100300006B017C010E944F016C197D098E099F09C8
:10031000683E734081059105A8F321E0821A910897
:10032000A108B10888EEC80E83E0D81EE11CF11CBC
:1003300081149104A104B10429F7FF90EF90DF909C
:10034000CF90BF90AF909F908F900895089508959B
:10035000AF92BF92CF92DF92EF92FF920F931F93D3
:10036000CF93DF936C017B018B01040F151FEB0111
:100370005E01AE18BF08C017D10759F06991D601C8
:10038000ED91FC910190F081E02DC6010995892B3A
:1003900079F7C501DF91CF911F910F91FF90EF90F9
:1003A000DF90CF90BF90AF900895FC01538D448DA6
:1003B000252F30E0842F90E0821B930B541710F010
:1003C000CF96089501970895FC01918D828D98171D
:1003D00061F0A28DAE0FBF2FB11D5D968C91928DF5
:1003E0009F5F9F73928F90E008958FEF9FEF089526
:1003F000FC01918D828D981731F0828DE80FF11DEF
:10040000858D90E008958FEF9FEF0895FC01918D09
:10041000228D892F90E0805C9F4F821B91098F7302
:100420009927089582EC92E00E94060221E0892B30
:1004300009F420E0822F089580E090E0892B29F0D4
:100440000E94120281110C9400000895FC01A48DF9
:10045000A80FB92FB11DA35ABF4F2C91848D90E0E6
:1004600001968F739927848FA689B7892C93A089C9
:10047000B1898C91837080648C93938D848D981353
:1004800006C00288F389E02D80818F7D80830895E6
:10049000EF92FF920F931F93CF93DF93EC0181E0D4
:1004A000888F9B8D8C8D98131AC0E889F98980817B
:1004B00085FF15C09FB7F894EE89FF896083E889AE
:1004C000F98980818370806480839FBF81E090E0A0
:1004D000DF91CF911F910F91FF90EF900895F62E2D
:1004E0000B8D10E00F5F1F4F0F731127E02E8C8DC7
:1004F0008E110CC00FB607FCFACFE889F98980810C
:1005000085FFF5CFCE010E942602F1CFEB8DEC0FD7
:10051000FD2FF11DE35AFF4FF0829FB7F8940B8F28
:10052000EA89FB8980818062CFCFCF93DF93EC0192
:10053000888D8823B9F0AA89BB89E889F9898C91CB
:1005400085FD03C0808186FD0DC00FB607FCF7CF87
:100550008C9185FFF2CF808185FFEDCFCE010E9487
:100560002602E9CFDF91CF91089520916602260FF0
:100570003327331F21323105ECF420918A02FC012C
:1005800090E080E0243069F082E00895A091660256
:100590002191AC014A5B5D4FA40FB52FB11D2C9387
:1005A0000196861798F380916602680F6093660241
:1005B00080E0089581E0089510928A0281E080939E
:1005C0008C0210928B0261E082E10E94A70061E040
:1005D00083E10E94A700E9EBF0E080818E7F8083B9
:1005E00080818D7F808388E48093B80085E4809348
:1005F000BC000895CF93DF9391E090934502882348
:10060000B9F0C091B800D091BA008091BC008A7B4B
:100610008093BC0060E082E10E94A70060E083E17B
:100620000E94A7000E94DC02D093BA00C093B800D9
:10063000DF91CF9108950895E091B7028091B602BD
:10064000E81730F4F0E0E05EFD4F808190E008951F
:100650008FEF9FEF08959091B7028091B6022FEF30
:100660003FEF981748F4E92FF0E0E05EFD4F20815E
:1006700030E09F5F9093B702C90108958091B60260
:100680009091B702891B990B0895CF92DF92EF9258
:10069000FF920F931F93CF93DF937C01CB018A01CD
:1006A00020911F02222389F0EB016B01C40ED51E9D
:1006B000CC15DD0569F06991D701ED91FC910190B0
:1006C000F081E02DC7010995F3CF642F0E94B50298
:1006D000C801DF91CF911F910F91FF90EF90DF90B4
:1006E000CF900895CF93DF931F92CDB7DEB7698384
:1006F00020911F022223F9F02091B402203258F0F9
:1007000021E030E0FC013383228390E080E00F9011
:10071000DF91CF9108958091B502E82FF0E0E1508C
:10072000FE4F998190838F5F8093B5028093B402CE
:1007300081E090E0ECCF61E0CE0101960E94B5022D
:10074000F7CFCF92DF92EF92FF920F931F93CF9349
:10075000DF93FC01C48121E020931F02C093FE01BE
:100760001092B5021092B4028385682B8FE593E056
:100770000E947203D091B402D13208F092C00E945C
:100780004F016B017C0180918A02811165C082E07A
:1007900080938A0281E080938C028FEF809389029C
:1007A0001092AE02D093AD02AFEFB1E0EDE8F2E00F
:1007B00080E0D81385C01092AF028091AF02CC0FB9
:1007C000C82BC093AF0280918B02813009F07CC0AE
:1007D00010928B020E944F016B017C018091AF024D
:1007E0008093BB008091410290914202A09143020C
:1007F000B0914402892B8A2B8B2B99F00E944F01D8
:100800000091410210914202209143023091440232
:100810006C197D098E099F090617170728073907E4
:10082000E0F18091BC0083FDD9CF85EC8093BC00C2
:100830000E944F016B017C0180918A02823009F491
:1008400045C0809189028F3F61F180918902803299
:1008500041F18091890225C080914102909142022C
:10086000A0914302B0914402892B8A2B8B2B09F46F
:100870008ACF0E944F0100914102109142022091C3
:100880004302309144026C197D098E099F090617B5
:1008900017072807390708F076CF809140020E9499
:1008A000FA021092B5021092B40210921F02DF9168
:1008B000CF911F910F91FF90EF90DF90CF9008950F
:1008C0009D9191938F5F75CF85EEB0CF809141025E
:1008D00090914202A0914302B0914402892B8A2B4D
:1008E0008B2B09F4A9CF0E944F0100914102109176
:1008F000420220914302309144026C197D098E0915
:100900009F09061717072807390708F095CFC5CFA5
:10091000089590E080E0089561E08CE00E94A700D7
:1009200068EC70E080E090E00E94740160E08CE090
:100930000E94A70068EB7BE080E090E00C947401DB
:100940000F931F93CF938C01C62F0E94A1036C2F8E
:100950006460C8010E94A1036C2F6B7FC8010E94D4
:10096000A10383EC90E00197F1F7CF911F910F91D4
:1009700008950F931F93CF93DF938C01D62FC42F2D
:10098000607F642B0E94A00480E1D89FB0011124F5
:100990006C2BC801DF91CF911F910F910C94A00493
:1009A000CF93DF93CDB7DEB728970FB6F894DEBFAD
:1009B0000FBECDBF98E0E8E0F1E0DE0111960190B6
:1009C0000D929A95E1F790917A03981710F48FEFB2
:1009D000890F90E0880F991F21E030E02C0F3D1F18
:1009E000820F931FFC016081606840E081E793E023
:1009F00028960FB6F894DEBF0FBECDBFDF91CF9122
:100A00000C94B904CF93DF93EC0183E00E94D004EF
:100A10004C815D816881798181E793E0DF91CF919D
:100A20000C94A80141E00E94B90481E090E008958F
:100A3000FC0101900020E9F73197AF01481B590BE9
:100A4000BC0181E793E00C94A801FC0180819181B5
:100A5000009711F00C94690B0895EF92FF920F9399
:100A60001F93CF93DF93EC017B018A0188819981E9
:100A7000009729F02A813B812417350788F4B801B3
:100A80006F5F7F4F0E94F20B009791F099838883EC
:100A90001B830A832C813D81232B11F4FC011082DE
:100AA0001D830C83B701888199810E94B80C0CC00A
:100AB00088819981009711F00E94690B1982188230
:100AC0001D821C821B821A82CE01DF91CF911F9161
:100AD0000F91FF90EF900895FC0111821082138214
:100AE000128215821482FB0101900020E9F73197F0
:100AF000AF01461B570B0C942D0585ED8093BC0070
:100B00008091410290914202A0914302B09144022F
:100B10000796A11DB11D23E0B695A79597958795DA
:100B20002A95D1F72091BC0024FD03C010928A02BF
:100B300008954091410250914202609143027091A8
:100B40004402452B462B472B69F30097A105B105BD
:100B500041F02AE22A95F1F700C00197A109B109F5
:100B6000E1CF809140020C94FA021F920F920FB6CF
:100B70000F9211242F933F938F939F93AF93BF9323
:100B80008091BA029091BB02A091BC02B091BD02CB
:100B90003091B90223E0230F2D3758F50196A11D9E
:100BA000B11D2093B9028093BA029093BB02A09327
:100BB000BC02B093BD028091BE029091BF02A09191
:100BC000C002B091C1020196A11DB11D8093BE0269
:100BD0009093BF02A093C002B093C102BF91AF91A6
:100BE0009F918F913F912F910F900FBE0F901F906B
:100BF000189526E8230F0296A11DB11DD2CF1F9292
:100C00000F920FB60F9211242F933F934F935F9340
:100C10006F937F938F939F93AF93BF93EF93FF93C4
:100C200082EC92E00E942602FF91EF91BF91AF917A
:100C30009F918F917F916F915F914F913F912F91F4
:100C40000F900FBE0F901F9018951F920F920FB626
:100C50000F9211242F938F939F93EF93FF93E09123
:100C6000D202F091D3028081E091D802F091D902B2
:100C700082FD1BC090818091DB028F5F8F7320917A
:100C8000DC02821741F0E091DB02F0E0EE53FD4F11
:100C9000958F8093DB02FF91EF919F918F912F9120
:100CA0000F900FBE0F901F9018958081F4CF1F9268
:100CB0000F920FB60F9211242F933F934F935F9390
:100CC0006F937F938F939F93AF93BF93EF93FF9314
:100CD0008091B900887F803609F44AC0F0F58832E7
:100CE00009F4A7C018F5803109F49BC0B8F4882333
:100CF00009F4F9C0883009F494C0FF91EF91BF91D5
:100D0000AF919F918F917F916F915F914F913F91A3
:100D10002F910F900FBE0F901F901895883109F4F6
:100D200088C0803251F78093890214C0803409F45E
:100D30009DC040F48033B9F38833F9F6809389027B
:100D400085ECB0C0803509F485C0883509F496C0BB
:100D5000883499F60E947D05D0CF883909F48CC07B
:100D600038F5883729F050F4883611F0803729F6A5
:100D700083E080938A021092880257C0883809F471
:100D80007BC0803919F0803809F0B7CF8091880294
:100D9000803208F071C0E091880281E08E0F80936C
:100DA00088028091BB00F0E0E859FD4F80833DC090
:100DB000803B39F0E0F4803A09F479C0883A09F0D0
:100DC0009CCF84E080938A021092670210926602A0
:100DD000E091B202F091B30209958091660281110F
:100DE0000FC081E0809366021092460209C0803CE9
:100DF00009F4A6CF883C09F4A3CF883B09F07DCF46
:100E0000E091670281E08E0F80936702F0E0EA5B79
:100E1000FD4F80818093BB009091670280916602B4
:100E200029C08091AF028093BB0085EC8093BC0009
:100E300064CF9091AE028091AD02981758F5E09181
:100E4000AE0281E08E0F8093AE02F0E0E357FD4FDB
:100E50008081E9CFE091AE0281E08E0F8093AE02F7
:100E60008091BB00F0E0E357FD4F80839091AE028C
:100E70008091AD029817C8F285E8D8CFE091AE0214
:100E800081E08E0F8093AE028091BB00F0E0E357CB
:100E9000FD4F808380918C0281115CCF81E0809333
:100EA0008B0284EA8093BC0010928A0226CF85ECE4
:100EB0008093BC0010928A0280918802803230F4C4
:100EC000E0918802F0E0E859FD4F108260918802BD
:100ED00070E0E091B002F091B10288E692E00995ED
:100EE000109288020ACF1092890234CFE2ECF2E02D
:100EF0001382128288EE93E0A0E0B0E084839583B1
:100F0000A683B78324E131E03183208325EC30E0F0
:100F10003587248724EC30E03787268720EC30E0C3
:100F2000318B208B21EC30E0338B228B22EC30E0B4
:100F3000358B248B26EC30E0378B268B118E128E6E
:100F4000138E148EEFE5F3E013821282848395836F
:100F5000A683B78386E291E091838083E1E7F3E0A3
:100F60001382128288E391E09183808387E28483F5
:100F700084E1808784E08187128688E0838763E943
:100F800071E08BE693E00C946C05CF93DF9300D077
:100F900000D000D0CDB7DEB7789484B5826084BD30
:100FA00084B5816084BD85B5826085BD85B581606D
:100FB00085BD80916E00816080936E0010928100EB
:100FC00080918100826080938100809181008160A6
:100FD0008093810080918000816080938000809167
:100FE000B10084608093B1008091B00081608093F3
:100FF000B00080917A00846080937A0080917A00BA
:10100000826080937A0080917A00816080937A0078
:1010100080917A00806880937A001092C100E091FC
:10102000D202F091D30282E08083E091CE02F0916F
:10103000CF021082E091D002F091D1028FEC808338
:101040001092DA02E091D602F091D70286E0808316
:10105000E091D402F091D502808180618083E0919B
:10106000D402F091D502808188608083E091D4021F
:10107000F091D502808180688083E091D402F09164
:10108000D50280818F7D80831092B7021092B602C4
:101090001092B5021092B4020E94DC0286EA91E03E
:1010A0009093B3028093B20287EA91E09093B102E9
:1010B0008093B0021092760380917A03823018F008
:1010C00098E09093760390917B03992339F08130D7
:1010D00029F48091760384608093760362E370E064
:1010E00080E090E00E94740160917C0381E793E0CE
:1010F0000E94A10368EE73E080E090E00E9474011A
:1011000060E381E793E00E94A0040BE416E4C801C9
:101110000197F1F760E381E793E00E94A004C80122
:101120000197F1F760E381E793E00E94A00483E573
:1011300092E00197F1F760E281E793E00E94A0045A
:1011400060917603606240E081E793E00E94B90419
:1011500084E08093770340E06CE081E793E00E94B5
:10116000B90440E061E081E793E00E94B9040BE339
:101170001FE1C8010197F1F782E08093780340E016
:1011800066E081E793E00E94B90440E062E081E715
:1011900093E00E94B904C8010197F1F78AE00E9428
:1011A000880089E00E94880084E00E94880085E031
:1011B0000E94880086E00E94880087E00E948800E4
:1011C0008CE00E94880080E00E94D00480E491E0DE
:1011D0000E94180581E00E94D00484E591E00E94FD
:1011E000180582E00E94D00488E691E00E9418056C
:1011F00083E00E94D0048CE791E00E9418050E94D1
:101200008C0442ED242E312C54EB452E512C66E9F2
:10121000662E712C8AE5C82ED12C9CE3A92EB12C08
:101220002EE1822E912C30E0E32E30E0F32E00915F
:10123000000110910101B8018AE00E94F300B80199
:1012400089E00E94F30082EC92E00E940602892B62
:1012500009F418C182EC92E00E94E4018093B80284
:10126000682F82EC92E00E94480242E050E061E97F
:1012700071E082EC92E00E94A8018091B80283356F
:10128000A9F560E084E00E94A70060E085E00E948C
:10129000A70060E086E00E94A70060E087E00E946F
:1012A000A70044E150E064E971E08BE693E00E941E
:1012B0002D051A8219821C821B821E821D8260915A
:1012C0006B0370916C036115710541F040916F03E0
:1012D00050917003CE0101960E942D05CE0101961A
:1012E0000E940205CE0101960E9425058091B80258
:1012F0008634F1F461E084E00E94A70060E085E0BC
:101300000E94A70061E086E00E94A70060E087E0FD
:101310000E94A70069EA71E0CE0101960E946C0567
:10132000CE0101960E940205CE0101960E9425057C
:101330008091B8028234F1F460E084E00E94A7005A
:1013400061E085E00E94A70060E086E00E94A700BF
:1013500061E087E00E94A7006EEB71E0CE0101968C
:101360000E946C05CE0101960E940205CE010196F5
:101370000E9425058091B8028C34F1F461E084E08C
:101380000E94A70060E085E00E94A70060E086E080
:101390000E94A70061E087E00E94A70063ED71E072
:1013A000CE0101960E946C05CE0101960E940205B5
:1013B000CE0101960E9425058091B8028235F1F494
:1013C00060E084E00E94A70061E085E00E94A70041
:1013D00061E086E00E94A70060E087E00E94A7002D
:1013E00068EE71E0CE0101960E946C05CE01019677
:1013F0000E940205CE0101960E9425058091B80247
:10140000843481F46CE771E0CE0101960E946C0592
:10141000CE0101960E940205CE0101960E9425058B
:101420000E948C048091B8028B3481F46CE771E0E7
:10143000CE0101960E946C05CE0101960E94020524
:10144000CE0101960E9425050E948C048091B8026D
:101450008B3281F46CE771E0CE0101960E946C053D
:10146000CE0101960E940205CE0101960E9425053B
:101470000E948C048091B802803381F410920101A3
:1014800010920001E114F10409F4D1CE0E9412027D
:10149000882309F4BFCE0E940000BCCE813329F41A
:1014A0009092010180920001EDCF823329F4B09235
:1014B0000101A0920001E6CF833329F4D09201010B
:1014C000C0920001DFCF843339F488E790E0909335
:1014D000010180930001D6CF853329F47092010178
:1014E00060920001CFCF863329F4509201014092DF
:1014F0000001C8CF873329F4309201012092000106
:10150000C1CF883319F480EF90E0E1CF893309F03F
:10151000B9CF8FEF90E0DBCF8BE693E00C942505FD
:101520002F923F924F925F926F927F928F929F92F3
:10153000AF92BF92CF92DF92EF92FF920F931F93E1
:10154000CF93DF93CDB7DEB7CA1BDB0B0FB6F89492
:10155000DEBF0FBECDBF09942A88398848885F84D2
:101560006E847D848C849B84AA84B984C884DF8043
:10157000EE80FD800C811B81AA81B981CE0FD11D27
:101580000FB6F894DEBF0FBECDBFED010895EE0F8C
:10159000FF1F0590F491E02D09940F931F93CF93B3
:1015A000DF938230910510F482E090E0E0917F03B8
:1015B000F091800330E020E0B0E0A0E0309799F4B3
:1015C0002115310509F44AC0281B390B2430310597
:1015D000D8F58A819B816115710589F1FB0193839F
:1015E0008283FE0111C0408151810281138148171D
:1015F0005907E0F04817590799F4109761F01296CF
:101600000C93129713961C933296CF01DF91CF91D2
:101610001F910F91089500937F0310938003F4CFDF
:101620002115310551F04217530738F0A901DB01AC
:101630009A01BD01DF01F801C1CFEF01F9CF90930D
:10164000800380937F03CDCFFE01E20FF31F8193D0
:1016500091932250310939832883D7CF20917D037C
:1016600030917E03232B41F4209104013091050138
:1016700030937E0320937D0320910201309103017A
:101680002115310541F42DB73EB740910601509127
:101690000701241B350BE0917D03F0917E03E217D7
:1016A000F307A0F42E1B3F0B2817390778F0AC0185
:1016B0004E5F5F4F2417350748F04E0F5F1F509362
:1016C0007E0340937D03819391939FCFF0E0E0E010
:1016D0009CCFCF93DF930097E9F0FC013297138200
:1016E0001282A0917F03B0918003ED0130E020E0F1
:1016F0001097A1F420813181820F931F20917D03E7
:1017000030917E032817390709F061C0F0937E03FA
:10171000E0937D03DF91CF910895EA01CE17DF07B3
:10172000E8F54A815B819E0141155105B1F7E90158
:10173000FB83EA8349915991C40FD51FEC17FD072C
:1017400061F4808191810296840F951FE90199834C
:101750008883828193819B838A83F0E0E0E0129604
:101760008D919C9113970097B9F52D913C9111970C
:10177000CD010296820F931F20917D0330917E034D
:101780002817390739F6309751F5109280031092D7
:101790007F03B0937E03A0937D03BCCFD383C2832A
:1017A00040815181840F951FC817D90761F44E5F9E
:1017B0005F4F88819981480F591F518340838A81E7
:1017C0009B81938382832115310509F0B0CFF0937B
:1017D0008003E0937F039ECFFD01DC01C0CF138225
:1017E0001282D7CFB0E0A0E0E8EFFBE00C94920AC1
:1017F0008C01009751F4CB010E94CD0A8C01C801E5
:10180000CDB7DEB7E0E10C94AE0AFC01E60FF71F9E
:101810009C0122503109E217F30708F49DC0D90159
:10182000CD91DC911197C617D70798F0C530D10537
:1018300030F3CE0104978617970708F3C61BD70B22
:101840002297C193D1936D937C93CF010E94690B32
:10185000D6CF5B01AC1ABD0A4C018C0E9D1EA09127
:101860007F03B0918003512C412CF12CE12C109777
:1018700031F580917D0390917E038815990509F0DB
:101880005CC04616570608F058C08091020190913E
:101890000301009741F48DB79EB740910601509126
:1018A0000701841B950BE817F90708F055C0F09362
:1018B0007E03E0937D03F90171836083A0CF8D9156
:1018C0009C91119712966C90129713967C90139797
:1018D000A815B90559F56C0142E0C40ED11CCA1413
:1018E000DB0420F1AC014A195B09DA011296159765
:1018F00080F06282738251834083D9016D937C931F
:10190000E114F10471F0D7011396FC93EE93129752
:1019100076CF22968C0F9D1FF90191838083F3016E
:10192000EFCFF0938003E0937F0369CF4816590609
:1019300008F42C017D01D3019ACFCB010E94CD0A7E
:101940007C01009749F0AE01B8010E94AF0CC801BC
:101950000E94690B870153CF10E000E050CFFB01DC
:10196000DC0102C001900D9241505040D8F708951B
:10197000FB01DC0101900D920020E1F7089510E0D9
:10198000CDE5D0E004C0FE010E94C70A2196CE3505
:10199000D107C9F7F894FFCF9600000081038000BB
:1019A0000000400014005400000000004802A8019C
:1019B000D50195020602E401F8010000000072035F
:1019C000450389041B033E032B031C030000000096
:1019D0001205A8018904880452455055424C4943D8
:1019E000204F46204C4547454E445300202020526E
:1019F0004F424F54204341522076312E3020200058
:101A00002020203C424554412050524556494557DC
:101A10003E2020003C3C4D45204E4F5420434F4E2D
:101A20004E45435445443E3E000D0A002A434F4E66
:101A30004E454354454420544F2050484F4E452A6C
:101A4000002020202020474F20464F52574152442B
:101A50002020202020002020202020474F2042410D
:101A6000434B57415244202020200020202020209A
:101A700020474F204C454654202020202020200085
:101A8000202020202020474F205249474854202022
:061A9000202020200000D0
:107E0000112484B714BE81FFF0D085E080938100F7
:107E100082E08093C00088E18093C10086E0809377
:107E2000C20080E18093C4008EE0C9D0259A86E02C
:107E300020E33CEF91E0309385002093840096BBD3
:107E4000B09BFECF1D9AA8958150A9F7CC24DD24C4
:107E500088248394B5E0AB2EA1E19A2EF3E0BF2EE7
:107E6000A2D0813461F49FD0082FAFD0023811F036
:107E7000013811F484E001C083E08DD089C08234E0
:107E800011F484E103C0853419F485E0A6D080C0E4
:107E9000853579F488D0E82EFF2485D0082F10E0AE
:107EA000102F00270E291F29000F111F8ED06801E7
:107EB0006FC0863521F484E090D080E0DECF843638
:107EC00009F040C070D06FD0082F6DD080E0C81688
:107ED00080E7D80618F4F601B7BEE895C0E0D1E017
:107EE00062D089930C17E1F7F0E0CF16F0E7DF06D8
:107EF00018F0F601B7BEE89568D007B600FCFDCFD4
:107F0000A601A0E0B1E02C9130E011968C91119780
:107F100090E0982F8827822B932B1296FA010C0160
:107F200087BEE89511244E5F5F4FF1E0A038BF0790
:107F300051F7F601A7BEE89507B600FCFDCF97BE46
:107F4000E89526C08437B1F42ED02DD0F82E2BD052
:107F50003CD0F601EF2C8F010F5F1F4F84911BD097
:107F6000EA94F801C1F70894C11CD11CFA94CF0C13
:107F7000D11C0EC0853739F428D08EE10CD085E9AC
:107F80000AD08FE07ACF813511F488E018D01DD067
:107F900080E101D065CF982F8091C00085FFFCCF94
:107FA0009093C60008958091C00087FFFCCF809118
:107FB000C00084FD01C0A8958091C6000895E0E648
:107FC000F0E098E1908380830895EDDF803219F02E
:107FD00088E0F5DFFFCF84E1DECF1F93182FE3DFCA
:107FE0001150E9F7F2DF1F91089580E0E8DFEE27F6
:047FF000FF270994CA
:027FFE00040479
:00000001FF
