:020000040000FA
:100000000C945D000C9485000C9485000C94850084
:100010000C9485000C9485000C9485000C9485004C
:100020000C9485000C9485000C9485000C9485003C
:100030000C9485000C9485000C9485000C9485002C
:100040000C94C3030C9485000C9485000C948500DB
:100050000C9485000C9485000C9485000C9485000C
:100060000C940D040C9485000000000800020100AF
:100070000003040700000000000000000000000072
:10008000250028002B0000000000240027002A0083
:10009000040404040404040402020202020203032E
:1000A0000303030301020408102040800102040836
:1000B00010200102040810202C0511241FBECFEFD0
:1000C000D8E0DEBFCDBF11E0A0E0B1E0EEE5FDE09D
:1000D00002C005900D92A435B107D9F722E0A4E53E
:1000E000B1E001C01D92AF32B207E1F710E0CDE5FB
:1000F000D0E004C02197FE010E94A706CC35D107AD
:10010000C9F70E944E050C94AD060C94000090E0D7
:10011000FC01EC55FF4F249180579F4FFC018491C7
:10012000882399F090E0880F991FFC01EA57FF4F50
:10013000A591B491FC01E458FF4F859194918FB73C
:10014000F894EC91E22BEC938FBF089590E0FC01C2
:10015000E859FF4F2491FC01EC55FF4F3491FC010D
:10016000E057FF4FE491EE23C9F0222339F023300A
:1001700001F1A8F4213019F1223029F1F0E0EE0F5D
:10018000FF1FE458FF4FA591B4918FB7F894EC91FD
:10019000611126C030953E233C938FBF08952730D0
:1001A000A9F02830C9F0243049F7809180008F7D74
:1001B00003C0809180008F7780938000DFCF84B56B
:1001C0008F7784BDDBCF84B58F7DFBCF8091B0006E
:1001D0008F778093B000D2CF8091B0008F7DF9CF20
:1001E0003E2BDACF3FB7F89480911302909114021E
:1001F000A0911502B091160226B5A89B05C02F3F0D
:1002000019F00196A11DB11D3FBFBA2FA92F982F3C
:100210008827BC01CD01620F711D811D911D42E037
:10022000660F771F881F991F4A95D1F708958F92FF
:100230009F92AF92BF92CF92DF92EF92FF924B01CB
:100240005C010E94F2006B017C010E94F2006C19BB
:100250007D098E099F09683E734081059105A8F3C9
:1002600021E0821A9108A108B10888EEC80E83E047
:10027000D81EE11CF11C81149104A104B10429F7DA
:10028000FF90EF90DF90CF90BF90AF909F908F90B6
:10029000089508950895AF92BF92CF92DF92EF92A2
:1002A000FF920F931F93CF93DF936C017B018B0120
:1002B000040F151FEB015E01AE18BF08C017D10770
:1002C00059F06991D601ED91FC910190F081E02DFA
:1002D000C6010995892B79F7C501DF91CF911F914F
:1002E0000F91FF90EF90DF90CF90BF90AF90089567
:1002F0002091BC01260F3327331F21323105ECF446
:100300002091E001FC0190E080E0243069F082E07F
:100310000895A091BC012191AC0144565E4FA40FF9
:10032000B52FB11D2C930196861798F38091BC01CF
:10033000680F6093BC0180E0089581E008951092F9
:10034000E00181E08093E2011092E10161E082E14D
:100350000E94A60061E083E10E94A600E9EBF0E0C4
:1003600080818E7F808380818D7F808388E48093ED
:10037000B80085E48093BC000895CF93DF9391E0AB
:1003800090939B018823B9F0C091B800D091BA0036
:100390008091BC008A7B8093BC0060E082E10E9477
:1003A000A60060E083E10E94A6000E949F01D09316
:1003B000BA00C093B800DF91CF9108950895E091FD
:1003C0000D0280910C02E81730F4F0E0EA58FE4F7D
:1003D000808190E008958FEF9FEF089590910D0236
:1003E00080910C022FEF3FEF981748F4E92FF0E0CF
:1003F000EA58FE4F208130E09F5F90930D02C901C3
:10040000089580910C0290910D02891B990B08951B
:10041000CF92DF92EF92FF920F931F93CF93DF93D0
:100420007C01CB018A0120917501222389F0EB0127
:100430006B01C40ED51ECC15DD0569F06991D7019D
:10044000ED91FC910190F081E02DC7010995F3CF6A
:10045000642F0E947801C801DF91CF911F910F9105
:10046000FF90EF90DF90CF900895CF93DF931F928E
:10047000CDB7DEB76983209175012223F9F0209171
:100480000A02203258F021E030E0FC01338322835D
:1004900090E080E00F90DF91CF91089580910B0262
:1004A000E82FF0E0EB5AFE4F998190838F5F8093A5
:1004B0000B0280930A0281E090E0ECCF61E0CE0174
:1004C00001960E947801F7CFCF92DF92EF92FF92D0
:1004D0000F931F93CF93DF93FC01C48121E02093FE
:1004E0007501C093540110920B0210920A02838589
:1004F000682B87E192E00E943502D0910A02D13246
:1005000008F092C00E94F2006B017C018091E00132
:10051000811165C082E08093E00181E08093E20177
:100520008FEF8093DF0110920402D0930302A5E5C0
:10053000B1E0E3EEF1E080E0D81385C0109205024F
:1005400080910502CC0FC82BC09305028091E10178
:10055000813009F07CC01092E1010E94F2006B0131
:100560007C01809105028093BB008091970190915E
:100570009801A0919901B0919A01892B8A2B8B2B1C
:1005800099F00E94F200009197011091980120913A
:10059000990130919A016C197D098E099F090617FE
:1005A000170728073907E0F18091BC0083FDD9CFF8
:1005B00085EC8093BC000E94F2006B017C0180916D
:1005C000E001823009F445C08091DF018F3F61F185
:1005D0008091DF01803241F18091DF0125C080915F
:1005E000970190919801A0919901B0919A01892B5E
:1005F0008A2B8B2B09F48ACF0E94F200009197017D
:10060000109198012091990130919A016C197D09FE
:100610008E099F09061717072807390708F076CFB4
:10062000809196010E94BD0110920B0210920A0265
:1006300010927501DF91CF911F910F91FF90EF9074
:10064000DF90CF9008959D9191938F5F75CF85EE48
:10065000B0CF8091970190919801A0919901B091AC
:100660009A01892B8A2B8B2B09F4A9CF0E94F200C7
:1006700000919701109198012091990130919A0170
:100680006C197D098E099F09061717072807390776
:1006900008F095CFC5CF089590E080E0089585EDEE
:1006A0008093BC008091970190919801A09199014D
:1006B000B0919A010796A11DB11D23E0B695A795AB
:1006C000979587952A95D1F72091BC0024FD03C00A
:1006D0001092E00108954091970150919801609126
:1006E000990170919A01452B462B472B69F300978E
:1006F000A105B10541F02AE22A95F1F700C0019762
:10070000A109B109E1CF809196010C94BD010F932D
:100710001F93CF938C01C62F0E9464026C2F6460DC
:10072000C8010E9464026C2F6B7FC8010E946402A2
:1007300083EC90E00197F1F7CF911F910F9108950D
:100740000F931F93CF93DF938C01D62FC42F607F1D
:10075000642B0E94870380E1D89FB00111246C2B89
:10076000C801DF91CF911F910F910C94870340E056
:1007700060E883E292E00C94A00341E00E94A003B1
:1007800081E090E008951F920F920FB60F9211240E
:100790002F933F938F939F93AF93BF9380910F02BB
:1007A00090911002A0911102B091120230910E02AC
:1007B00023E0230F2D3758F50196A11DB11D20937D
:1007C0000E0280930F0290931002A0931102B09337
:1007D00012028091130290911402A0911502B0911F
:1007E00016020196A11DB11D80931302909314026D
:1007F000A0931502B0931602BF91AF919F918F9174
:100800003F912F910F900FBE0F901F90189526E8E3
:10081000230F0296A11DB11DD2CF1F920F920FB6CA
:100820000F9211242F933F934F935F936F937F9376
:100830008F939F93AF93BF93EF93FF938091B900F2
:10084000887F803609F44AC0F0F5883209F4A7C0E1
:1008500018F5803109F49BC0B8F4882309F4F9C075
:10086000883009F494C0FF91EF91BF91AF919F91AF
:100870008F917F916F915F914F913F912F910F9049
:100880000FBE0F901F901895883109F488C08032F0
:1008900051F78093DF0114C0803409F49DC040F407
:1008A0008033B9F38833F9F68093DF0185ECB0C06B
:1008B000803509F485C0883509F496C0883499F6E6
:1008C0000E944F03D0CF883909F48CC038F588379F
:1008D00029F050F4883611F0803729F683E08093B0
:1008E000E0011092DE0157C0883809F47BC08039DE
:1008F00019F0803809F0B7CF8091DE01803208F01E
:1009000071C0E091DE0181E08E0F8093DE01809165
:10091000BB00F0E0E254FE4F80833DC0803B39F0E5
:10092000E0F4803A09F479C0883A09F09CCF84E079
:100930008093E0011092BD011092BC01E091080289
:10094000F091090209958091BC0181110FC081E0ED
:100950008093BC0110929C0109C0803C09F4A6CF91
:10096000883C09F4A3CF883B09F07DCFE091BD011D
:1009700081E08E0F8093BD01F0E0E456FE4F808150
:100980008093BB009091BD018091BC0129C08091F2
:1009900005028093BB0085EC8093BC0064CF9091EE
:1009A000040280910302981758F5E091040281E057
:1009B0008E0F80930402F0E0ED51FE4F8081E9CF6D
:1009C000E091040281E08E0F809304028091BB00CD
:1009D000F0E0ED51FE4F808390910402809103027C
:1009E0009817C8F285E8D8CFE091040281E08E0F15
:1009F000809304028091BB00F0E0ED51FE4F8083B4
:100A00008091E20181115CCF81E08093E10184EA71
:100A10008093BC001092E00126CF85EC8093BC004F
:100A20001092E0018091DE01803230F4E091DE012D
:100A3000F0E0E254FE4F10826091DE0170E0E09140
:100A40000602F09107028EEB91E009951092DE010B
:100A50000ACF1092DF0134CFE7E1F2E01382128275
:100A600088EE93E0A0E0B0E084839583A683B7830B
:100A700084E091E091838083E3E2F2E013821282CA
:100A800086E191E09183808387E2848380E180879F
:100A900082E08187128688E083870895789484B500
:100AA000826084BD84B5816084BD85B5826085BD6A
:100AB00085B5816085BD80916E00816080936E00F8
:100AC00010928100809181008260809381008091EA
:100AD000810081608093810080918000816080939B
:100AE00080008091B10084608093B1008091B0005B
:100AF00081608093B00080917A00846080937A0056
:100B000080917A00826080937A0080917A0081607F
:100B100080937A0080917A00806880937A001092A6
:100B2000C10010920D0210920C0210920B02109252
:100B30000A020E949F0189E491E090930902809348
:100B400008028AE491E090930702809306021092D3
:100B5000280280912C02823018F098E090932802AD
:100B600090912D02992339F0813029F48091280247
:100B700084608093280262E370E080E090E00E944D
:100B8000170160912E0283E292E00E94640268EEF7
:100B900073E080E090E00E94170160E383E292E05E
:100BA0000E948703CBE4D6E4CE010197F1F760E31E
:100BB00083E292E00E9487032197F1F760E383E2EA
:100BC00092E00E94870383E592E00197F1F760E2EB
:100BD00083E292E00E94870360912802606240E015
:100BE00083E292E00E94A00384E08093290240E027
:100BF0006CE083E292E00E94A00340E061E083E2C7
:100C000092E00E94A003CBE3DFE1CE010197F1F770
:100C100082E080932A0240E066E083E292E00E9454
:100C2000A00340E062E083E292E00E94A0032197EB
:100C3000F1F784E00E94870083E00E94870088E04B
:100C40000E94870087E00E94870085E00E9487005D
:100C500086E00E948700CBE3DFE100E010E061E086
:100C600084E00E94A60061E083E00E94A6000E944A
:100C7000B70343E150E06EE171E083E292E00E944D
:100C80004B0161E088E00E94A60060E087E00E94DE
:100C9000A60061E085E00E94A60060E086E00E9478
:100CA000A60068E873E180E090E00E9417010E94CE
:100CB000B70344E150E062E371E083E292E00E9416
:100CC0004B0160E088E00E94A60061E087E00E949E
:100CD000A60060E085E00E94A60061E086E00E9438
:100CE000A60068E873E180E090E00E9417010E948E
:100CF000B70340E061E083E292E00E94A003CE01EE
:100D00000197F1F74CE050E067E471E083E292E094
:100D10000E944B0160E088E00E94A60060E087E04E
:100D20000E94A60060E085E00E94A60060E086E0E8
:100D30000E94A60060ED77E080E090E00E9417013D
:100D40000115110509F48BCF0E94000088CFEE0F2A
:100D5000FF1F0590F491E02D0994F894FFCF000057
:100D60000000350208024C03DE010102EE01DF0142
:100D700000000000BD034B014C034B03526F626F38
:100D80007420476F696E6720466F727761726400E6
:100D9000526F626F7420476F696E67204261636BA8
:100DA0007761726400526F626F742053746F706564
:020DB0006400DD
:107E0000112484B714BE81FFF0D085E080938100F7
:107E100082E08093C00088E18093C10086E0809377
:107E2000C20080E18093C4008EE0C9D0259A86E02C
:107E300020E33CEF91E0309385002093840096BBD3
:107E4000B09BFECF1D9AA8958150A9F7CC24DD24C4
:107E500088248394B5E0AB2EA1E19A2EF3E0BF2EE7
:107E6000A2D0813461F49FD0082FAFD0023811F036
:107E7000013811F484E001C083E08DD089C08234E0
:107E800011F484E103C0853419F485E0A6D080C0E4
:107E9000853579F488D0E82EFF2485D0082F10E0AE
:107EA000102F00270E291F29000F111F8ED06801E7
:107EB0006FC0863521F484E090D080E0DECF843638
:107EC00009F040C070D06FD0082F6DD080E0C81688
:107ED00080E7D80618F4F601B7BEE895C0E0D1E017
:107EE00062D089930C17E1F7F0E0CF16F0E7DF06D8
:107EF00018F0F601B7BEE89568D007B600FCFDCFD4
:107F0000A601A0E0B1E02C9130E011968C91119780
:107F100090E0982F8827822B932B1296FA010C0160
:107F200087BEE89511244E5F5F4FF1E0A038BF0790
:107F300051F7F601A7BEE89507B600FCFDCF97BE46
:107F4000E89526C08437B1F42ED02DD0F82E2BD052
:107F50003CD0F601EF2C8F010F5F1F4F84911BD097
:107F6000EA94F801C1F70894C11CD11CFA94CF0C13
:107F7000D11C0EC0853739F428D08EE10CD085E9AC
:107F80000AD08FE07ACF813511F488E018D01DD067
:107F900080E101D065CF982F8091C00085FFFCCF94
:107FA0009093C60008958091C00087FFFCCF809118
:107FB000C00084FD01C0A8958091C6000895E0E648
:107FC000F0E098E1908380830895EDDF803219F02E
:107FD00088E0F5DFFFCF84E1DECF1F93182FE3DFCA
:107FE0001150E9F7F2DF1F91089580E0E8DFEE27F6
:047FF000FF270994CA
:027FFE00040479
:00000001FF
