:100000000C945E000C9486000C9486000C94860080
:100010000C9486000C9486000C9486000C94860048
:100020000C9486000C9486000C9486000C94860038
:100030000C9486000C9486000C9486000C94860028
:100040000C94A5050C9486000C9415060C94EF05F1
:100050000C9486000C9486000C9486000C94860008
:100060000C9447060C948600000000080002010072
:100070000003040700000000000000000000000072
:10008000250028002B0000000000240027002A0083
:10009000040404040404040402020202020203032E
:1000A0000303030301020408102040800102040836
:1000B00010200102040810206607CC0911241FBE7D
:1000C000CFEFD8E0DEBFCDBF23E0A0EDB1E001C0AF
:1000D0001D92A335B207E1F711E0A0E0B1E0E8E13D
:1000E000F8E102C005900D92A03DB107D9F710E0EC
:1000F000CDE5D0E004C02197FE010E94070ACC356F
:10010000D107C9F70E94B5070C94FF0B0C940000AF
:1001100090E0FC01EC55FF4F249180579F4FFC016C
:100120008491882399F090E0880F991FFC01EA5789
:10013000FF4FA591B491FC01E458FF4F8591949134
:100140008FB7F894EC91E22BEC938FBF089590E079
:10015000FC01E859FF4F2491FC01EC55FF4F34910D
:10016000FC01E057FF4FE491EE23C9F0222339F060
:10017000233001F1A8F4213019F1223029F1F0E007
:10018000EE0FFF1FE458FF4FA591B4918FB7F8947D
:10019000EC91611126C030953E233C938FBF0895AA
:1001A0002730A9F02830C9F0243049F78091800029
:1001B0008F7D03C0809180008F7780938000DFCF98
:1001C00084B58F7784BDDBCF84B58F7DFBCF8091E5
:1001D000B0008F778093B000D2CF8091B0008F7D38
:1001E000F9CF3E2BDACF3FB7F894809190029091EF
:1001F0009102A0919202B091930226B5A89B05C0EE
:100200002F3F19F00196A11DB11D3FBFBA2FA92F95
:10021000982F8827BC01CD01620F711D811D911D92
:1002200042E0660F771F881F991F4A95D1F70895FE
:100230008F929F92AF92BF92CF92DF92EF92FF92F6
:100240004B015C010E94F3006B017C010E94F300F2
:100250006C197D098E099F09683E734081059105DF
:10026000A8F321E0821A9108A108B10888EEC80E0F
:1002700083E0D81EE11CF11C81149104A104B10497
:1002800029F7FF90EF90DF90CF90BF90AF909F90B5
:100290008F90089508950895AF92BF92CF92DF9204
:1002A000EF92FF920F931F93CF93DF936C017B012B
:1002B0008B01040F151FEB015E01AE18BF08C017BC
:1002C000D10759F06991D601ED91FC910190F0812F
:1002D000E02DC6010995892B79F7C501DF91CF91F2
:1002E0001F910F91FF90EF90DF90CF90BF90AF9054
:1002F0000895FC01538D448D252F30E0842F90E02C
:10030000821B930B541710F0CF9608950197089510
:10031000FC01918D828D981761F0A28DAE0FBF2FD9
:10032000B11D5D968C91928D9F5F9F73928F90E02F
:1003300008958FEF9FEF0895FC01918D828D98179E
:1003400031F0828DE80FF11D858D90E008958FEFDB
:100350009FEF0895FC01918D228D892F90E0805CA4
:100360009F4F821B91098F739927089584E992E02A
:100370000E94AA0121E0892B09F420E0822F089530
:1003800080E090E0892B29F00E94B60181110C9445
:1003900000000895FC01A48DA80FB92FB11DA35A28
:1003A000BF4F2C91848D90E001968F739927848F95
:1003B000A689B7892C93A089B1898C9183708064B8
:1003C0008C93938D848D981306C00288F389E02D59
:1003D00080818F7D80830895EF92FF920F931F930A
:1003E000CF93DF93EC0181E0888F9B8D8C8D9813E8
:1003F0001AC0E889F989808185FF15C09FB7F894F4
:10040000EE89FF896083E889F9898081837080643F
:1004100080839FBF81E090E0DF91CF911F910F918A
:10042000FF90EF900895F62E0B8D10E00F5F1F4F99
:100430000F731127E02E8C8D8E110CC00FB607FCA8
:10044000FACFE889F989808185FFF5CFCE010E9436
:10045000CA01F1CFEB8DEC0FFD2FF11DE35AFF4FD9
:10046000F0829FB7F8940B8FEA89FB8980818062C4
:10047000CFCFCF93DF93EC01888D8823B9F0AA8981
:10048000BB89E889F9898C9185FD03C0808186FD4F
:100490000DC00FB607FCF7CF8C9185FFF2CF80819E
:1004A00085FFEDCFCE010E94CA01E9CFDF91CF9148
:1004B000089520913802260F3327331F213231054A
:1004C000ECF420915C02FC0190E080E0243069F0C3
:1004D00082E00895A09138022191AC01485E5D4F01
:1004E000A40FB52FB11D2C930196861798F3809118
:1004F0003802680F6093380280E0089581E0089523
:1005000010925C0281E080935E0210925D0261E0D5
:1005100082E10E94A70061E083E10E94A700E9EB6D
:10052000F0E080818E7F808380818D7F808388E46E
:100530008093B80085E48093BC000895CF93DF9347
:1005400091E0909317028823B9F0C091B800D09140
:10055000BA008091BC008A7B8093BC0060E082E19D
:100560000E94A70060E083E10E94A7000E94800231
:10057000D093BA00C093B800DF91CF910895089549
:10058000E091890280918802E81730F4F0E0EE50A3
:10059000FE4F808190E008958FEF9FEF0895909136
:1005A0008902809188022FEF3FEF981748F4E92FD6
:1005B000F0E0EE50FE4F208130E09F5F9093890283
:1005C000C90108958091880290918902891B990B35
:1005D0000895CF92DF92EF92FF920F931F93CF93E4
:1005E000DF937C01CB018A012091F101222389F064
:1005F000EB016B01C40ED51ECC15DD0569F06991C8
:10060000D701ED91FC910190F081E02DC701099592
:10061000F3CF642F0E945902C801DF91CF911F913F
:100620000F91FF90EF90DF90CF900895CF93DF93DD
:100630001F92CDB7DEB769832091F1012223F9F033
:1006400020918602203258F021E030E0FC01338313
:10065000228390E080E00F90DF91CF910895809108
:100660008702E82FF0E0EF52FE4F998190838F5F71
:10067000809387028093860281E090E0ECCF61E076
:10068000CE0101960E945902F7CFCF92DF92EF92EE
:10069000FF920F931F93CF93DF93FC01C48121E05E
:1006A0002093F101C093D00110928702109286022C
:1006B0008385682B81E393E00E941603D091860224
:1006C000D13208F092C00E94F3006B017C0180914E
:1006D0005C02811165C082E080935C0281E08093BE
:1006E0005E028FEF80935B0210928002D0937F02B4
:1006F000A1EDB1E0EFE5F2E080E0D81385C0109203
:10070000810280918102CC0FC82BC093810280911D
:100710005D02813009F07CC010925D020E94F300FE
:100720006B017C01809181028093BB008091130258
:1007300090911402A0911502B0911602892B8A2B78
:100740008B2B99F00E94F300009113021091140278
:1007500020911502309116026C197D098E099F09AE
:100760000617170728073907E0F18091BC0083FDC1
:10077000D9CF85EC8093BC000E94F3006B017C0113
:1007800080915C02823009F445C080915B028F3F0A
:1007900061F180915B02803241F180915B0225C062
:1007A0008091130290911402A0911502B09116024B
:1007B000892B8A2B8B2B09F48ACF0E94F30000919E
:1007C00013021091140220911502309116026C1937
:1007D0007D098E099F09061717072807390708F0B2
:1007E00076CF809112020E949E0210928702109290
:1007F00086021092F101DF91CF911F910F91FF902E
:10080000EF90DF90CF9008959D9191938F5F75CF7A
:1008100085EEB0CF8091130290911402A091150241
:10082000B0911602892B8A2B8B2B09F4A9CF0E9439
:10083000F3000091130210911402209115023091DF
:1008400016026C197D098E099F09061717072807DC
:10085000390708F095CFC5CF089590E080E008955E
:10086000E82FF0E0E859FF4FE491E33031F138F43C
:10087000E130B9F0E230D9F060E00C94A700E73045
:1008800041F1E83079F1E430B9F78091800080627D
:100890008093800082E390E090938B0080938A00A5
:1008A000089584B5806884BD82E387BD089584B5CA
:1008B000806284BD82E388BD089580918000806855
:1008C0008093800082E390E0909389008093880079
:1008D00008958091B00080688093B00082E3809397
:1008E000B30008958091B00080628093B00082E3ED
:1008F0008093B40008950F931F93CF938C01C62F5C
:100900000E9445036C2F6460C8010E9445036C2F50
:100910006B7FC8010E94450383EC90E00197F1F7DB
:10092000CF911F910F9108950F931F93CF93DF9352
:100930008C01D62FC42F607F642B0E947B0480E142
:10094000D89FB00111246C2BC801DF91CF911F916A
:100950000F910C947B04CF93DF93CDB7DEB728972C
:100960000FB6F894DEBF0FBECDBF98E0E6E0F1E031
:10097000DE01119601900D929A95E1F790914C034A
:10098000981710F48FEF890F90E0880F991F21E0DE
:1009900030E02C0F3D1F820F931FFC0160816068C7
:1009A00040E083E493E028960FB6F894DEBF0FBED4
:1009B000CDBFDF91CF910C94940441E00E94940448
:1009C00081E090E00895FC0101900020E9F7319763
:1009D000AF01481B590BBC0183E493E00C944C011C
:1009E000CF93DF93EC0180E00E94AB048EE391E0B3
:1009F0000E94E30481E00E94AB0482E591E00E9442
:100A0000E30482E00E94AB0486E691E00E94E304E6
:100A100083E00E94AB044C815D816881798183E42D
:100A200093E0DF91CF910C944C01FC018081918186
:100A3000009711F00C94A90A0895EF92FF920F937A
:100A40001F93CF93DF93EC017B018A018881998109
:100A5000009729F02A813B812417350788F4B801D3
:100A60006F5F7F4F0E94320B009791F099838883CC
:100A70001B830A832C813D81232B11F4FC011082FE
:100A80001D830C83B701888199810E94F80B0CC0EB
:100A900088819981009711F00E94A90A1982188211
:100AA0001D821C821B821A82CE01DF91CF911F9181
:100AB0000F91FF90EF900895FC0111821082138234
:100AC000128215821482FB0101900020E9F7319710
:100AD000AF01461B570B0C941D0585ED8093BC00A0
:100AE0008091130290911402A0911502B091160208
:100AF0000796A11DB11D23E0B695A79597958795FB
:100B00002A95D1F72091BC0024FD03C010925C020D
:100B10000895409113025091140260911502709152
:100B20001602452B462B472B69F30097A105B1050B
:100B300041F02AE22A95F1F700C00197A109B10915
:100B4000E1CF809112020C949E021F920F920FB679
:100B50000F9211242F933F938F939F93AF93BF9343
:100B600080918C0290918D02A0918E02B0918F02A3
:100B700030918B0223E0230F2D3758F50196A11DEC
:100B8000B11D20938B0280938C0290938D02A093D1
:100B90008E02B0938F028091900290919102A09169
:100BA0009202B09193020196A11DB11D8093900213
:100BB00090939102A0939202B0939302BF91AF9150
:100BC0009F918F913F912F910F900FBE0F901F908B
:100BD000189526E8230F0296A11DB11DD2CF1F92B2
:100BE0000F920FB60F9211242F933F934F935F9361
:100BF0006F937F938F939F93AF93BF93EF93FF93E5
:100C000084E992E00E94CA01FF91EF91BF91AF91F8
:100C10009F918F917F916F915F914F913F912F9114
:100C20000F900FBE0F901F9018951F920F920FB646
:100C30000F9211242F938F939F93EF93FF93E09143
:100C4000A402F091A5028081E091AA02F091AB028A
:100C500082FD1BC090818091AD028F5F8F732091C8
:100C6000AE02821741F0E091AD02F0E0EC56FD4F8C
:100C7000958F8093AD02FF91EF919F918F912F916E
:100C80000F900FBE0F901F9018958081F4CF1F9288
:100C90000F920FB60F9211242F933F934F935F93B0
:100CA0006F937F938F939F93AF93BF93EF93FF9334
:100CB0008091B900887F803609F44AC0F0F5883207
:100CC00009F4A7C018F5803109F49BC0B8F4882353
:100CD00009F4F9C0883009F494C0FF91EF91BF91F5
:100CE000AF919F918F917F916F915F914F913F91C4
:100CF0002F910F900FBE0F901F901895883109F417
:100D000088C0803251F780935B0214C0803409F4AC
:100D10009DC040F48033B9F38833F9F680935B02C9
:100D200085ECB0C0803509F485C0883509F496C0DB
:100D3000883499F60E946D05D0CF883909F48CC0AB
:100D400038F5883729F050F4883611F0803729F6C5
:100D500083E080935C0210925A0257C0883809F4ED
:100D60007BC0803919F0803809F0B7CF80915A02E2
:100D7000803208F071C0E0915A0281E08E0F8093BA
:100D80005A028091BB00F0E0E65CFD4F80833DC0DD
:100D9000803B39F0E0F4803A09F479C0883A09F0F0
:100DA0009CCF84E080935C0210923902109238024A
:100DB000E0918402F09185020995809138028111B9
:100DC0000FC081E0809338021092180209C0803C65
:100DD00009F4A6CF883C09F4A3CF883B09F07DCF66
:100DE000E091390281E08E0F80933902F0E0E85EF5
:100DF000FD4F80818093BB00909139028091380231
:100E000029C0809181028093BB0085EC8093BC0057
:100E100064CF9091800280917F02981758F5E091FD
:100E2000800281E08E0F80938002F0E0E15AFD4F56
:100E30008081E9CFE091800281E08E0F8093800273
:100E40008091BB00F0E0E15AFD4F808390918002D9
:100E500080917F029817C8F285E8D8CFE091800290
:100E600081E08E0F809380028091BB00F0E0E15A18
:100E7000FD4F808380915E0281115CCF81E0809381
:100E80005D0284EA8093BC0010925C0226CF85EC60
:100E90008093BC0010925C0280915A02803230F440
:100EA000E0915A02F0E0E65CFD4F108260915A0238
:100EB00070E0E0918202F09183028AE392E009956A
:100EC00010925A020ACF10925B0234CFE4E9F2E0AA
:100ED0001382128288EE93E0A0E0B0E084839583D1
:100EE000A683B78322E131E03183208325EC30E013
:100EF0003587248724EC30E03787268720EC30E0E4
:100F0000318B208B21EC30E0338B228B22EC30E0D4
:100F1000358B248B26EC30E0378B268B118E128E8E
:100F2000138E148EE1E3F3E013821282848395839F
:100F3000A683B78384E291E091838083E3E4F3E0C6
:100F40001382128286E391E09183808387E2848317
:100F500084E1808784E08187128688E083876CE75C
:100F600071E08DE393E00C945C05CF93DF9300D0A8
:100F700000D000D0CDB7DEB7789484B5826084BD50
:100F800084B5816084BD85B5826085BD85B581608D
:100F900085BD80916E00816080936E00109281000B
:100FA00080918100826080938100809181008160C6
:100FB0008093810080918000816080938000809187
:100FC000B10084608093B1008091B0008160809313
:100FD000B00080917A00846080937A0080917A00DA
:100FE000826080937A0080917A00816080937A0099
:100FF00080917A00806880937A001092C100E0911D
:10100000A402F091A50282E08083E091A002F09119
:10101000A1021082E091A202F091A3028FEC8083E2
:101020001092AC02E091A802F091A90286E08083C0
:10103000E091A602F091A702808180618083E09117
:10104000A602F091A702808188608083E091A602C9
:10105000F091A702808180688083E091A602F091E0
:10106000A70280818F7D808310928902109288026E
:1010700010928702109286020E9480028AE491E018
:1010800090938502809384028BE491E09093830295
:10109000809382021092480380914C03823018F0B2
:1010A00098E09093480390914D03992339F0813053
:1010B00029F48091480384608093480362E370E0E0
:1010C00080E090E00E94180160914E0383E493E079
:1010D0000E94450368EE73E080E090E00E941801F2
:1010E00060E383E493E00E947B040BE416E4C80110
:1010F0000197F1F760E383E493E00E947B04C80169
:101100000197F1F760E383E493E00E947B0483E5B9
:1011100092E00197F1F760E283E493E00E947B04A0
:1011200060914803606240E083E493E00E9494048D
:1011300084E08093490340E06CE083E493E00E9404
:10114000940440E061E083E493E00E9494040BE3A4
:101150001FE1C8010197F1F782E080934A0340E064
:1011600066E083E493E00E94940440E062E083E45C
:1011700093E00E949404C8010197F1F78AE00E946D
:10118000880089E00E94880084E00E94880085E051
:101190000E94880086E00E94880087E00E94880004
:1011A00000E010E08AE00E9488008AE00E9430049B
:1011B00089E00E94880089E00E94300484E992E07E
:1011C0000E94AA01892B09F4C9C084E992E00E9417
:1011D000880180938A02682F84E992E00E94EC01E2
:1011E00042E050E06AE771E084E992E00E944C013D
:1011F00080918A028335F1F460E084E00E94A700C8
:1012000060E085E00E94A70060E086E00E94A70001
:1012100060E087E00E94A7006DE771E0CE010196D3
:101220000E945C05CE0101960E94F004CE01019659
:101230000E94150580918A028634F1F461E084E011
:101240000E94A70060E085E00E94A70061E086E0C0
:101250000E94A70060E087E00E94A70062E971E0B9
:10126000CE0101960E945C05CE0101960E94F00419
:10127000CE0101960E94150580918A028234F1F414
:1012800060E084E00E94A70061E085E00E94A70082
:1012900060E086E00E94A70061E087E00E94A7006E
:1012A0006DE971E0CE0101960E945C05CE010196C8
:1012B0000E94F004CE0101960E94150580918A02D9
:1012C0008C34F1F461E084E00E94A70060E085E0E6
:1012D0000E94A70060E086E00E94A70061E087E02E
:1012E0000E94A70069EA71E0CE0101960E945C05A8
:1012F000CE0101960E94F004CE0101960E941505D0
:1013000080918A028235F1F460E084E00E94A700B7
:1013100061E085E00E94A70061E086E00E94A700EE
:1013200060E087E00E94A70061EB71E0CE010196CA
:101330000E945C05CE0101960E94F004CE01019648
:101340000E9415050115110509F42CCF0E94B60164
:10135000882309F427CF0E94000024CF44E150E005
:101360006AEB71E08DE393E00E941D051A821982F9
:101370001C821B821E821D8260913D0370913E0380
:1013800061157105B9F24091410350914203CE01BC
:1013900001960E941D05CECF8DE393E00C941505B8
:1013A0002F923F924F925F926F927F928F929F9275
:1013B000AF92BF92CF92DF92EF92FF920F931F9363
:1013C000CF93DF93CDB7DEB7CA1BDB0B0FB6F89414
:1013D000DEBF0FBECDBF09942A88398848885F8454
:1013E0006E847D848C849B84AA84B984C884DF80C5
:1013F000EE80FD800C811B81AA81B981CE0FD11DA9
:101400000FB6F894DEBF0FBECDBFED010895EE0F0D
:10141000FF1F0590F491E02D09940F931F93CF9334
:10142000DF938230910510F482E090E0E091510367
:10143000F091520330E020E0B0E0A0E0309799F462
:101440002115310509F44AC0281B390B2430310518
:10145000D8F58A819B816115710589F1FB01938320
:101460008283FE0111C0408151810281138148179E
:101470005907E0F04817590799F4109761F0129650
:101480000C93129713961C933296CF01DF91CF9154
:101490001F910F9108950093510310935203F4CFBD
:1014A0002115310551F04217530738F0A901DB012E
:1014B0009A01BD01DF01F801C1CFEF01F9CF90938F
:1014C000520380935103CDCFFE01E20FF31F8193AE
:1014D00091932250310939832883D7CF20914F032C
:1014E00030915003232B41F42091020130910301EC
:1014F0003093500320934F0320910001309101015C
:101500002115310541F42DB73EB7409104015091AA
:101510000501241B350BE0914F03F0915003E217B6
:10152000F307A0F42E1B3F0B2817390778F0AC0106
:101530004E5F5F4F2417350748F04E0F5F1F5093E3
:10154000500340934F03819391939FCFF0E0E0E0ED
:101550009CCFCF93DF930097E9F0FC013297138281
:101560001282A0915103B0915203ED0130E020E0CE
:101570001097A1F420813181820F931F20914F0396
:10158000309150032817390709F061C0F0935003D8
:10159000E0934F03DF91CF910895EA01CE17DF0763
:1015A000E8F54A815B819E0141155105B1F7E901DA
:1015B000FB83EA8349915991C40FD51FEC17FD07AE
:1015C00061F4808191810296840F951FE9019983CE
:1015D0008883828193819B838A83F0E0E0E0129686
:1015E0008D919C9113970097B9F52D913C9111978E
:1015F000CD010296820F931F20914F03309150032B
:101600002817390739F6309751F510925203109286
:101610005103B0935003A0934F03BCCFD383C28335
:1016200040815181840F951FC817D90761F44E5F1F
:101630005F4F88819981480F591F518340838A8168
:101640009B81938382832115310509F0B0CFF093FC
:101650005203E09351039ECFFD01DC01C0CF138202
:101660001282D7CFB0E0A0E0E8E3FBE00C94D2090F
:101670008C01009751F4CB010E940D0A8C01C80126
:10168000CDB7DEB7E0E10C94EE09FC01E60FF71FE1
:101690009C0122503109E217F30708F49DC0D901DB
:1016A000CD91DC911197C617D70798F0C530D105B9
:1016B00030F3CE0104978617970708F3C61BD70BA4
:1016C0002297C193D1936D937C93CF010E94A90A75
:1016D000D6CF5B01AC1ABD0A4C018C0E9D1EA091A9
:1016E0005103B0915203512C412CF12CE12C109755
:1016F00031F580914F03909150038815990509F0B9
:101700005CC04616570608F058C0809100019091C1
:101710000101009741F48DB79EB7409104015091AB
:101720000501841B950BE817F90708F055C0F093E5
:101730005003E0934F03F90171836083A0CF8D9133
:101740009C91119712966C90129713967C90139718
:10175000A815B90559F56C0142E0C40ED11CCA1494
:10176000DB0420F1AC014A195B09DA0112961597E6
:1017700080F06282738251834083D9016D937C93A0
:10178000E114F10471F0D7011396FC93EE931297D4
:1017900076CF22968C0F9D1FF90191838083F301F0
:1017A000EFCFF0935203E093510369CF48165906E7
:1017B00008F42C017D01D3019ACFCB010E940D0AC0
:1017C0007C01009749F0AE01B8010E94EF0BC801FF
:1017D0000E94A90A870153CF10E000E050CFFB011F
:1017E000DC0102C001900D9241505040D8F708959D
:1017F000FB01DC0101900D920020E1F7089510E05B
:10180000CDE5D0E004C0FE010E94070A2196CE3546
:08181000D107C9F7F894FFCFDE
:101818000000530380000000400014005400000042
:101828000000EC014C0179013902AA0188019C01F0
:10183800000000001603E9022D04BF02E202CF02F5
:10184800C00200000000DD044C012D042C045245A8
:101858005055424C4943204F46204C4547454E443D
:101868005300202020524F424F54204341522076AB
:10187800312E302020002020203C42455441205069
:101888005245564945573E2020000D0A002A434F2D
:101898004E4E454354454420544F2050484F4E45E2
:1018A8002A00474F20464F525741524400474F2085
:1018B8004241434B5741524400474F204C45465400
:1018C80000474F205249474854003C3C4D45204E64
:1018D8004F5420434F4E4E45435445443E3E00002E
:00000001FF
