:020000040000FA
:100000000C945E000C9486000C9486000C94860080
:100010000C9486000C9486000C9486000C94860048
:100020000C9486000C9486000C9486000C94860038
:100030000C9486000C9486000C9486000C94860028
:100040000C9490050C9486000C9400060C94DA0530
:100050000C9486000C9486000C9486000C94860008
:100060000C9432060C948600000000080002010087
:100070000003040700000000000000000000000072
:10008000250028002B0000000000240027002A0083
:10009000040404040404040402020202020203032E
:1000A0000303030301020408102040800102040836
:1000B00010200102040810205107E90911241FBE75
:1000C000CFEFD8E0DEBFCDBF23E0A6EDB1E001C0A9
:1000D0001D92A935B207E1F711E0A0E0B1E0E2E539
:1000E000F8E102C005900D92A63DB107D9F710E0E6
:1000F000CDE5D0E004C02197FE010E94240ACC3552
:10010000D107C9F70E94A0070C941C0C0C940000A6
:1001100090E0FC01EC55FF4F249180579F4FFC016C
:100120008491882399F090E0880F991FFC01EA5789
:10013000FF4FA591B491FC01E458FF4F8591949134
:100140008FB7F894EC91E22BEC938FBF089590E079
:10015000FC01E859FF4F2491FC01EC55FF4F34910D
:10016000FC01E057FF4FE491EE23C9F0222339F060
:10017000233001F1A8F4213019F1223029F1F0E007
:10018000EE0FFF1FE458FF4FA591B4918FB7F8947D
:10019000EC91611126C030953E233C938FBF0895AA
:1001A0002730A9F02830C9F0243049F78091800029
:1001B0008F7D03C0809180008F7780938000DFCF98
:1001C00084B58F7784BDDBCF84B58F7DFBCF8091E5
:1001D000B0008F778093B000D2CF8091B0008F7D38
:1001E000F9CF3E2BDACF3FB7F894809196029091E9
:1001F0009702A0919802B091990226B5A89B05C0DC
:100200002F3F19F00196A11DB11D3FBFBA2FA92F95
:10021000982F8827BC01CD01620F711D811D911D92
:1002200042E0660F771F881F991F4A95D1F70895FE
:100230008F929F92AF92BF92CF92DF92EF92FF92F6
:100240004B015C010E94F3006B017C010E94F300F2
:100250006C197D098E099F09683E734081059105DF
:10026000A8F321E0821A9108A108B10888EEC80E0F
:1002700083E0D81EE11CF11C81149104A104B10497
:1002800029F7FF90EF90DF90CF90BF90AF909F90B5
:100290008F90089508950895AF92BF92CF92DF9204
:1002A000EF92FF920F931F93CF93DF936C017B012B
:1002B0008B01040F151FEB015E01AE18BF08C017BC
:1002C000D10759F06991D601ED91FC910190F0812F
:1002D000E02DC6010995892B79F7C501DF91CF91F2
:1002E0001F910F91FF90EF90DF90CF90BF90AF9054
:1002F0000895FC01538D448D252F30E0842F90E02C
:10030000821B930B541710F0CF9608950197089510
:10031000FC01918D828D981761F0A28DAE0FBF2FD9
:10032000B11D5D968C91928D9F5F9F73928F90E02F
:1003300008958FEF9FEF0895FC01918D828D98179E
:1003400031F0828DE80FF11D858D90E008958FEFDB
:100350009FEF0895FC01918D228D892F90E0805CA4
:100360009F4F821B91098F73992708958AE992E024
:100370000E94AA0121E0892B09F420E0822F089530
:1003800080E090E0892B29F00E94B60181110C9445
:1003900000000895FC01A48DA80FB92FB11DA35A28
:1003A000BF4F2C91848D90E001968F739927848F95
:1003B000A689B7892C93A089B1898C9183708064B8
:1003C0008C93938D848D981306C00288F389E02D59
:1003D00080818F7D80830895EF92FF920F931F930A
:1003E000CF93DF93EC0181E0888F9B8D8C8D9813E8
:1003F0001AC0E889F989808185FF15C09FB7F894F4
:10040000EE89FF896083E889F9898081837080643F
:1004100080839FBF81E090E0DF91CF911F910F918A
:10042000FF90EF900895F62E0B8D10E00F5F1F4F99
:100430000F731127E02E8C8D8E110CC00FB607FCA8
:10044000FACFE889F989808185FFF5CFCE010E9436
:10045000CA01F1CFEB8DEC0FFD2FF11DE35AFF4FD9
:10046000F0829FB7F8940B8FEA89FB8980818062C4
:10047000CFCFCF93DF93EC01888D8823B9F0AA8981
:10048000BB89E889F9898C9185FD03C0808186FD4F
:100490000DC00FB607FCF7CF8C9185FFF2CF80819E
:1004A00085FFEDCFCE010E94CA01E9CFDF91CF9148
:1004B000089520913E02260F3327331F2132310544
:1004C000ECF420916202FC0190E080E0243069F0BD
:1004D00082E00895A0913E022191AC01425E5D4F01
:1004E000A40FB52FB11D2C930196861798F3809118
:1004F0003E02680F60933E0280E0089581E0089517
:100500001092620281E0809364021092630261E0C3
:1005100082E10E94A70061E083E10E94A700E9EB6D
:10052000F0E080818E7F808380818D7F808388E46E
:100530008093B80085E48093BC000895CF93DF9347
:1005400091E090931D028823B9F0C091B800D0913A
:10055000BA008091BC008A7B8093BC0060E082E19D
:100560000E94A70060E083E10E94A7000E94800231
:10057000D093BA00C093B800DF91CF910895089549
:10058000E0918F0280918E02E81730F4F0E0E8509D
:10059000FE4F808190E008958FEF9FEF0895909136
:1005A0008F0280918E022FEF3FEF981748F4E92FCA
:1005B000F0E0E850FE4F208130E09F5F90938F0283
:1005C000C901089580918E0290918F02891B990B29
:1005D0000895CF92DF92EF92FF920F931F93CF93E4
:1005E000DF937C01CB018A012091F701222389F05E
:1005F000EB016B01C40ED51ECC15DD0569F06991C8
:10060000D701ED91FC910190F081E02DC701099592
:10061000F3CF642F0E945902C801DF91CF911F913F
:100620000F91FF90EF90DF90CF900895CF93DF93DD
:100630001F92CDB7DEB769832091F7012223F9F02D
:1006400020918C02203258F021E030E0FC0133830D
:10065000228390E080E00F90DF91CF910895809108
:100660008D02E82FF0E0E952FE4F998190838F5F71
:1006700080938D0280938C0281E090E0ECCF61E06A
:10068000CE0101960E945902F7CFCF92DF92EF92EE
:10069000FF920F931F93CF93DF93FC01C48121E05E
:1006A0002093F701C093D60110928D0210928C0214
:1006B0008385682B87E393E00E941603D0918C0218
:1006C000D13208F092C00E94F3006B017C0180914E
:1006D0006202811165C082E08093620281E08093B2
:1006E00064028FEF8093610210928602D09385029C
:1006F000A7EDB1E0E5E6F2E080E0D81385C0109206
:10070000870280918702CC0FC82BC093870280910B
:100710006302813009F07CC0109263020E94F300F2
:100720006B017C01809187028093BB00809119024C
:1007300090911A02A0911B02B0911C02892B8A2B66
:100740008B2B99F00E94F3000091190210911A026C
:1007500020911B0230911C026C197D098E099F09A2
:100760000617170728073907E0F18091BC0083FDC1
:10077000D9CF85EC8093BC000E94F3006B017C0113
:1007800080916202823009F445C0809161028F3FFE
:1007900061F180916102803241F18091610225C056
:1007A0008091190290911A02A0911B02B0911C0233
:1007B000892B8A2B8B2B09F48ACF0E94F30000919E
:1007C000190210911A0220911B0230911C026C191F
:1007D0007D098E099F09061717072807390708F0B2
:1007E00076CF809118020E949E0210928D02109284
:1007F0008C021092F701DF91CF911F910F91FF9022
:10080000EF90DF90CF9008959D9191938F5F75CF7A
:1008100085EEB0CF8091190290911A02A0911B022F
:10082000B0911C02892B8A2B8B2B09F4A9CF0E9433
:10083000F3000091190210911A0220911B023091CD
:100840001C026C197D098E099F09061717072807D6
:10085000390708F095CFC5CF089590E080E008955E
:10086000E82FF0E0E859FF4FE491E33031F138F43C
:10087000E130B9F0E230D9F060E00C94A700E73045
:1008800041F1E83079F1E430B9F78091800080627D
:100890008093800082E390E090938B0080938A00A5
:1008A000089584B5806884BD82E387BD089584B5CA
:1008B000806284BD82E388BD089580918000806855
:1008C0008093800082E390E0909389008093880079
:1008D00008958091B00080688093B00082E3809397
:1008E000B30008958091B00080628093B00082E3ED
:1008F0008093B40008950F931F93CF938C01C62F5C
:100900000E9445036C2F6460C8010E9445036C2F50
:100910006B7FC8010E94450383EC90E00197F1F7DB
:10092000CF911F910F9108950F931F93CF93DF9352
:100930008C01D62FC42F607F642B0E947B0480E142
:10094000D89FB00111246C2BC801DF91CF911F916A
:100950000F910C947B04CF93DF93CDB7DEB728972C
:100960000FB6F894DEBF0FBECDBF98E0E6E0F1E031
:10097000DE01119601900D929A95E1F79091520344
:10098000981710F48FEF890F90E0880F991F21E0DE
:1009900030E02C0F3D1F820F931FFC0160816068C7
:1009A00040E089E493E028960FB6F894DEBF0FBECE
:1009B000CDBFDF91CF910C949404CF93DF93EC01E2
:1009C00083E00E94AB044C815D816881798189E478
:1009D00093E0DF91CF910C944C0141E00E9494048C
:1009E00081E090E00895FC0101900020E9F7319743
:1009F000AF01481B590BBC0189E493E00C944C01F6
:100A0000FC0180819181009711F00C94C60A089531
:100A1000EF92FF920F931F93CF93DF93EC017B0133
:100A20008A0188819981009729F02A813B812417C6
:100A3000350788F4B8016F5F7F4F0E944F0B009716
:100A400091F0998388831B830A832C813D81232B1A
:100A500011F4FC0110821D830C83B70188819981F8
:100A60000E94150C0CC088819981009711F00E949A
:100A7000C60A198218821D821C821B821A82CE012C
:100A8000DF91CF911F910F91FF90EF900895FC019E
:100A9000118210821382128215821482FB0101904E
:100AA0000020E9F73197AF01461B570B0C9408055E
:100AB00085ED8093BC008091190290911A02A0915B
:100AC0001B02B0911C020796A11DB11D23E0B69533
:100AD000A795979587952A95D1F72091BC0024FD7D
:100AE00003C01092620208954091190250911A02B7
:100AF00060911B0270911C02452B462B472B69F31A
:100B00000097A105B10541F02AE22A95F1F700C04E
:100B10000197A109B109E1CF809118020C949E02BE
:100B20001F920F920FB60F9211242F933F938F9322
:100B30009F93AF93BF938091920290919302A09163
:100B40009402B09195023091910223E0230F2D374A
:100B500058F50196A11DB11D209391028093920238
:100B600090939302A0939402B09395028091960281
:100B700090919702A0919802B09199020196A11DBF
:100B8000B11D8093960290939702A0939802B09320
:100B90009902BF91AF919F918F913F912F910F90AB
:100BA0000FBE0F901F90189526E8230F0296A11DE7
:100BB000B11DD2CF1F920F920FB60F9211242F9317
:100BC0003F934F935F936F937F938F939F93AF93D5
:100BD000BF93EF93FF938AE992E00E94CA01FF91CD
:100BE000EF91BF91AF919F918F917F916F915F91A5
:100BF0004F913F912F910F900FBE0F901F9018951E
:100C00001F920F920FB60F9211242F938F939F93E1
:100C1000EF93FF93E091AA02F091AB028081E09103
:100C2000B002F091B10282FD1BC090818091B302AD
:100C30008F5F8F732091B402821741F0E091B3026D
:100C4000F0E0E656FD4F958F8093B302FF91EF9150
:100C50009F918F912F910F900FBE0F901F9018951D
:100C60008081F4CF1F920F920FB60F9211242F9311
:100C70003F934F935F936F937F938F939F93AF9324
:100C8000BF93EF93FF938091B900887F803609F47A
:100C90004AC0F0F5883209F4A7C018F5803109F48C
:100CA0009BC0B8F4882309F4F9C0883009F494C0D3
:100CB000FF91EF91BF91AF919F918F917F916F9134
:100CC0005F914F913F912F910F900FBE0F901F900A
:100CD0001895883109F488C0803251F780936102F9
:100CE00014C0803409F49DC040F48033B9F38833D4
:100CF000F9F68093610285ECB0C0803509F485C0B7
:100D0000883509F496C0883499F60E945805D0CFEA
:100D1000883909F48CC038F5883729F050F48836C2
:100D200011F0803729F683E080936202109260020E
:100D300057C0883809F47BC0803919F0803809F031
:100D4000B7CF80916002803208F071C0E0916002FC
:100D500081E08E0F809360028091BB00F0E0E05C48
:100D6000FD4F80833DC0803B39F0E0F4803A09F4C8
:100D700079C0883A09F09CCF84E080936202109297
:100D80003F0210923E02E0918A02F0918B02099597
:100D900080913E0281110FC081E080933E0210924B
:100DA0001E0209C0803C09F4A6CF883C09F4A3CFF9
:100DB000883B09F07DCFE0913F0281E08E0F809368
:100DC0003F02F0E0E25EFD4F80818093BB00909196
:100DD0003F0280913E0229C0809187028093BB0030
:100DE00085EC8093BC0064CF90918602809185024F
:100DF000981758F5E091860281E08E0F8093860265
:100E0000F0E0EB59FD4F8081E9CFE091860281E06F
:100E10008E0F809386028091BB00F0E0EB59FD4F6E
:100E2000808390918602809185029817C8F285E8A8
:100E3000D8CFE091860281E08E0F80938602809168
:100E4000BB00F0E0EB59FD4F80838091640281117B
:100E50005CCF81E08093630284EA8093BC001092AF
:100E6000620226CF85EC8093BC00109262028091D2
:100E70006002803230F4E0916002F0E0E05CFD4F0F
:100E800010826091600270E0E0918802F091890226
:100E900080E492E00995109260020ACF10926102FC
:100EA00034CFEAE9F2E01382128288EE93E0A0E008
:100EB000B0E084839583A683B78322E131E0318358
:100EC000208325EC30E03587248724EC30E0378719
:100ED000268720EC30E0318B208B21EC30E0338B07
:100EE000228B22EC30E0358B248B26EC30E0378BE4
:100EF000268B118E128E138E148EE7E3F3E013828D
:100F0000128284839583A683B78384E291E09183E0
:100F10008083E9E4F3E01382128286E391E0918317
:100F2000808387E2848384E1808784E081871286DE
:100F300088E083876CE771E083E493E00C944705D5
:100F4000CF93DF9300D000D000D0CDB7DEB7789438
:100F500084B5826084BD84B5816084BD85B58260BE
:100F600085BD85B5816085BD80916E00816080936F
:100F70006E001092810080918100826080938100D8
:100F800080918100816080938100809180008160E8
:100F9000809380008091B10084608093B100809143
:100FA000B00081608093B00080917A00846080936B
:100FB0007A0080917A00826080937A0080917A0032
:100FC000816080937A0080917A00806880937A00B3
:100FD0001092C100E091AA02F091AB0282E08083FE
:100FE000E091A602F091A7021082E091A802F09190
:100FF000A9028FEC80831092B202E091AE02F091D0
:10100000AF0286E08083E091AC02F091AD02808176
:1010100080618083E091AC02F091AD0280818860B4
:101020008083E091AC02F091AD0280818068808382
:10103000E091AC02F091AD0280818F7D80831092AF
:101040008F0210928E0210928D0210928C020E94DA
:1010500080028AE491E090938B0280938A028BE471
:1010600091E0909389028093880210924E038091C0
:101070005203823018F098E090934E0390915303FE
:10108000992339F0813029F480914E038460809354
:101090004E0362E370E080E090E00E9418016091EE
:1010A000540389E493E00E94450368EE73E080E016
:1010B00090E00E94180160E389E493E00E947B04C1
:1010C0000BE416E4C8010197F1F760E389E493E0CB
:1010D0000E947B04C8010197F1F760E389E493E083
:1010E0000E947B0483E592E00197F1F760E289E4D6
:1010F00093E00E947B0460914E03606240E089E4CB
:1011000093E00E94940484E080934F0340E06CE0FD
:1011100089E493E00E94940440E061E089E493E074
:101120000E9494040BE31FE1C8010197F1F782E0EC
:101130008093500340E066E089E493E00E949404C9
:1011400040E062E089E493E00E949404C8010197C2
:10115000F1F78AE00E94880089E00E94880084E01C
:101160000E94880085E00E94880086E00E94880036
:1011700087E00E94880080E00E94AB048EE391E04B
:101180000E94F30481E00E94AB0482E591E00E949A
:10119000F30482E00E94AB0486E691E00E94F3042F
:1011A00000E010E08AE00E9488008AE00E9430049B
:1011B00089E00E94880089E00E9430048AE992E078
:1011C0000E94AA01892B09F4E0C08AE992E00E94FA
:1011D000880180939002682F8AE992E00E94EC01D6
:1011E00042E050E06AE771E08AE992E00E944C0137
:1011F000809190028335A9F560E084E00E94A70009
:1012000060E085E00E94A70060E086E00E94A70001
:1012100060E087E00E94A70044E150E06DE771E0E4
:1012200083E493E00E9408051A8219821C821B82C3
:101230001E821D8260914303709144036115710504
:1012400041F04091470350914803CE0101960E941E
:101250000805CE0101960E94DD04CE0101960E9490
:101260000005809190028634F1F461E084E00E94F0
:10127000A70060E085E00E94A70061E086E00E9490
:10128000A70060E087E00E94A70062E971E0CE015C
:1012900001960E944705CE0101960E94DD04CE0111
:1012A00001960E940005809190028234F1F460E082
:1012B00084E00E94A70061E085E00E94A70060E052
:1012C00086E00E94A70061E087E00E94A70063EA31
:1012D00071E0CE0101960E944705CE0101960E9461
:1012E000DD04CE0101960E940005809190028C34AD
:1012F000F1F461E084E00E94A70060E085E00E94D4
:10130000A70060E086E00E94A70061E087E00E94FD
:10131000A7006FEA71E0CE0101960E944705CE0159
:1013200001960E94DD04CE0101960E940005809185
:1013300090028235F1F460E084E00E94A70061E051
:1013400085E00E94A70061E086E00E94A70060E0BF
:1013500087E00E94A70067EB71E0CE0101960E9432
:101360004705CE0101960E94DD04CE0101960E9440
:1013700000050115110509F415CF0E94B601882357
:1013800009F410CF0E9400000DCF8AE992E00E947C
:10139000AA01892B71F744E150E060EC71E083E42D
:1013A00093E00E9408051A8219821C821B821E8209
:1013B0001D8260914303709144036115710589F2A8
:1013C0004091470350914803CE0101960E940805C1
:1013D000C8CF83E493E00C9400052F923F924F9284
:1013E0005F926F927F928F929F92AF92BF92CF92B5
:1013F000DF92EF92FF920F931F93CF93DF93CDB7BE
:10140000DEB7CA1BDB0B0FB6F894DEBF0FBECDBF35
:1014100009942A88398848885F846E847D848C8406
:101420009B84AA84B984C884DF80EE80FD800C810F
:101430001B81AA81B981CE0FD11D0FB6F894DEBFF2
:101440000FBECDBFED010895EE0FFF1F0590F49183
:10145000E02D09940F931F93CF93DF938230910572
:1014600010F482E090E0E0915703F091580330E0EF
:1014700020E0B0E0A0E0309799F42115310509F49F
:101480004AC0281B390B24303105D8F58A819B814D
:101490006115710589F1FB0193838283FE0111C0FF
:1014A000408151810281138148175907E0F04817A4
:1014B000590799F4109761F012960C9312971396AE
:1014C0001C933296CF01DF91CF911F910F91089518
:1014D0000093570310935803F4CF2115310551F0B1
:1014E0004217530738F0A901DB019A01BD01DF0162
:1014F000F801C1CFEF01F9CF9093580380935703C0
:10150000CDCFFE01E20FF31F819391932250310959
:1015100039832883D7CF2091550330915603232B4D
:1015200041F420910201309103013093560320933E
:10153000550320910001309101012115310541F43D
:101540002DB73EB74091040150910501241B350B86
:10155000E0915503F0915603E217F307A0F42E1B18
:101560003F0B2817390778F0AC014E5F5F4F241707
:10157000350748F04E0F5F1F5093560340935503B5
:10158000819391939FCFF0E0E0E09CCFCF93DF93E6
:101590000097E9F0FC01329713821282A091570361
:1015A000B0915803ED0130E020E01097A1F42081C4
:1015B0003181820F931F20915503309156032817D4
:1015C000390709F061C0F0935603E0935503DF91AA
:1015D000CF910895EA01CE17DF07E8F54A815B81D4
:1015E0009E0141155105B1F7E901FB83EA83499159
:1015F0005991C40FD51FEC17FD0761F480819181CB
:101600000296840F951FE9019983888382819381D3
:101610009B838A83F0E0E0E012968D919C91139772
:101620000097B9F52D913C911197CD010296820F4B
:10163000931F20915503309156032817390739F627
:10164000309751F51092580310925703B0935603F8
:10165000A0935503BCCFD383C28340815181840FB3
:10166000951FC817D90761F44E5F5F4F8881998134
:10167000480F591F518340838A819B8193838283C2
:101680002115310509F0B0CFF0935803E0935703CB
:101690009ECFFD01DC01C0CF13821282D7CFB0E014
:1016A000A0E0E5E5FBE00C94EF098C01009751F414
:1016B000CB010E942A0A8C01C801CDB7DEB7E0E158
:1016C0000C940B0AFC01E60FF71F9C012250310914
:1016D000E217F30708F49DC0D901CD91DC91119771
:1016E000C617D70798F0C530D10530F3CE0104975F
:1016F0008617970708F3C61BD70B2297C193D19380
:101700006D937C93CF010E94C60AD6CF5B01AC1AC1
:10171000BD0A4C018C0E9D1EA0915703B091580339
:10172000512C412CF12CE12C109731F5809155036F
:10173000909156038815990509F05CC04616570626
:1017400008F058C08091000190910101009741F488
:101750008DB79EB74091040150910501841B950BF4
:10176000E817F90708F055C0F0935603E0935503C6
:10177000F90171836083A0CF8D919C91119712968E
:101780006C90129713967C901397A815B90559F58C
:101790006C0142E0C40ED11CCA14DB0420F1AC0180
:1017A0004A195B09DA011296159780F062827382FA
:1017B00051834083D9016D937C93E114F10471F05E
:1017C000D7011396FC93EE93129776CF22968C0F47
:1017D0009D1FF90191838083F301EFCFF0935803AC
:1017E000E093570369CF4816590608F42C017D0190
:1017F000D3019ACFCB010E942A0A7C01009749F0BD
:10180000AE01B8010E940C0CC8010E94C60A8701F3
:1018100053CF10E000E050CFFB01DC0102C001908B
:101820000D9241505040D8F70895FB01DC01019022
:101830000D920020E1F7089510E0CDE5D0E004C05E
:10184000FE010E94240A2196CE35D107C9F7F894EB
:10185000FFCF000059038000000040001400540036
:1018600000000000EC014C0179013902AA01880155
:101870009C01000000001603E9022D04BF02E202F1
:10188000CF02C00200000000ED044C012D042C0426
:1018900052455055424C4943204F46204C45474500
:1018A0004E445300202020524F424F542043415277
:1018B0002076312E302020002020203C424554410B
:1018C00020505245564945573E2020000D0A002A17
:1018D000434F4E4E454354454420544F2050484FAB
:1018E0004E452A00474F20464F5257415244202030
:1018F0002020202000474F204241434B5741524473
:1019000000474F204C45465400474F205249474816
:1019100054003C3C4D45204E4F5420434F4E4E45C5
:08192000435445443E3E000023
:107E0000112484B714BE81FFF0D085E080938100F7
:107E100082E08093C00088E18093C10086E0809377
:107E2000C20080E18093C4008EE0C9D0259A86E02C
:107E300020E33CEF91E0309385002093840096BBD3
:107E4000B09BFECF1D9AA8958150A9F7CC24DD24C4
:107E500088248394B5E0AB2EA1E19A2EF3E0BF2EE7
:107E6000A2D0813461F49FD0082FAFD0023811F036
:107E7000013811F484E001C083E08DD089C08234E0
:107E800011F484E103C0853419F485E0A6D080C0E4
:107E9000853579F488D0E82EFF2485D0082F10E0AE
:107EA000102F00270E291F29000F111F8ED06801E7
:107EB0006FC0863521F484E090D080E0DECF843638
:107EC00009F040C070D06FD0082F6DD080E0C81688
:107ED00080E7D80618F4F601B7BEE895C0E0D1E017
:107EE00062D089930C17E1F7F0E0CF16F0E7DF06D8
:107EF00018F0F601B7BEE89568D007B600FCFDCFD4
:107F0000A601A0E0B1E02C9130E011968C91119780
:107F100090E0982F8827822B932B1296FA010C0160
:107F200087BEE89511244E5F5F4FF1E0A038BF0790
:107F300051F7F601A7BEE89507B600FCFDCF97BE46
:107F4000E89526C08437B1F42ED02DD0F82E2BD052
:107F50003CD0F601EF2C8F010F5F1F4F84911BD097
:107F6000EA94F801C1F70894C11CD11CFA94CF0C13
:107F7000D11C0EC0853739F428D08EE10CD085E9AC
:107F80000AD08FE07ACF813511F488E018D01DD067
:107F900080E101D065CF982F8091C00085FFFCCF94
:107FA0009093C60008958091C00087FFFCCF809118
:107FB000C00084FD01C0A8958091C6000895E0E648
:107FC000F0E098E1908380830895EDDF803219F02E
:107FD00088E0F5DFFFCF84E1DECF1F93182FE3DFCA
:107FE0001150E9F7F2DF1F91089580E0E8DFEE27F6
:047FF000FF270994CA
:027FFE00040479
:00000001FF
