:020000040000FA
:100000000C945D000C9485000C9485000C94850084
:100010000C9485000C9485000C9485000C9485004C
:100020000C9485000C9485000C9485000C9485003C
:100030000C9485000C9485000C9485000C9485002C
:100040000C94C3030C9485000C9485000C948500DB
:100050000C9485000C9485000C9485000C9485000C
:100060000C940D040C9485000000000800020100AF
:100070000003040700000000000000000000000072
:10008000250028002B0000000000240027002A0083
:10009000040404040404040402020202020203032E
:1000A0000303030301020408102040800102040836
:1000B00010200102040810202C0511241FBECFEFD0
:1000C000D8E0DEBFCDBF11E0A0E0B1E0E6E0FDE0AA
:1000D00002C005900D92A834B107D9F722E0A8E438
:1000E000B1E001C01D92A332B207E1F710E0CDE507
:1000F000D0E004C02197FE010E947B06CC35D107D9
:10010000C9F70E944E050C9481060C94000090E003
:10011000FC01EC55FF4F249180579F4FFC018491C7
:10012000882399F090E0880F991FFC01EA57FF4F50
:10013000A591B491FC01E458FF4F859194918FB73C
:10014000F894EC91E22BEC938FBF089508950895F5
:10015000AF92BF92CF92DF92EF92FF920F931F93D5
:10016000CF93DF936C017B018B01040F151FEB0113
:100170005E01AE18BF08C017D10759F06991D601CA
:10018000ED91FC910190F081E02DC6010995892B3C
:1001900079F7C501DF91CF911F910F91FF90EF90FB
:1001A000DF90CF90BF90AF90089590E0FC01E859A8
:1001B000FF4F2491FC01EC55FF4F3491FC01E057B7
:1001C000FF4FE491EE23C9F0222339F0233001F1EF
:1001D000A8F4213019F1223029F1F0E0EE0FFF1FD1
:1001E000E458FF4FA591B4918FB7F894EC91611149
:1001F00026C030953E233C938FBF08952730A9F049
:100200002830C9F0243049F7809180008F7D03C0E9
:10021000809180008F7780938000DFCF84B58F77C7
:1002200084BDDBCF84B58F7DFBCF8091B0008F770D
:100230008093B000D2CF8091B0008F7DF9CF3E2B5C
:10024000DACF3FB7F8948091FF0190910002A0911E
:100250000102B091020226B5A89B05C02F3F19F0FC
:100260000196A11DB11D3FBFBA2FA92F982F882736
:10027000BC01CD01620F711D811D911D42E0660F11
:10028000771F881F991F4A95D1F708958F929F92E3
:10029000AF92BF92CF92DF92EF92FF924B015C013F
:1002A0000E9421016B017C010E9421016C197D09D2
:1002B0008E099F09683E734081059105A8F321E0EE
:1002C000821A9108A108B10888EEC80E83E0D81EF2
:1002D000E11CF11C81149104A104B10429F7FF90E1
:1002E000EF90DF90CF90BF90AF909F908F90089548
:1002F0002091B001260F3327331F21323105ECF452
:100300002091D401FC0190E080E0243069F082E08B
:100310000895A091B0012191AC0140575E4FA40F08
:10032000B52FB11D2C930196861798F38091B001DB
:10033000680F6093B00180E0089581E00895109205
:10034000D40181E08093D6011092D50161E082E171
:100350000E94D50061E083E10E94D500E9EBF0E066
:1003600080818E7F808380818D7F808388E48093ED
:10037000B80085E48093BC000895CF93DF9391E0AB
:1003800090938F018823B9F0C091B800D091BA0042
:100390008091BC008A7B8093BC0060E082E10E9477
:1003A000D50060E083E10E94D5000E949F01D093B8
:1003B000BA00C093B800DF91CF9108950895E091FD
:1003C0000A0280910902E81730F4F0E0E659FE4F86
:1003D000808190E008958FEF9FEF089590910A0239
:1003E000809109022FEF3FEF981748F4E92FF0E0D2
:1003F000E659FE4F208130E09F5F90930A02C901C9
:1004000008958091090290910A02891B990B089521
:10041000CF92DF92EF92FF920F931F93CF93DF93D0
:100420007C01CB018A0120916901222389F0EB0133
:100430006B01C40ED51ECC15DD0569F06991D7019D
:10044000ED91FC910190F081E02DC7010995F3CF6A
:10045000642F0E947801C801DF91CF911F910F9105
:10046000FF90EF90DF90CF900895CF93DF931F928E
:10047000CDB7DEB76983209169012223F9F020917D
:100480000702203258F021E030E0FC013383228360
:1004900090E080E00F90DF91CF9108958091080265
:1004A000E82FF0E0E75BFE4F998190838F5F8093A8
:1004B00008028093070281E090E0ECCF61E0CE017A
:1004C00001960E947801F7CFCF92DF92EF92FF92D0
:1004D0000F931F93CF93DF93FC01C48121E02093FE
:1004E0006901C093480110920802109207028385A7
:1004F000682B8BE092E00E943502D0910702D13246
:1005000008F092C00E9421016B017C018091D4010E
:10051000811165C082E08093D40181E08093D6018F
:100520008FEF8093D3011092F801D093F701A9E4E3
:10053000B1E0E7EDF1E080E0D81385C01092F90159
:100540008091F901CC0FC82BC093F9018091D5019E
:10055000813009F07CC01092D5010E9421016B010D
:100560007C018091F9018093BB0080918B01909177
:100570008C01A0918D01B0918E01892B8A2B8B2B40
:1005800099F00E94210100918B0110918C01209122
:100590008D0130918E016C197D098E099F09061716
:1005A000170728073907E0F18091BC0083FDD9CFF8
:1005B00085EC8093BC000E9421016B017C0180913D
:1005C000D401823009F445C08091D3018F3F61F19D
:1005D0008091D301803241F18091D30125C0809177
:1005E0008B0190918C01A0918D01B0918E01892B8E
:1005F0008A2B8B2B09F48ACF0E94210100918B0159
:1006000010918C0120918D0130918E016C197D0922
:100610008E099F09061717072807390708F076CFB4
:1006200080918A010E94BD01109208021092070277
:1006300010926901DF91CF911F910F91FF90EF9080
:10064000DF90CF9008959D9191938F5F75CF85EE48
:10065000B0CF80918B0190918C01A0918D01B091D0
:100660008E01892B8A2B8B2B09F4A9CF0E942101A3
:1006700000918B0110918C0120918D0130918E01A0
:100680006C197D098E099F09061717072807390776
:1006900008F095CFC5CF089590E080E0089585EDEE
:1006A0008093BC0080918B0190918C01A0918D0171
:1006B000B0918E010796A11DB11D23E0B695A795B7
:1006C000979587952A95D1F72091BC0024FD03C00A
:1006D0001092D401089540918B0150918C0160914A
:1006E0008D0170918E01452B462B472B69F30097A6
:1006F000A105B10541F025E32A95F1F70000019726
:10070000A109B109E1CF80918A010C94BD010F9339
:100710001F93CF938C01C62F0E9464026C2F6460DC
:10072000C8010E9464026C2F6B7FC8010E946402A2
:1007300083EC90E00197F1F7CF911F910F9108950D
:100740000F931F93CF93DF938C01D62FC42F607F1D
:10075000642B0E94870380E1D89FB00111246C2B89
:10076000C801DF91CF911F910F910C94870340E056
:1007700060E887E192E00C94A00341E00E94A003AE
:1007800081E090E008951F920F920FB60F9211240E
:100790002F933F938F939F93AF93BF938091FB01D0
:1007A0009091FC01A091FD01B091FE013091FA0100
:1007B00023E0230F2D3758F50196A11DB11D20937D
:1007C000FA018093FB019093FC01A093FD01B0938B
:1007D000FE018091FF0190910002A0910102B09171
:1007E00002020196A11DB11D8093FF0190930002AA
:1007F000A0930102B0930202BF91AF919F918F919C
:100800003F912F910F900FBE0F901F90189526E8E3
:10081000230F0296A11DB11DD2CF1F920F920FB6CA
:100820000F9211242F933F934F935F936F937F9376
:100830008F939F93AF93BF93EF93FF938091B900F2
:10084000887F803609F44AC0F0F5883209F4A7C0E1
:1008500018F5803109F49BC0B8F4882309F4F9C075
:10086000883009F494C0FF91EF91BF91AF919F91AF
:100870008F917F916F915F914F913F912F910F9049
:100880000FBE0F901F901895883109F488C08032F0
:1008900051F78093D30114C0803409F49DC040F413
:1008A0008033B9F38833F9F68093D30185ECB0C077
:1008B000803509F485C0883509F496C0883499F6E6
:1008C0000E944F03D0CF883909F48CC038F588379F
:1008D00029F050F4883611F0803729F683E08093B0
:1008E000D4011092D20157C0883809F47BC08039F6
:1008F00019F0803809F0B7CF8091D201803208F02A
:1009000071C0E091D20181E08E0F8093D20180917D
:10091000BB00F0E0EE54FE4F80833DC0803B39F0D9
:10092000E0F4803A09F479C0883A09F09CCF84E079
:100930008093D4011092B1011092B001E0910502B0
:10094000F091060209958091B00181110FC081E0FC
:100950008093B0011092900109C0803C09F4A6CFA9
:10096000883C09F4A3CF883B09F07DCFE091B10129
:1009700081E08E0F8093B101F0E0E057FE4F80815F
:100980008093BB009091B1018091B00129C080910A
:10099000F9018093BB0085EC8093BC0064CF9091FB
:1009A000F8018091F701981758F5E091F80181E07E
:1009B0008E0F8093F801F0E0E952FE4F8081E9CF7D
:1009C000E091F80181E08E0F8093F8018091BB00E7
:1009D000F0E0E952FE4F80839091F8018091F70199
:1009E0009817C8F285E8D8CFE091F80181E08E0F22
:1009F0008093F8018091BB00F0E0E952FE4F8083C4
:100A00008091D60181115CCF81E08093D50184EA89
:100A10008093BC001092D40126CF85EC8093BC005B
:100A20001092D4018091D201803230F4E091D20151
:100A3000F0E0EE54FE4F10826091D20170E0E09140
:100A40000302F091040282EB91E009951092D20129
:100A50000ACF1092D30134CFEBE0F2E0138212827E
:100A600088EE93E0A0E0B0E084839583A683B7830B
:100A700084E091E091838083E7E1F2E013821282C7
:100A800086E191E09183808387E2848380E180879F
:100A900082E08187128688E083870895789484B500
:100AA000826084BD84B5816084BD85B5826085BD6A
:100AB00085B5816085BD80916E00816080936E00F8
:100AC00010928100809181008260809381008091EA
:100AD000810081608093810080918000816080939B
:100AE00080008091B10084608093B1008091B0005B
:100AF00081608093B00080917A00846080937A0056
:100B000080917A00826080937A0080917A0081607F
:100B100080937A0080917A00806880937A001092A6
:100B2000C10010920A02109209021092080210925B
:100B300007020E949F0186EA90E09093060280934C
:100B4000050287EA90E090930402809303021092DA
:100B50001C0280912002823018F098E090931C02D1
:100B600090912102992339F0813029F480911C025F
:100B7000846080931C0262E370E080E090E00E9459
:100B800046016091220287E192E00E94640268EED1
:100B900073E080E090E00E94460160E387E192E02C
:100BA0000E948703CBE4D6E4CE010197F1F760E31E
:100BB00087E192E00E9487032197F1F760E387E1E4
:100BC00092E00E94870383E592E00197F1F760E2EB
:100BD00087E192E00E94870360911C02606240E01E
:100BE00087E192E00E94A00384E080931D0240E030
:100BF0006CE087E192E00E94A00340E061E087E1C1
:100C000092E00E94A003CBE3DFE1CE010197F1F770
:100C100082E080931E0240E066E087E192E00E945D
:100C2000A00340E062E087E192E00E94A0032197E8
:100C3000F1F784E00E94870083E00E94870088E04B
:100C40000E94870087E00E94870085E00E9487005D
:100C500086E00E948700C0E0D0E061E084E00E946E
:100C6000D50061E083E00E94D5000E94B70343E114
:100C700050E06EE171E087E192E00E94A80061E03F
:100C800088E00E94D50060E087E00E94D50061E026
:100C900085E00E94D50060E086E00E94D50068E80B
:100CA00073E180E090E00E9446010E94B70344E1B6
:100CB00050E062E371E087E192E00E94A80060E00A
:100CC00088E00E94D50061E087E00E94D50060E0E6
:100CD00085E00E94D50061E086E00E94D50068E8CA
:100CE00073E180E090E00E944601209709F4B5CFBF
:100CF0000E940000B2CFEE0FFF1F0590F491E02D8F
:100D00000994F894FFCF00000000350208024C035C
:100D1000DE010102EE01DF0100000000BD03A800BA
:100D20004C034B03526F626F7420476F696E6720EC
:100D3000466F727761726400526F626F7420476F02
:0E0D4000696E67204261636B776F726400001A
:107E0000112484B714BE81FFF0D085E080938100F7
:107E100082E08093C00088E18093C10086E0809377
:107E2000C20080E18093C4008EE0C9D0259A86E02C
:107E300020E33CEF91E0309385002093840096BBD3
:107E4000B09BFECF1D9AA8958150A9F7CC24DD24C4
:107E500088248394B5E0AB2EA1E19A2EF3E0BF2EE7
:107E6000A2D0813461F49FD0082FAFD0023811F036
:107E7000013811F484E001C083E08DD089C08234E0
:107E800011F484E103C0853419F485E0A6D080C0E4
:107E9000853579F488D0E82EFF2485D0082F10E0AE
:107EA000102F00270E291F29000F111F8ED06801E7
:107EB0006FC0863521F484E090D080E0DECF843638
:107EC00009F040C070D06FD0082F6DD080E0C81688
:107ED00080E7D80618F4F601B7BEE895C0E0D1E017
:107EE00062D089930C17E1F7F0E0CF16F0E7DF06D8
:107EF00018F0F601B7BEE89568D007B600FCFDCFD4
:107F0000A601A0E0B1E02C9130E011968C91119780
:107F100090E0982F8827822B932B1296FA010C0160
:107F200087BEE89511244E5F5F4FF1E0A038BF0790
:107F300051F7F601A7BEE89507B600FCFDCF97BE46
:107F4000E89526C08437B1F42ED02DD0F82E2BD052
:107F50003CD0F601EF2C8F010F5F1F4F84911BD097
:107F6000EA94F801C1F70894C11CD11CFA94CF0C13
:107F7000D11C0EC0853739F428D08EE10CD085E9AC
:107F80000AD08FE07ACF813511F488E018D01DD067
:107F900080E101D065CF982F8091C00085FFFCCF94
:107FA0009093C60008958091C00087FFFCCF809118
:107FB000C00084FD01C0A8958091C6000895E0E648
:107FC000F0E098E1908380830895EDDF803219F02E
:107FD00088E0F5DFFFCF84E1DECF1F93182FE3DFCA
:107FE0001150E9F7F2DF1F91089580E0E8DFEE27F6
:047FF000FF270994CA
:027FFE00040479
:00000001FF
