:100000000C945D000C9485000C9485000C94850084
:100010000C9485000C9485000C9485000C9485004C
:100020000C9485000C9485000C9485000C9485003C
:100030000C9485000C9485000C9485000C9485002C
:100040000C94EE030C9485000C9485000C948500B0
:100050000C9485000C9485000C9485000C9485000C
:100060000C9438040C948500000000080002010084
:100070000003040700000000000000000000000072
:10008000250028002B0000000000240027002A0083
:10009000040404040404040402020202020203032E
:1000A0000303030301020408102040800102040836
:1000B0001020010204081020570511241FBECFEFA5
:1000C000D8E0DEBFCDBF11E0A0E0B1E0E4EEFDE09E
:1000D00002C005900D92AC36B107D9F722E0ACE62C
:1000E000B1E001C01D92A734B207E1F710E0CDE501
:1000F000D0E004C02197FE010E94EA06CC35D1076A
:10010000C9F70E9479050C94F0060C94000090E069
:10011000FC01EC55FF4F249180579F4FFC018491C7
:10012000882399F090E0880F991FFC01EA57FF4F50
:10013000A591B491FC01E458FF4F859194918FB73C
:10014000F894EC91E22BEC938FBF089590E0FC01C2
:10015000E859FF4F2491FC01EC55FF4F3491FC010D
:10016000E057FF4FE491EE23C9F0222339F023300A
:1001700001F1A8F4213019F1223029F1F0E0EE0F5D
:10018000FF1FE458FF4FA591B4918FB7F894EC91FD
:10019000611126C030953E233C938FBF08952730D0
:1001A000A9F02830C9F0243049F7809180008F7D74
:1001B00003C0809180008F7780938000DFCF84B56B
:1001C0008F7784BDDBCF84B58F7DFBCF8091B0006E
:1001D0008F778093B000D2CF8091B0008F7DF9CF20
:1001E0003E2BDACF3FB7F89480912B0290912C02EE
:1001F000A0912D02B0912E0226B5A89B05C02F3FDD
:1002000019F00196A11DB11D3FBFBA2FA92F982F3C
:100210008827BC01CD01620F711D811D911D42E037
:10022000660F771F881F991F4A95D1F708958F92FF
:100230009F92AF92BF92CF92DF92EF92FF924B01CB
:100240005C010E94F2006B017C010E94F2006C19BB
:100250007D098E099F09683E734081059105A8F3C9
:1002600021E0821A9108A108B10888EEC80E83E047
:10027000D81EE11CF11C81149104A104B10429F7DA
:10028000FF90EF90DF90CF90BF90AF909F908F90B6
:10029000089508950895AF92BF92CF92DF92EF92A2
:1002A000FF920F931F93CF93DF936C017B018B0120
:1002B000040F151FEB015E01AE18BF08C017D10770
:1002C00059F06991D601ED91FC910190F081E02DFA
:1002D000C6010995892B79F7C501DF91CF911F914F
:1002E0000F91FF90EF90DF90CF90BF90AF90089567
:1002F0002091D401260F3327331F21323105ECF42E
:100300002091F801FC0190E080E0243069F082E067
:100310000895A091D4012191AC014C545E4FA40FDB
:10032000B52FB11D2C930196861798F38091D401B7
:10033000680F6093D40180E0089581E008951092E1
:10034000F80181E08093FA011092F90161E082E105
:100350000E94A60061E083E10E94A600E9EBF0E0C4
:1003600080818E7F808380818D7F808388E48093ED
:10037000B80085E48093BC000895CF93DF9391E0AB
:100380009093B3018823B9F0C091B800D091BA001E
:100390008091BC008A7B8093BC0060E082E10E9477
:1003A000A60060E083E10E94A6000E949F01D09316
:1003B000BA00C093B800DF91CF9108950895E091FD
:1003C000250280912402E81730F4F0E0E257FE4F56
:1003D000808190E008958FEF9FEF0895909125021E
:1003E000809124022FEF3FEF981748F4E92FF0E0B7
:1003F000E257FE4F208130E09F5F90932502C901B4
:1004000008958091240290912502891B990B0895EB
:10041000CF92DF92EF92FF920F931F93CF93DF93D0
:100420007C01CB018A0120918D01222389F0EB010F
:100430006B01C40ED51ECC15DD0569F06991D7019D
:10044000ED91FC910190F081E02DC7010995F3CF6A
:10045000642F0E947801C801DF91CF911F910F9105
:10046000FF90EF90DF90CF900895CF93DF931F928E
:10047000CDB7DEB7698320918D012223F9F0209159
:100480002202203258F021E030E0FC013383228345
:1004900090E080E00F90DF91CF910895809123024A
:1004A000E82FF0E0E359FE4F998190838F5F8093AE
:1004B00023028093220281E090E0ECCF61E0CE0144
:1004C00001960E947801F7CFCF92DF92EF92FF92D0
:1004D0000F931F93CF93DF93FC01C48121E02093FE
:1004E0008D01C0936C011092230210922202838529
:1004F000682B8FE292E00E943502D0912202D13225
:1005000008F092C00E94F2006B017C018091F8011A
:10051000811165C082E08093F80181E08093FA0147
:100520008FEF8093F70110921C02D0931B02ADE66F
:10053000B1E0EBEFF1E080E0D81385C010921D022E
:1005400080911D02CC0FC82BC0931D028091F90130
:10055000813009F07CC01092F9010E94F2006B0119
:100560007C0180911D028093BB008091AF0190912E
:10057000B001A091B101B091B201892B8A2B8B2BD4
:1005800099F00E94F2000091AF011091B00120910A
:10059000B1013091B2016C197D098E099F090617CE
:1005A000170728073907E0F18091BC0083FDD9CFF8
:1005B00085EC8093BC000E94F2006B017C0180916D
:1005C000F801823009F445C08091F7018F3F61F155
:1005D0008091F701803241F18091F70125C080912F
:1005E000AF019091B001A091B101B091B201892BFE
:1005F0008A2B8B2B09F48ACF0E94F2000091AF0165
:100600001091B0012091B1013091B2016C197D09B6
:100610008E099F09061717072807390708F076CFB4
:100620008091AE010E94BD0110922302109222021D
:1006300010928D01DF91CF911F910F91FF90EF905C
:10064000DF90CF9008959D9191938F5F75CF85EE48
:10065000B0CF8091AF019091B001A091B101B09164
:10066000B201892B8A2B8B2B09F4A9CF0E94F200AF
:100670000091AF011091B0012091B1013091B20110
:100680006C197D098E099F09061717072807390776
:1006900008F095CFC5CF089590E080E0089585EDEE
:1006A0008093BC008091AF019091B001A091B10105
:1006B000B091B2010796A11DB11D23E0B695A79593
:1006C000979587952A95D1F72091BC0024FD03C00A
:1006D0001092F80108954091AF015091B0016091DE
:1006E000B1017091B201452B462B472B69F300975E
:1006F000A105B10541F02AE22A95F1F700C0019762
:10070000A109B109E1CF8091AE010C94BD010F9315
:100710001F93CF938C01C62F0E9464026C2F6460DC
:10072000C8010E9464026C2F6B7FC8010E946402A2
:1007300083EC90E00197F1F7CF911F910F9108950D
:100740000F931F93CF93DF938C01D62FC42F607F1D
:10075000642B0E94870380E1D89FB00111246C2B89
:10076000C801DF91CF911F910F910C948703CF9314
:10077000DF93CDB7DEB728970FB6F894DEBF0FBE74
:10078000CDBF98E0E0E0F1E0DE01119601900D921E
:100790009A95E1F790914402981708F48FEF90E052
:1007A000880F991F21E030E02C0F3D1F820F931F0F
:1007B000FC016081606840E08BE392E028960FB610
:1007C000F894DEBF0FBECDBFDF91CF910C94A00394
:1007D00041E00E94A00381E090E008951F920F92F3
:1007E0000FB60F9211242F933F938F939F93AF9344
:1007F000BF938091270290912802A0912902B09185
:100800002A023091260223E0230F2D3758F5019656
:10081000A11DB11D209326028093270290932802E8
:10082000A0932902B0932A0280912B0290912C026E
:10083000A0912D02B0912E020196A11DB11D8093B1
:100840002B0290932C02A0932D02B0932E02BF9105
:10085000AF919F918F913F912F910F900FBE0F906D
:100860001F90189526E8230F0296A11DB11DD2CF27
:100870001F920F920FB60F9211242F933F934F9315
:100880005F936F937F938F939F93AF93BF93EF93F8
:10089000FF938091B900887F803609F44AC0F0F553
:1008A000883209F4A7C018F5803109F49BC0B8F468
:1008B000882309F4F9C0883009F494C0FF91EF91BE
:1008C000BF91AF919F918F917F916F915F914F9168
:1008D0003F912F910F900FBE0F901F901895883168
:1008E00009F488C0803251F78093F70114C0803436
:1008F00009F49DC040F48033B9F38833F9F680934E
:10090000F70185ECB0C0803509F485C0883509F45D
:1009100096C0883499F60E944F03D0CF883909F4E5
:100920008CC038F5883729F050F4883611F08037BC
:1009300029F683E08093F8011092F60157C08838B9
:1009400009F47BC0803919F0803809F0B7CF809165
:10095000F601803208F071C0E091F60181E08E0F5F
:100960008093F6018091BB00F0E0EA52FE4F808355
:100970003DC0803B39F0E0F4803A09F479C0883A10
:1009800009F09CCF84E08093F8011092D501109279
:10099000D401E0912002F091210209958091D401C7
:1009A00081110FC081E08093D4011092B40109C07D
:1009B000803C09F4A6CF883C09F4A3CF883B09F01A
:1009C0007DCFE091D50181E08E0F8093D501F0E0DD
:1009D000EC54FE4F80818093BB009091D5018091B3
:1009E000D40129C080911D028093BB0085EC8093C7
:1009F000BC0064CF90911C0280911B02981758F59F
:100A0000E0911C0281E08E0F80931C02F0E0E55023
:100A1000FE4F8081E9CFE0911C0281E08E0F809330
:100A20001C028091BB00F0E0E550FE4F8083909166
:100A30001C0280911B029817C8F285E8D8CFE0917C
:100A40001C0281E08E0F80931C028091BB00F0E0BD
:100A5000E550FE4F80838091FA0181115CCF81E0E7
:100A60008093F90184EA8093BC001092F80126CFAC
:100A700085EC8093BC001092F8018091F6018032E1
:100A800030F4E091F601F0E0EA52FE4F10826091FE
:100A9000F60170E0E0911E02F0911F0286ED91E0F8
:100AA00009951092F6010ACF1092F70134CFEFE2C8
:100AB000F2E01382128288EE93E0A0E0B0E084833B
:100AC0009583A683B7838CE091E091838083EBE3E9
:100AD000F2E0138212828EE191E09183808387E2BB
:100AE000848380E1808782E08187128688E0838723
:100AF0000895789484B5826084BD84B5816084BD96
:100B000085B5826085BD85B5816085BD80916E00AB
:100B1000816080936E0010928100809181008260DC
:100B20008093810080918100816080938100809119
:100B300080008160809380008091B1008460809308
:100B4000B1008091B00081608093B00080917A0004
:100B5000846080937A0080917A00826080937A002A
:100B600080917A00816080937A0080917A00806819
:100B700080937A001092C1001092250210922402F4
:100B800010922302109222020E949F0189E491E0B8
:100B900090932102809320028AE491E090931F02B7
:100BA00080931E021092400280914402823018F01D
:100BB00098E09093400290914502992339F081305A
:100BC00029F48091400284608093400262E370E0E7
:100BD00080E090E00E941701609146028BE392E072
:100BE0000E94640268EE73E080E090E00E941701CA
:100BF00060E38BE392E00E948703CBE4D6E4CE016E
:100C00000197F1F760E38BE392E00E94870321975D
:100C1000F1F760E38BE392E00E94870383E592E0C3
:100C20000197F1F760E28BE392E00E948703609105
:100C30004002606240E08BE392E00E94A00384E007
:100C40008093410240E06CE08BE392E00E94A003BD
:100C500040E061E08BE392E00E94A003CBE3DFE1A0
:100C6000CE010197F1F782E08093420240E066E016
:100C70008BE392E00E94A00340E062E08BE392E00D
:100C80000E94A0032197F1F784E00E94870083E08F
:100C90000E94870088E00E94870087E00E9487000A
:100CA00085E00E94870086E00E948700C0E0D0E0D7
:100CB00061E084E00E94A60061E083E00E94A6005B
:100CC00080E00E94B70343E150E066E271E08BE30D
:100CD00092E00E944B0181E00E94B7034FE050E098
:100CE0006AE371E08BE392E00E944B0161E088E0EF
:100CF0000E94A60060E087E00E94A60061E085E017
:100D00000E94A60060E086E00E94A60068E873E109
:100D100080E090E00E94170180E00E94B70343E169
:100D200050E066E271E08BE392E00E944B0181E0CB
:100D30000E94B70340E150E06AE471E08BE392E087
:100D40000E944B0160E088E00E94A60061E087E01D
:100D50000E94A60060E085E00E94A60061E086E0B7
:100D60000E94A60068E873E180E090E00E9417010D
:100D700080E00E94B70343E150E066E271E08BE35C
:100D800092E00E944B0181E00E94B70340E150E0F5
:100D90006BE571E08BE392E00E944B0160E088E03C
:100DA0000E94A60060E087E00E94A60060E085E067
:100DB0000E94A60060E086E00E94A60060ED77E059
:100DC00080E090E00E941701209709F471CF0E9403
:100DD00000006ECFEE0FFF1F0590F491E02D0994F7
:040DE000F894FFCFB5
:100DE4000000400014005400000000003502080216
:100DF4004C03DE010102EE01DF0100000000E80304
:100E04004B014C034B0352657075626C6963206F30
:100E140066204C6567656E64730020526F626F7460
:100E240020466F7277617264200020526F626F7483
:100E3400204261636B776172642000202020526F2E
:0C0E4400626F742053746F702020200037
:00000001FF
