:020000040000FA
:100000000C945E000C9486000C9486000C94860080
:100010000C9486000C9486000C9486000C94860048
:100020000C9486000C9486000C9486000C94860038
:100030000C9486000C9486000C9486000C94860028
:100040000C94B6050C9486000C9426060C940006BD
:100050000C9486000C9486000C9486000C94860008
:100060000C9458060C948600000000080002010061
:100070000003040700000000000000000000000072
:10008000250028002B0000000000240027002A0083
:10009000040404040404040402020202020203032E
:1000A0000303030301020408102040800102040836
:1000B00010200102040810207707170A11241FBE20
:1000C000CFEFD8E0DEBFCDBF23E0ACEFB1E001C0A1
:1000D0001D92AF37B207E1F711E0A0E0B1E0EEEA20
:1000E000F8E102C005900D92AC3FB107D9F710E0DE
:1000F000CDE5D0E004C02197FE010E94520ACC3524
:10010000D107C9F70E94C6070C944A0C0C94000052
:1001100090E0FC01EC55FF4F249180579F4FFC016C
:100120008491882399F090E0880F991FFC01EA5789
:10013000FF4FA591B491FC01E458FF4F8591949134
:100140008FB7F894EC91E22BEC938FBF089590E079
:10015000FC01E859FF4F2491FC01EC55FF4F34910D
:10016000FC01E057FF4FE491EE23C9F0222339F060
:10017000233001F1A8F4213019F1223029F1F0E007
:10018000EE0FFF1FE458FF4FA591B4918FB7F8947D
:10019000EC91611126C030953E233C938FBF0895AA
:1001A0002730A9F02830C9F0243049F78091800029
:1001B0008F7D03C0809180008F7780938000DFCF98
:1001C00084B58F7784BDDBCF84B58F7DFBCF8091E5
:1001D000B0008F778093B000D2CF8091B0008F7D38
:1001E000F9CF3E2BDACF3FB7F8948091BC029091C3
:1001F000BD02A091BE02B091BF0226B5A89B05C06A
:100200002F3F19F00196A11DB11D3FBFBA2FA92F95
:10021000982F8827BC01CD01620F711D811D911D92
:1002200042E0660F771F881F991F4A95D1F70895FE
:100230008F929F92AF92BF92CF92DF92EF92FF92F6
:100240004B015C010E94F3006B017C010E94F300F2
:100250006C197D098E099F09683E734081059105DF
:10026000A8F321E0821A9108A108B10888EEC80E0F
:1002700083E0D81EE11CF11C81149104A104B10497
:1002800029F7FF90EF90DF90CF90BF90AF909F90B5
:100290008F90089508950895AF92BF92CF92DF9204
:1002A000EF92FF920F931F93CF93DF936C017B012B
:1002B0008B01040F151FEB015E01AE18BF08C017BC
:1002C000D10759F06991D601ED91FC910190F0812F
:1002D000E02DC6010995892B79F7C501DF91CF91F2
:1002E0001F910F91FF90EF90DF90CF90BF90AF9054
:1002F0000895FC01538D448D252F30E0842F90E02C
:10030000821B930B541710F0CF9608950197089510
:10031000FC01918D828D981761F0A28DAE0FBF2FD9
:10032000B11D5D968C91928D9F5F9F73928F90E02F
:1003300008958FEF9FEF0895FC01918D828D98179E
:1003400031F0828DE80FF11D858D90E008958FEFDB
:100350009FEF0895FC01918D228D892F90E0805CA4
:100360009F4F821B91098F739927089580EC92E02B
:100370000E94AA0121E0892B09F420E0822F089530
:1003800080E090E0892B29F00E94B60181110C9445
:1003900000000895FC01A48DA80FB92FB11DA35A28
:1003A000BF4F2C91848D90E001968F739927848F95
:1003B000A689B7892C93A089B1898C9183708064B8
:1003C0008C93938D848D981306C00288F389E02D59
:1003D00080818F7D80830895EF92FF920F931F930A
:1003E000CF93DF93EC0181E0888F9B8D8C8D9813E8
:1003F0001AC0E889F989808185FF15C09FB7F894F4
:10040000EE89FF896083E889F9898081837080643F
:1004100080839FBF81E090E0DF91CF911F910F918A
:10042000FF90EF900895F62E0B8D10E00F5F1F4F99
:100430000F731127E02E8C8D8E110CC00FB607FCA8
:10044000FACFE889F989808185FFF5CFCE010E9436
:10045000CA01F1CFEB8DEC0FFD2FF11DE35AFF4FD9
:10046000F0829FB7F8940B8FEA89FB8980818062C4
:10047000CFCFCF93DF93EC01888D8823B9F0AA8981
:10048000BB89E889F9898C9185FD03C0808186FD4F
:100490000DC00FB607FCF7CF8C9185FFF2CF80819E
:1004A00085FFEDCFCE010E94CA01E9CFDF91CF9148
:1004B000089520916402260F3327331F213231051E
:1004C000ECF420918802FC0190E080E0243069F097
:1004D00082E00895A09164022191AC014C5B5D4FD4
:1004E000A40FB52FB11D2C930196861798F3809118
:1004F0006402680F6093640280E0089581E00895CB
:100500001092880281E080938A021092890261E051
:1005100082E10E94A70061E083E10E94A700E9EB6D
:10052000F0E080818E7F808380818D7F808388E46E
:100530008093B80085E48093BC000895CF93DF9347
:1005400091E0909343028823B9F0C091B800D09114
:10055000BA008091BC008A7B8093BC0060E082E19D
:100560000E94A70060E083E10E94A7000E94800231
:10057000D093BA00C093B800DF91CF910895089549
:10058000E091B5028091B402E81730F4F0E0E25E49
:10059000FD4F808190E008958FEF9FEF0895909137
:1005A000B5028091B4022FEF3FEF981748F4E92F7E
:1005B000F0E0E25EFD4F208130E09F5F9093B50256
:1005C000C90108958091B4029091B502891B990BDD
:1005D0000895CF92DF92EF92FF920F931F93CF93E4
:1005E000DF937C01CB018A0120911D02222389F037
:1005F000EB016B01C40ED51ECC15DD0569F06991C8
:10060000D701ED91FC910190F081E02DC701099592
:10061000F3CF642F0E945902C801DF91CF911F913F
:100620000F91FF90EF90DF90CF900895CF93DF93DD
:100630001F92CDB7DEB7698320911D022223F9F006
:100640002091B202203258F021E030E0FC013383E7
:10065000228390E080E00F90DF91CF910895809108
:10066000B302E82FF0E0E350FE4F998190838F5F53
:100670008093B3028093B20281E090E0ECCF61E01E
:10068000CE0101960E945902F7CFCF92DF92EF92EE
:10069000FF920F931F93CF93DF93FC01C48121E05E
:1006A00020931D02C093FC011092B3021092B2027B
:1006B0008385682B8DE593E00E941603D091B202EA
:1006C000D13208F092C00E94F3006B017C0180914E
:1006D0008802811165C082E08093880281E0809366
:1006E0008A028FEF809387021092AC02D093AB0204
:1006F000ADEFB1E0EBE8F2E080E0D81385C01092F6
:10070000AD028091AD02CC0FC82BC093AD02809199
:100710008902813009F07CC0109289020E94F300A6
:100720006B017C018091AD028093BB0080913F0200
:1007300090914002A0914102B0914202892B8A2BF4
:100740008B2B99F00E94F30000913F021091400220
:1007500020914102309142026C197D098E099F0956
:100760000617170728073907E0F18091BC0083FDC1
:10077000D9CF85EC8093BC000E94F3006B017C0113
:1007800080918802823009F445C0809187028F3FB2
:1007900061F180918702803241F18091870225C00A
:1007A00080913F0290914002A0914102B09142029B
:1007B000892B8A2B8B2B09F48ACF0E94F30000919E
:1007C0003F021091400220914102309142026C1987
:1007D0007D098E099F09061717072807390708F0B2
:1007E00076CF80913E020E949E021092B302109238
:1007F000B20210921D02DF91CF911F910F91FF90D5
:10080000EF90DF90CF9008959D9191938F5F75CF7A
:1008100085EEB0CF80913F0290914002A0914102BD
:10082000B0914202892B8A2B8B2B09F4A9CF0E940D
:10083000F30000913F02109140022091410230915B
:1008400042026C197D098E099F09061717072807B0
:10085000390708F095CFC5CF089590E080E008955E
:10086000E82FF0E0E859FF4FE491E33031F138F43C
:10087000E130B9F0E230D9F060E00C94A700E73045
:1008800041F1E83079F1E430B9F78091800080627D
:100890008093800082E390E090938B0080938A00A5
:1008A000089584B5806884BD82E387BD089584B5CA
:1008B000806284BD82E388BD089580918000806855
:1008C0008093800082E390E0909389008093880079
:1008D00008958091B00080688093B00082E3809397
:1008E000B30008958091B00080628093B00082E3ED
:1008F0008093B40008950F931F93CF938C01C62F5C
:100900000E9445036C2F6460C8010E9445036C2F50
:100910006B7FC8010E94450383EC90E00197F1F7DB
:10092000CF911F910F9108950F931F93CF93DF9352
:100930008C01D62FC42F607F642B0E947B0480E142
:10094000D89FB00111246C2BC801DF91CF911F916A
:100950000F910C947B04CF93DF93CDB7DEB728972C
:100960000FB6F894DEBF0FBECDBF98E0E6E0F1E031
:10097000DE01119601900D929A95E1F7909178031E
:10098000981710F48FEF890F90E0880F991F21E0DE
:1009900030E02C0F3D1F820F931FFC0160816068C7
:1009A00040E08FE693E028960FB6F894DEBF0FBEC6
:1009B000CDBFDF91CF910C949404CF93DF93EC01E2
:1009C00083E00E94AB044C815D81688179818FE670
:1009D00093E0DF91CF910C944C0141E00E9494048C
:1009E00081E090E00895FC0101900020E9F7319743
:1009F000AF01481B590BBC018FE693E00C944C01EE
:100A0000FC0180819181009711F00C94F40A089503
:100A1000EF92FF920F931F93CF93DF93EC017B0133
:100A20008A0188819981009729F02A813B812417C6
:100A3000350788F4B8016F5F7F4F0E947D0B0097E8
:100A400091F0998388831B830A832C813D81232B1A
:100A500011F4FC0110821D830C83B70188819981F8
:100A60000E94430C0CC088819981009711F00E946C
:100A7000F40A198218821D821C821B821A82CE01FE
:100A8000DF91CF911F910F91FF90EF900895FC019E
:100A900001900020E9F73197AF01481B590BBC01C9
:100AA00089E693E00C940805FC0111821082138200
:100AB000128215821482F3E089369F0769F06091F3
:100AC000690370916A036115710531F040916D03FE
:100AD00050916E030C9408050895FC011182108258
:100AE0001382128215821482FB0101900020E9F723
:100AF0003197AF01461B570B0C94080585ED809389
:100B0000BC0080913F0290914002A0914102B091BF
:100B100042020796A11DB11D23E0B695A7959795B2
:100B200087952A95D1F72091BC0024FD03C010922F
:100B30008802089540913F02509140026091410225
:100B400070914202452B462B472B69F30097A10574
:100B5000B10541F02AE22A95F1F700C00197A109F9
:100B6000B109E1CF80913E020C949E021F920F9238
:100B70000FB60F9211242F933F938F939F93AF93B0
:100B8000BF938091B8029091B902A091BA02B0913E
:100B9000BB023091B70223E0230F2D3758F50196A1
:100BA000A11DB11D2093B7028093B8029093B902A2
:100BB000A093BA02B093BB028091BC029091BD0297
:100BC000A091BE02B091BF020196A11DB11D8093FC
:100BD000BC029093BD02A093BE02B093BF02BF912E
:100BE000AF919F918F913F912F910F900FBE0F90DA
:100BF0001F90189526E8230F0296A11DB11DD2CF94
:100C00001F920F920FB60F9211242F933F934F9381
:100C10005F936F937F938F939F93AF93BF93EF9364
:100C2000FF9380EC92E00E94CA01FF91EF91BF9187
:100C3000AF919F918F917F916F915F914F913F9174
:100C40002F910F900FBE0F901F9018951F920F922B
:100C50000FB60F9211242F938F939F93EF93FF93CF
:100C6000E091D002F091D1028081E091D602F09122
:100C7000D70282FD1BC090818091D9028F5F8F7354
:100C80002091DA02821741F0E091D902F0E0E054BD
:100C9000FD4F958F8093D902FF91EF919F918F9196
:100CA0002F910F900FBE0F901F9018958081F4CF59
:100CB0001F920F920FB60F9211242F933F934F93D1
:100CC0005F936F937F938F939F93AF93BF93EF93B4
:100CD000FF938091B900887F803609F44AC0F0F50F
:100CE000883209F4A7C018F5803109F49BC0B8F424
:100CF000882309F4F9C0883009F494C0FF91EF917A
:100D0000BF91AF919F918F917F916F915F914F9123
:100D10003F912F910F900FBE0F901F901895883123
:100D200009F488C0803251F78093870214C0803460
:100D300009F49DC040F48033B9F38833F9F6809309
:100D4000870285ECB0C0803509F485C0883509F488
:100D500096C0883499F60E947E05D0CF883909F470
:100D60008CC038F5883729F050F4883611F0803778
:100D700029F683E0809388021092860257C0883853
:100D800009F47BC0803919F0803809F0B7CF809121
:100D90008602803208F071C0E091860281E08E0FF9
:100DA000809386028091BB00F0E0EA59FD4F80837A
:100DB0003DC0803B39F0E0F4803A09F479C0883ACC
:100DC00009F09CCF84E08093880210926502109213
:100DD0006402E091B002F091B10209958091640241
:100DE00081110FC081E0809364021092440209C017
:100DF000803C09F4A6CF883C09F4A3CF883B09F0D6
:100E00007DCFE091650281E08E0F80936502F0E076
:100E1000EC5BFD4F80818093BB00909165028091D7
:100E2000640229C08091AD028093BB0085EC809361
:100E3000BC0064CF9091AC028091AB02981758F53A
:100E4000E091AC0281E08E0F8093AC02F0E0E557B8
:100E5000FD4F8081E9CFE091AC0281E08E0F80935D
:100E6000AC028091BB00F0E0E557FD4F808390918C
:100E7000AC028091AB029817C8F285E8D8CFE09118
:100E8000AC0281E08E0F8093AC028091BB00F0E059
:100E9000E557FD4F808380918A0281115CCF81E00C
:100EA0008093890284EA8093BC001092880226CF46
:100EB00085EC8093BC00109288028091860280327B
:100EC00030F4E0918602F0E0EA59FD4F1082609123
:100ED000860270E0E091AE02F091AF0286E692E009
:100EE0000995109286020ACF1092870234CFE0EC67
:100EF000F2E01382128288EE93E0A0E0B0E08483F7
:100F00009583A683B78322E131E03183208325ECEA
:100F100030E03587248724EC30E03787268720ECC3
:100F200030E0318B208B21EC30E0338B228B22ECB4
:100F300030E0358B248B26EC30E0378B268B118EFE
:100F4000128E138E148EEDE5F3E0138212828483E9
:100F50009583A683B78384E291E091838083EFE653
:100F6000F3E01382128286E391E09183808387E22B
:100F7000848384E1808784E08187128688E0838788
:100F800061E971E089E693E00C946D05CF93DF93FE
:100F900000D000D000D0CDB7DEB7789484B58260A1
:100FA00084BD84B5816084BD85B5826085BD85B50D
:100FB000816085BD80916E00816080936E0010928B
:100FC0008100809181008260809381008091810006
:100FD0008160809381008091800081608093800097
:100FE0008091B10084608093B1008091B0008160F5
:100FF0008093B00080917A00846080937A00809121
:101000007A00826080937A0080917A008160809378
:101010007A0080917A00806880937A001092C100F3
:10102000E091D002F091D10282E08083E091CC0285
:10103000F091CD021082E091CE02F091CF028FECC0
:1010400080831092D802E091D402F091D50286E01C
:101050008083E091D202F091D3028081806180830D
:10106000E091D202F091D302808188608083E09188
:10107000D202F091D302808180688083E091D20215
:10108000F091D30280818F7D80831092B5021092FF
:10109000B4021092B3021092B2020E9480028AE45B
:1010A00091E09093B1028093B0028BE491E0909331
:1010B000AF028093AE021092740380917803823065
:1010C00018F098E09093740390917903992339F084
:1010D000813029F48091740384608093740362E307
:1010E00070E080E090E00E94180160917A038FE642
:1010F00093E00E94450368EE73E080E090E00E9478
:10110000180160E38FE693E00E947B040BE416E491
:10111000C8010197F1F760E38FE693E00E947B043A
:10112000C8010197F1F760E38FE693E00E947B042A
:1011300083E592E00197F1F760E28FE693E00E9489
:101140007B0460917403606240E08FE693E00E944C
:10115000940484E08093750340E06CE08FE693E0B4
:101160000E94940440E061E08FE693E00E949404C2
:101170000BE31FE1C8010197F1F782E0809376034A
:1011800040E066E08FE693E00E94940440E062E075
:101190008FE693E00E949404C8010197F1F78AE07A
:1011A0000E94880089E00E94880084E00E948800F4
:1011B00085E00E94880086E00E94880087E00E9407
:1011C000880080E00E94AB048EE391E00E94F3046B
:1011D00081E00E94AB0482E591E00E94F30482E08A
:1011E0000E94AB0486E691E00E94F30483E00E9433
:1011F000AB048AE791E00E94F30400E010E08AE08B
:101200000E9488008AE00E94300489E00E948800E1
:1012100089E00E94300480EC92E00E94AA01892BB0
:1012200009F4F9C080EC92E00E9488018093B60234
:10123000682F80EC92E00E94EC0142E050E06FE801
:1012400071E080EC92E00E944C018091B6028335FF
:1012500001F560E084E00E94A70060E085E00E9464
:10126000A70060E086E00E94A70060E087E00E949F
:10127000A70082E991E00E944705CE0101960E94F5
:101280005405CE0101960E94DD04CE0101960E9414
:1012900000058091B6028634F1F461E084E00E949A
:1012A000A70060E085E00E94A70061E086E00E9460
:1012B000A70060E087E00E94A70067EA71E0CE0126
:1012C00001960E946D05CE0101960E94DD04CE01BB
:1012D00001960E9400058091B6028234F1F460E02C
:1012E00084E00E94A70061E085E00E94A70060E022
:1012F00086E00E94A70061E087E00E94A7006CEBF7
:1013000071E0CE0101960E946D05CE0101960E940A
:10131000DD04CE0101960E9400058091B6028C3456
:10132000F1F461E084E00E94A70060E085E00E94A3
:10133000A70060E086E00E94A70061E087E00E94CD
:10134000A70061ED71E0CE0101960E946D05CE010E
:1013500001960E94DD04CE0101960E940005809155
:10136000B6028235F1F460E084E00E94A70061E0FB
:1013700085E00E94A70061E086E00E94A70060E08F
:1013800087E00E94A70066EE71E0CE0101960E9400
:101390006D05CE0101960E94DD04CE0101960E94EA
:1013A00000058091B602843471F46AE771E0CE01E1
:1013B00001960E946D05CE0101960E94DD04CE01CA
:1013C00001960E9400058091B6028F3481F48AE76D
:1013D00091E00E944705CE0101960E945405CE017E
:1013E00001960E94DD04CE0101960E9400058091C5
:1013F000B6028B3281F48AE791E00E944705CE0164
:1014000001960E945405CE0101960E94DD04CE0192
:1014100001960E9400050115110509F4F0CE0E9405
:10142000B601882309F4EBCE0E940000E8CE89E6DD
:1014300093E00C9400052F923F924F925F926F922F
:101440007F928F929F92AF92BF92CF92DF92EF9254
:10145000FF920F931F93CF93DF93CDB7DEB7CA1BD5
:10146000DB0B0FB6F894DEBF0FBECDBF09942A8800
:10147000398848885F846E847D848C849B84AA84A8
:10148000B984C884DF80EE80FD800C811B81AA8135
:10149000B981CE0FD11D0FB6F894DEBF0FBECDBF00
:1014A000ED010895EE0FFF1F0590F491E02D0994D2
:1014B0000F931F93CF93DF938230910510F482E056
:1014C00090E0E0917D03F0917E0330E020E0B0E019
:1014D000A0E0309799F42115310509F44AC0281B82
:1014E000390B24303105D8F58A819B81611571054E
:1014F00089F1FB0193838283FE0111C040815181F8
:101500000281138148175907E0F04817590799F4E9
:10151000109761F012960C93129713961C933296C3
:10152000CF01DF91CF911F910F91089500937D031B
:1015300010937E03F4CF2115310551F04217530764
:1015400038F0A901DB019A01BD01DF01F801C1CF2B
:10155000EF01F9CF90937E0380937D03CDCFFE0101
:10156000E20FF31F8193919322503109398328832D
:10157000D7CF20917B0330917C03232B41F4209122
:1015800002013091030130937C0320937B0320916F
:101590000001309101012115310541F42DB73EB70D
:1015A0004091040150910501241B350BE0917B0310
:1015B000F0917C03E217F307A0F42E1B3F0B2817D2
:1015C000390778F0AC014E5F5F4F2417350748F0BC
:1015D0004E0F5F1F50937C0340937B038193919345
:1015E0009FCFF0E0E0E09CCFCF93DF930097E9F04E
:1015F000FC01329713821282A0917D03B0917E0389
:10160000ED0130E020E01097A1F420813181820FBC
:10161000931F20917B0330917C032817390709F031
:1016200061C0F0937C03E0937B03DF91CF91089539
:10163000EA01CE17DF07E8F54A815B819E0141157B
:101640005105B1F7E901FB83EA8349915991C40F30
:10165000D51FEC17FD0761F4808191810296840FFC
:10166000951FE90199838883828193819B838A8373
:10167000F0E0E0E012968D919C9113970097B9F5F8
:101680002D913C911197CD010296820F931F2091CD
:101690007B0330917C032817390739F6309751F5D1
:1016A00010927E0310927D03B0937C03A0937B0382
:1016B000BCCFD383C28340815181840F951FC8174B
:1016C000D90761F44E5F5F4F88819981480F591F98
:1016D000518340838A819B819383828321153105C5
:1016E00009F0B0CFF0937E03E0937D039ECFFD0120
:1016F000DC01C0CF13821282D7CFB0E0A0E0E3E8D4
:10170000FBE00C941D0A8C01009751F4CB010E9460
:10171000580A8C01C801CDB7DEB7E0E10C94390A54
:10172000FC01E60FF71F9C0122503109E217F30775
:1017300008F49DC0D901CD91DC911197C617D70748
:1017400098F0C530D10530F3CE010497861797077E
:1017500008F3C61BD70B2297C193D1936D937C934B
:10176000CF010E94F40AD6CF5B01AC1ABD0A4C012E
:101770008C0E9D1EA0917D03B0917E03512C412CB7
:10178000F12CE12C109731F580917B0390917C0333
:101790008815990509F05CC04616570608F058C030
:1017A0008091000190910101009741F48DB79EB79F
:1017B0004091040150910501841B950BE817F9072E
:1017C00008F055C0F0937C03E0937B03F90171832B
:1017D0006083A0CF8D919C91119712966C90129777
:1017E00013967C901397A815B90559F56C0142E042
:1017F000C40ED11CCA14DB0420F1AC014A195B09E8
:10180000DA011296159780F06282738251834083C9
:10181000D9016D937C93E114F10471F0D701139613
:10182000FC93EE93129776CF22968C0F9D1FF901B1
:1018300091838083F301EFCFF0937E03E0937D03E8
:1018400069CF4816590608F42C017D01D3019ACFBF
:10185000CB010E94580A7C01009749F0AE01B80103
:101860000E943A0CC8010E94F40A870153CF10E08D
:1018700000E050CFFB01DC0102C001900D9241500D
:101880005040D8F70895FB01DC0101900D92002033
:10189000E1F7089510E0CDE5D0E004C0FE010E941C
:1018A000520A2196CE35D107C9F7F894FFCF000030
:1018B0007F0380000000400014005400000000007E
:1018C000EC014C0179013902AA0188019C01000058
:1018D00000001603E9022D04BF02E202CF02C0029B
:1018E00000000000ED044C012D042C04524550551D
:1018F000424C4943204F46204C4547454E445300F7
:10190000202020524F424F54204341522076312E06
:10191000302020002020203C424554412050524598
:10192000564945573E2020003C3C4D45204E4F54E3
:1019300020434F4E4E45435445443E3E000D0A0061
:101940002A434F4E4E454354454420544F2050485F
:101950004F4E452A002020202020474F20464F523E
:1019600057415244202020202000202020202047C2
:101970004F204241434B5741524420202020002019
:101980002020202020474F204C4546542020202056
:1019900020202000202020202020474F205249478F
:0A19A00048542020202020200000E1
:107E0000112484B714BE81FFF0D085E080938100F7
:107E100082E08093C00088E18093C10086E0809377
:107E2000C20080E18093C4008EE0C9D0259A86E02C
:107E300020E33CEF91E0309385002093840096BBD3
:107E4000B09BFECF1D9AA8958150A9F7CC24DD24C4
:107E500088248394B5E0AB2EA1E19A2EF3E0BF2EE7
:107E6000A2D0813461F49FD0082FAFD0023811F036
:107E7000013811F484E001C083E08DD089C08234E0
:107E800011F484E103C0853419F485E0A6D080C0E4
:107E9000853579F488D0E82EFF2485D0082F10E0AE
:107EA000102F00270E291F29000F111F8ED06801E7
:107EB0006FC0863521F484E090D080E0DECF843638
:107EC00009F040C070D06FD0082F6DD080E0C81688
:107ED00080E7D80618F4F601B7BEE895C0E0D1E017
:107EE00062D089930C17E1F7F0E0CF16F0E7DF06D8
:107EF00018F0F601B7BEE89568D007B600FCFDCFD4
:107F0000A601A0E0B1E02C9130E011968C91119780
:107F100090E0982F8827822B932B1296FA010C0160
:107F200087BEE89511244E5F5F4FF1E0A038BF0790
:107F300051F7F601A7BEE89507B600FCFDCF97BE46
:107F4000E89526C08437B1F42ED02DD0F82E2BD052
:107F50003CD0F601EF2C8F010F5F1F4F84911BD097
:107F6000EA94F801C1F70894C11CD11CFA94CF0C13
:107F7000D11C0EC0853739F428D08EE10CD085E9AC
:107F80000AD08FE07ACF813511F488E018D01DD067
:107F900080E101D065CF982F8091C00085FFFCCF94
:107FA0009093C60008958091C00087FFFCCF809118
:107FB000C00084FD01C0A8958091C6000895E0E648
:107FC000F0E098E1908380830895EDDF803219F02E
:107FD00088E0F5DFFFCF84E1DECF1F93182FE3DFCA
:107FE0001150E9F7F2DF1F91089580E0E8DFEE27F6
:047FF000FF270994CA
:027FFE00040479
:00000001FF
