:020000040000FA
:100000000C945E000C9486000C9486000C94860080
:100010000C9486000C9486000C9486000C94860048
:100020000C9486000C9486000C9486000C94860038
:100030000C9486000C9486000C9486000C94860028
:100040000C94B9050C9486000C9429060C940306B4
:100050000C9486000C9486000C9486000C94860008
:100060000C945B060C94860000000008000201005E
:100070000003040700000000000000000000000072
:10008000250028002B0000000000240027002A0083
:10009000040404040404040402020202020203032E
:1000A0000303030301020408102040800102040836
:1000B00010200102040810207A07330B11241FBE00
:1000C000CFEFD8E0DEBFCDBF23E0A2E1B2E001C0B8
:1000D0001D92A539B207E1F712E0A0E0B1E0E6EE2B
:1000E000FAE102C005900D92A231B107D9F710E0F4
:1000F000CDE5D0E004C02197FE010E946E0BCC3507
:10010000D107C9F70E94C9070C94660D0C94000032
:1001100090E0FC01EC55FF4F249180579F4FFC016C
:100120008491882399F090E0880F991FFC01EA5789
:10013000FF4FA591B491FC01E458FF4F8591949134
:100140008FB7F894EC91E22BEC938FBF089590E079
:10015000FC01E859FF4F2491FC01EC55FF4F34910D
:10016000FC01E057FF4FE491EE23C9F0222339F060
:10017000233001F1A8F4213019F1223029F1F0E007
:10018000EE0FFF1FE458FF4FA591B4918FB7F8947D
:10019000EC91611126C030953E233C938FBF0895AA
:1001A0002730A9F02830C9F0243049F78091800029
:1001B0008F7D03C0809180008F7780938000DFCF98
:1001C00084B58F7784BDDBCF84B58F7DFBCF8091E5
:1001D000B0008F778093B000D2CF8091B0008F7D38
:1001E000F9CF3E2BDACF1F93CF93DF93182FEB017C
:1001F0000E948800209739F460E0812FDF91CF9131
:100200001F910C94A700CF3FD10511F461E0F5CF09
:10021000E12FF0E0E859FF4FE491E33031F140F491
:10022000E130B1F0E230E1F0C038D1057CF7E4CF45
:10023000E73029F1E83059F1E430B1F780918000DE
:10024000806280938000D0938B00C0938A0004C0AA
:1002500084B5806884BDC7BDDF91CF911F9108959B
:1002600084B5806284BDC8BDF7CF8091800080686E
:1002700080938000D0938900C0938800EDCF809157
:10028000B00080688093B000C093B300E5CF809148
:10029000B00080628093B000C093B400DDCF3FB760
:1002A000F8948091D2029091D302A091D402B0919F
:1002B000D50226B5A89B05C02F3F19F00196A11DB8
:1002C000B11D3FBFBA2FA92F982F8827BC01CD01A0
:1002D000620F711D811D911D42E0660F771F881FFF
:1002E000991F4A95D1F708958F929F92AF92BF922E
:1002F000CF92DF92EF92FF924B015C010E944F017F
:100300006B017C010E944F016C197D098E099F09C8
:10031000683E734081059105A8F321E0821A910897
:10032000A108B10888EEC80E83E0D81EE11CF11CBC
:1003300081149104A104B10429F7FF90EF90DF909C
:10034000CF90BF90AF909F908F900895089508959B
:10035000AF92BF92CF92DF92EF92FF920F931F93D3
:10036000CF93DF936C017B018B01040F151FEB0111
:100370005E01AE18BF08C017D10759F06991D601C8
:10038000ED91FC910190F081E02DC6010995892B3A
:1003900079F7C501DF91CF911F910F91FF90EF90F9
:1003A000DF90CF90BF90AF900895FC01538D448DA6
:1003B000252F30E0842F90E0821B930B541710F010
:1003C000CF96089501970895FC01918D828D98171D
:1003D00061F0A28DAE0FBF2FB11D5D968C91928DF5
:1003E0009F5F9F73928F90E008958FEF9FEF089526
:1003F000FC01918D828D981731F0828DE80FF11DEF
:10040000858D90E008958FEF9FEF0895FC01918D09
:10041000228D892F90E0805C9F4F821B91098F7302
:100420009927089586ED92E00E94060221E0892B2B
:1004300009F420E0822F089580E090E0892B29F0D4
:100440000E94120281110C9400000895FC01A48DF9
:10045000A80FB92FB11DA35ABF4F2C91848D90E0E6
:1004600001968F739927848FA689B7892C93A089C9
:10047000B1898C91837080648C93938D848D981353
:1004800006C00288F389E02D80818F7D80830895E6
:10049000EF92FF920F931F93CF93DF93EC0181E0D4
:1004A000888F9B8D8C8D98131AC0E889F98980817B
:1004B00085FF15C09FB7F894EE89FF896083E889AE
:1004C000F98980818370806480839FBF81E090E0A0
:1004D000DF91CF911F910F91FF90EF900895F62E2D
:1004E0000B8D10E00F5F1F4F0F731127E02E8C8DC7
:1004F0008E110CC00FB607FCFACFE889F98980810C
:1005000085FFF5CFCE010E942602F1CFEB8DEC0FD7
:10051000FD2FF11DE35AFF4FF0829FB7F8940B8F28
:10052000EA89FB8980818062CFCFCF93DF93EC0192
:10053000888D8823B9F0AA89BB89E889F9898C91CB
:1005400085FD03C0808186FD0DC00FB607FCF7CF87
:100550008C9185FFF2CF808185FFEDCFCE010E9487
:100560002602E9CFDF91CF91089520917A02260FDC
:100570003327331F21323105ECF420919E02FC0118
:1005800090E080E0243069F082E00895A0917A0242
:100590002191AC01465A5D4FA40FB52FB11D2C938C
:1005A0000196861798F380917A02680F60937A0219
:1005B00080E0089581E0089510929E0281E080938A
:1005C000A00210929F0261E082E10E94A70061E018
:1005D00083E10E94A700E9EBF0E080818E7F8083B9
:1005E00080818D7F808388E48093B80085E4809348
:1005F000BC000895CF93DF9391E090935902882334
:10060000B9F0C091B800D091BA008091BC008A7B4B
:100610008093BC0060E082E10E94A70060E083E17B
:100620000E94A7000E94DC02D093BA00C093B800D9
:10063000DF91CF9108950895E091CB028091CA0295
:10064000E81730F4F0E0EC5CFD4F808190E0089515
:100650008FEF9FEF08959091CB028091CA022FEF08
:100660003FEF981748F4E92FF0E0EC5CFD4F208154
:1006700030E09F5F9093CB02C90108958091CA0238
:100680009091CB02891B990B0895CF92DF92EF9244
:10069000FF920F931F93CF93DF937C01CB018A01CD
:1006A00020913302222389F0EB016B01C40ED51E89
:1006B000CC15DD0569F06991D701ED91FC910190B0
:1006C000F081E02DC7010995F3CF642F0E94B50298
:1006D000C801DF91CF911F910F91FF90EF90DF90B4
:1006E000CF900895CF93DF931F92CDB7DEB7698384
:1006F000209133022223F9F02091C802203258F0D1
:1007000021E030E0FC013383228390E080E00F9011
:10071000DF91CF9108958091C902E82FF0E0ED5E5E
:10072000FD4F998190838F5F8093C9028093C802A7
:1007300081E090E0ECCF61E0CE0101960E94B5022D
:10074000F7CFCF92DF92EF92FF920F931F93CF9349
:10075000DF93FC01C48121E020933302C093120295
:100760001092C9021092C8028385682B83E793E038
:100770000E947203D091C802D13208F092C00E9448
:100780004F016B017C0180919E02811165C082E066
:1007900080939E0281E08093A0028FEF80939D0260
:1007A0001092C202D093C102A3E1B2E0E1EAF2E00A
:1007B00080E0D81385C01092C3028091C302CC0F91
:1007C000C82BC093C30280919F02813009F07CC086
:1007D00010929F020E944F016B017C018091C30225
:1007E0008093BB008091550290915602A0915702D0
:1007F000B0915802892B8A2B8B2B99F00E944F01C4
:1008000000915502109156022091570230915802E2
:100810006C197D098E099F090617170728073907E4
:10082000E0F18091BC0083FDD9CF85EC8093BC00C2
:100830000E944F016B017C0180919E02823009F47D
:1008400045C080919D028F3F61F180919D02803271
:1008500041F180919D0225C08091550290915602F0
:10086000A0915702B0915802892B8A2B8B2B09F447
:100870008ACF0E944F01009155021091560220919B
:100880005702309158026C197D098E099F0906178D
:1008900017072807390708F076CF809154020E9485
:1008A000FA021092C9021092C80210923302DF912C
:1008B000CF911F910F91FF90EF90DF90CF9008950F
:1008C0009D9191938F5F75CF85EEB0CF809155024A
:1008D00090915602A0915702B0915802892B8A2B11
:1008E0008B2B09F4A9CF0E944F0100915502109162
:1008F000560220915702309158026C197D098E09D9
:100900009F09061717072807390708F095CFC5CFA5
:10091000089590E080E0089561E08BE00E94A700D8
:1009200061E082E00E94A70061E08CE00C94A700E7
:1009300060E082E00E94A70060E08CE00C94A700D9
:1009400060E08BE00C94A7000F931F93CF938C0172
:10095000C62F0E94A1036C2F6460C8010E94A103EE
:100960006C2F6B7FC8010E94A10383EC90E001977C
:10097000F1F7CF911F910F9108950F931F93CF938C
:10098000DF938C01D62FC42F607F642B0E94A404B8
:1009900080E1D89FB00111246C2BC801DF91CF9169
:1009A0001F910F910C94A404CF93DF93CDB7DEB7C2
:1009B00028970FB6F894DEBF0FBECDBF98E0E8E0F1
:1009C000F1E0DE01119601900D929A95E1F7909178
:1009D0008E03981710F48FEF890F90E0880F991FFE
:1009E00021E030E02C0F3D1F820F931FFC0160813E
:1009F000606840E085E893E028960FB6F894DEBF83
:100A00000FBECDBFDF91CF910C94BD04CF93DF9388
:100A1000EC0183E00E94D4044C815D81688179817E
:100A200085E893E0DF91CF910C94A80141E00E940A
:100A3000BD0481E090E00895FC0101900020E9F7F9
:100A40003197AF01481B590BBC0185E893E00C942A
:100A5000A801FC0180819181009711F00C94100C89
:100A60000895EF92FF920F931F93CF93DF93EC01C2
:100A70007B018A0188819981009729F02A813B8135
:100A80002417350788F4B8016F5F7F4F0E94990CD7
:100A9000009791F0998388831B830A832C813D8181
:100AA000232B11F4FC0110821D830C83B701888174
:100AB00099810E945F0D0CC088819981009711F087
:100AC0000E94100C198218821D821C821B821A82BD
:100AD000CE01DF91CF911F910F91FF90EF9008957C
:100AE000FC01118210821382128215821482FB0192
:100AF00001900020E9F73197AF01461B570B0C948A
:100B0000310585ED8093BC0080915502909156028D
:100B1000A0915702B09158020796A11DB11D23E084
:100B2000B695A795979587952A95D1F72091BC0002
:100B300024FD03C010929E020895409155025091E9
:100B400056026091570270915802452B462B472B55
:100B500069F30097A105B10541F02AE22A95F1F762
:100B600000C00197A109B109E1CF809154020C9412
:100B7000FA021F920F920FB60F9211242F933F93F8
:100B80008F939F93AF93BF938091CE029091CF02AA
:100B9000A091D002B091D1023091CD0223E0230F79
:100BA0002D3758F50196A11DB11D2093CD028093DC
:100BB000CE029093CF02A093D002B093D102809145
:100BC000D2029091D302A091D402B091D5020196A5
:100BD000A11DB11D8093D2029093D302A093D402A1
:100BE000B093D502BF91AF919F918F913F912F917B
:100BF0000F900FBE0F901F90189526E8230F0296B6
:100C0000A11DB11DD2CF1F920F920FB60F921124CA
:100C10002F933F934F935F936F937F938F939F9304
:100C2000AF93BF93EF93FF9386ED92E00E9426026D
:100C3000FF91EF91BF91AF919F918F917F916F91B4
:100C40005F914F913F912F910F900FBE0F901F908A
:100C500018951F920F920FB60F9211242F938F9316
:100C60009F93EF93FF93E091E602F091E70280817A
:100C7000E091EC02F091ED0282FD1BC09081809129
:100C8000EF028F5F8F732091F002821741F0E091A5
:100C9000EF02F0E0EA52FD4F958F8093EF02FF9153
:100CA000EF919F918F912F910F900FBE0F901F90FA
:100CB00018958081F4CF1F920F920FB60F921124D6
:100CC0002F933F934F935F936F937F938F939F9354
:100CD000AF93BF93EF93FF938091B900887F8036E5
:100CE00009F44AC0F0F5883209F4A7C018F580313C
:100CF00009F49BC0B8F4882309F4F9C0883009F4DA
:100D000094C0FF91EF91BF91AF919F918F917F918F
:100D10006F915F914F913F912F910F900FBE0F9068
:100D20001F901895883109F488C0803251F780935C
:100D30009D0214C0803409F49DC040F48033B9F39F
:100D40008833F9F680939D0285ECB0C0803509F4B4
:100D500085C0883509F496C0883499F60E948105CB
:100D6000D0CF883909F48CC038F5883729F050F491
:100D7000883611F0803729F683E080939E02109226
:100D80009C0257C0883809F47BC0803919F080383C
:100D900009F0B7CF80919C02803208F071C0E091D9
:100DA0009C0281E08E0F80939C028091BB00F0E05A
:100DB000E458FD4F80833DC0803B39F0E0F4803A39
:100DC00009F479C0883A09F09CCF84E080939E02B0
:100DD00010927B0210927A02E091C602F091C70253
:100DE000099580917A0281110FC081E080937A0287
:100DF00010925A0209C0803C09F4A6CF883C09F43D
:100E0000A3CF883B09F07DCFE0917B0281E08E0F7C
:100E100080937B02F0E0E65AFD4F80818093BB0017
:100E200090917B0280917A0229C08091C3028093C5
:100E3000BB0085EC8093BC0064CF9091C20280918E
:100E4000C102981758F5E091C20281E08E0F80939D
:100E5000C202F0E0EF55FD4F8081E9CFE091C20280
:100E600081E08E0F8093C2028091BB00F0E0EF55CD
:100E7000FD4F80839091C2028091C1029817C8F201
:100E800085E8D8CFE091C20281E08E0F8093C20244
:100E90008091BB00F0E0EF55FD4F80838091A00270
:100EA00081115CCF81E080939F0284EA8093BC0033
:100EB00010929E0226CF85EC8093BC0010929E0279
:100EC00080919C02803230F4E0919C02F0E0E45882
:100ED000FD4F108260919C0270E0E091C402F0919D
:100EE000C5028CE792E0099510929C020ACF1092FD
:100EF0009D0234CFE6EDF2E01382128288EE93E099
:100F0000A0E0B0E084839583A683B78324E131E039
:100F10003183208325EC30E03587248724EC30E0D2
:100F20003787268720EC30E0318B208B21EC30E0B6
:100F3000338B228B22EC30E0358B248B26EC30E097
:100F4000378B268B118E128E138E148EE3E7F3E00F
:100F50001382128284839583A683B78386E291E00D
:100F600091838083E5E8F3E01382128288E391E0C5
:100F70009183808387E2848384E1808784E0818712
:100F8000128688E0838763E971E08FE793E00C9431
:100F90007005CF93DF9300D000D000D0CDB7DEB77F
:100FA000789484B5826084BD84B5816084BD85B544
:100FB000826085BD85B5816085BD80916E00816050
:100FC00080936E00109281008091810082608093F6
:100FD00081008091810081608093810080918000F8
:100FE0008160809380008091B10084608093B10023
:100FF0008091B00081608093B00080917A0084601D
:1010000080937A0080917A00826080937A00809148
:101010007A00816080937A0080917A008068809362
:101020007A001092C100E091E602F091E70282E0BE
:101030008083E091E202F091E3021082E091E40209
:10104000F091E5028FEC80831092EE02E091EA02CB
:10105000F091EB0286E08083E091E802F091E902F2
:10106000808180618083E091E802F091E9028081D3
:1010700088608083E091E802F091E90280818068D5
:101080008083E091E802F091E90280818F7D808386
:101090001092CB021092CA021092C9021092C8029A
:1010A0000E94DC0286EA91E09093C7028093C60218
:1010B00087EA91E09093C5028093C40210928A035C
:1010C00080918E03823018F098E090938A0390917B
:1010D0008F03992339F0813029F480918A03846049
:1010E00080938A0362E370E080E090E00E947401E4
:1010F0006091900385E893E00E94A10368EE73E09D
:1011000080E090E00E94740160E385E893E00E9433
:10111000A4040BE416E4C8010197F1F760E385E845
:1011200093E00E94A404C8010197F1F760E385E809
:1011300093E00E94A40483E592E00197F1F760E256
:1011400085E893E00E94A40460918A03606240E015
:1011500085E893E00E94BD0484E080938B0340E027
:101160006CE085E893E00E94BD0440E061E085E822
:1011700093E00E94BD040BE31FE1C8010197F1F762
:1011800082E080938C0340E066E085E893E00E9473
:10119000BD0440E062E085E893E00E94BD04C80120
:1011A0000197F1F78AE00E94880089E00E94880098
:1011B00084E00E94880085E00E94880086E00E940A
:1011C000880087E00E9488008BE00E94880081E10F
:1011D0000E94880080E10E9488008FE00E948800C1
:1011E0008EE00E94880082E00E94880083E00E94D6
:1011F00088008CE00E9488008DE00E94880070E0EA
:1012000060E080E10E94F30070E060E08EE00E9408
:10121000F30060E083E00E94A70060E08DE00E94A0
:10122000A70080E00E94D40480E491E00E941C05A5
:1012300081E00E94D40484E591E00E941C0582E0D4
:101240000E94D40488E691E00E941C0583E00E947D
:10125000D4048CE791E00E941C0561E08BE00E94C1
:10126000A70042ED242E312C54EB452E512C66E97B
:10127000662E712C8AE5C82ED12C9CE3A92EB12CA8
:101280002EE1822E912C30E0E32E30E0F32E0091FF
:10129000000110910101B8018AE00E94F300B80139
:1012A00089E00E94F30086ED92E00E940602892BFD
:1012B00009F445C186ED92E00E94E4018093CC02DE
:1012C000682F86ED92E00E94480242E050E061E91A
:1012D00071E086ED92E00E94A8018091CC028735F2
:1012E00009F039C161E082E00E94A70061E08CE072
:1012F0000E94A7008091CC02863451F561E084E021
:101300000E94A70060E085E00E94A70061E086E0FF
:101310000E94A70060E087E00E94A70070E060E004
:1013200081E10E94F30070E060E08FE00E94F30032
:1013300069EA71E0CE0101960E947005CE01019626
:101340000E940605CE0101960E9429050E94A00474
:101350008091CC02823451F560E084E00E94A700C5
:1013600061E085E00E94A70060E086E00E94A7009F
:1013700061E087E00E94A7006FEF70E081E10E94CA
:10138000F3006FEF70E08FE00E94F3006EEB71E00E
:10139000CE0101960E947005CE0101960E940605BD
:1013A000CE0101960E9429050E94A0048091CC02E2
:1013B0008C3451F561E084E00E94A70060E085E094
:1013C0000E94A70060E086E00E94A70061E087E03D
:1013D0000E94A70070E060E081E10E94F30070E0ED
:1013E00060E08FE00E94F30063ED71E0CE010196B2
:1013F0000E947005CE0101960E940605CE0101965D
:101400000E9429050E94A0048091CC02823551F5EA
:1014100060E084E00E94A70061E085E00E94A700F0
:1014200061E086E00E94A70060E087E00E94A700DC
:1014300070E060E081E10E94F30070E060E08FE026
:101440000E94F30068EE71E0CE0101960E947005E3
:10145000CE0101960E940605CE0101960E94290543
:101460000E94A0048091CC02843471F46CE771E096
:10147000CE0101960E947005CE0101960E940605DC
:10148000CE0101960E9429058091CC028B34A1F4F3
:101490006CE771E0CE0101960E947005CE010196C5
:1014A0000E940605CE0101960E94290561E08BE0AD
:1014B0000E94A7000E9498048091CC028B3271F4A4
:1014C0006CE771E0CE0101960E947005CE01019695
:1014D0000E940605CE0101960E9429058091CC024A
:1014E000893481F46DEF71E0CE0101960E947005A0
:1014F000CE0101960E940605CE0101960E942905A3
:101500000E948C048091CC02883481F46DEF71E0EC
:10151000CE0101960E947005CE0101960E9406053B
:10152000CE0101960E9429050E948C048091CC0274
:10153000803309F05AC01092010110920001E114A9
:10154000F10409F4A4CE0E941202882309F492CE79
:101550000E9400008FCE873719F40E949804CACEEB
:10156000833509F0C7CE60E084E00E94A70060E008
:1015700085E00E94A70060E086E00E94A70060E08E
:1015800087E00E94A70070E060E081E10E94F30024
:1015900070E060E08FE00E94F30044E150E064E915
:1015A00071E08FE793E00E9431051A8219821C8254
:1015B0001B821E821D8260917F03709180036115E2
:1015C000710541F04091830350918403CE0101964F
:1015D0000E943105CE0101960E940605CE010196BA
:1015E0000E9429050E94A00485CE813329F490929F
:1015F000010180920001A3CF823329F4B09201014E
:10160000A09200019CCF833329F4D0920101C092B3
:10161000000195CF843339F488E790E0909301017D
:10162000809300018CCF853329F470920101609280
:10163000000185CF863329F45092010140920001C8
:101640007ECF873329F4309201012092000177CFB9
:10165000883319F480EF90E0E1CF893309F06FCF40
:101660008FEF90E0DBCF8FE793E00C9429052F926A
:101670003F924F925F926F927F928F929F92AF9222
:10168000BF92CF92DF92EF92FF920F931F93CF936F
:10169000DF93CDB7DEB7CA1BDB0B0FB6F894DEBF06
:1016A0000FBECDBF09942A88398848885F846E842C
:1016B0007D848C849B84AA84B984C884DF80EE8076
:1016C000FD800C811B81AA81B981CE0FD11D0FB67F
:1016D000F894DEBF0FBECDBFED010895EE0FFF1FE2
:1016E0000590F491E02D09940F931F93CF93DF930E
:1016F0008230910510F482E090E0E0919303F09144
:10170000940330E020E0B0E0A0E0309799F4211598
:10171000310509F44AC0281B390B24303105D8F5AE
:101720008A819B816115710589F1FB019383828315
:10173000FE0111C040815181028113814817590770
:10174000E0F04817590799F4109761F012960C933E
:10175000129713961C933296CF01DF91CF911F9170
:101760000F9108950093930310939403F4CF2115E0
:10177000310551F04217530738F0A901DB019A01F6
:10178000BD01DF01F801C1CFEF01F9CF90939403C0
:1017900080939303CDCFFE01E20FF31F81939193CA
:1017A0002250310939832883D7CF2091910330917A
:1017B0009203232B41F420910401309105013093D1
:1017C000920320939103209102013091030121158E
:1017D000310541F42DB73EB7409106015091070104
:1017E000241B350BE0919103F0919203E217F3076C
:1017F000A0F42E1B3F0B2817390778F0AC014E5F81
:101800005F4F2417350748F04E0F5F1F5093920328
:1018100040939103819391939FCFF0E0E0E09CCFC0
:10182000CF93DF930097E9F0FC0132971382128285
:10183000A0919303B0919403ED0130E020E0109764
:10184000A1F420813181820F931F20919103309167
:1018500092032817390709F061C0F0939203E093CF
:101860009103DF91CF910895EA01CE17DF07E8F5E4
:101870004A815B819E0141155105B1F7E901FB8366
:10188000EA8349915991C40FD51FEC17FD0761F404
:10189000808191810296840F951FE9019983888345
:1018A000828193819B838A83F0E0E0E012968D91A0
:1018B0009C9113970097B9F52D913C911197CD010B
:1018C0000296820F931F2091910330919203281763
:1018D000390739F6309751F510929403109293031B
:1018E000B0939203A0939103BCCFD383C283408172
:1018F0005181840F951FC817D90761F44E5F5F4F60
:1019000088819981480F591F518340838A819B8127
:10191000938382832115310509F0B0CFF0939403AE
:10192000E09393039ECFFD01DC01C0CF13821282AE
:10193000D7CFB0E0A0E0EFE9FCE00C94390B8C01CC
:10194000009751F4CB010E94740B8C01C801CDB7F4
:10195000DEB7E0E10C94550BFC01E60FF71F9C018C
:1019600022503109E217F30708F49DC0D901CD9147
:10197000DC911197C617D70798F0C530D10530F321
:10198000CE0104978617970708F3C61BD70B22973B
:10199000C193D1936D937C93CF010E94100CD6CF4D
:1019A0005B01AC1ABD0A4C018C0E9D1EA0919303E5
:1019B000B0919403512C412CF12CE12C109731F56E
:1019C00080919103909192038815990509F05CC06C
:1019D0004616570608F058C0809102019091030105
:1019E000009741F48DB79EB74091060150910701D1
:1019F000841B950BE817F90708F055C0F093920384
:101A0000E0939103F90171836083A0CF8D919C9144
:101A1000119712966C90129713967C901397A815B5
:101A2000B90559F56C0142E0C40ED11CCA14DB049F
:101A300020F1AC014A195B09DA011296159780F082
:101A40006282738251834083D9016D937C93E11448
:101A5000F10471F0D7011396FC93EE93129776CFB1
:101A600022968C0F9D1FF90191838083F301EFCFA4
:101A7000F0939403E093930369CF4816590608F452
:101A80002C017D01D3019ACFCB010E94740B7C0104
:101A9000009749F0AE01B8010E94560DC8010E949E
:101AA000100C870153CF10E000E050CFFB01DC01A8
:101AB00002C001900D9241505040D8F70895FB01AB
:101AC000DC0101900D920020E1F7089510E0CDE5D2
:101AD000D0E004C0FE010E946E0B2196CE35D107E6
:101AE000C9F7F894FFCF960000009503800000002E
:101AF000400014005400000000004802A801D50175
:101B000095020602E401F80100000000720345039B
:101B100089041B033E032B031C0300000000160571
:101B2000A8018904880452455055424C4943204F2E
:101B300046204C4547454E445300202020524F42FA
:101B40004F54204341522076312E30202000202057
:101B5000203C4245544120505245564945573E206D
:101B600020003C3C4D45204E4F5420434F4E4E45A7
:101B7000435445443E3E000D0A002A434F4E4E4515
:101B80004354454420544F2050484F4E452A00208E
:101B900020202020474F20464F52574152442020BA
:101BA000202020002020202020474F204241434B6E
:101BB0005741524420202020002020202020204770
:101BC0004F204C454654202020202020200020205B
:101BD00020202020474F20524947485420202020D1
:101BE0002020003C3C415353414C412D4D55414C2C
:081BF00041494B554D3E3E00FA
:107E0000112484B714BE81FFF0D085E080938100F7
:107E100082E08093C00088E18093C10086E0809377
:107E2000C20080E18093C4008EE0C9D0259A86E02C
:107E300020E33CEF91E0309385002093840096BBD3
:107E4000B09BFECF1D9AA8958150A9F7CC24DD24C4
:107E500088248394B5E0AB2EA1E19A2EF3E0BF2EE7
:107E6000A2D0813461F49FD0082FAFD0023811F036
:107E7000013811F484E001C083E08DD089C08234E0
:107E800011F484E103C0853419F485E0A6D080C0E4
:107E9000853579F488D0E82EFF2485D0082F10E0AE
:107EA000102F00270E291F29000F111F8ED06801E7
:107EB0006FC0863521F484E090D080E0DECF843638
:107EC00009F040C070D06FD0082F6DD080E0C81688
:107ED00080E7D80618F4F601B7BEE895C0E0D1E017
:107EE00062D089930C17E1F7F0E0CF16F0E7DF06D8
:107EF00018F0F601B7BEE89568D007B600FCFDCFD4
:107F0000A601A0E0B1E02C9130E011968C91119780
:107F100090E0982F8827822B932B1296FA010C0160
:107F200087BEE89511244E5F5F4FF1E0A038BF0790
:107F300051F7F601A7BEE89507B600FCFDCF97BE46
:107F4000E89526C08437B1F42ED02DD0F82E2BD052
:107F50003CD0F601EF2C8F010F5F1F4F84911BD097
:107F6000EA94F801C1F70894C11CD11CFA94CF0C13
:107F7000D11C0EC0853739F428D08EE10CD085E9AC
:107F80000AD08FE07ACF813511F488E018D01DD067
:107F900080E101D065CF982F8091C00085FFFCCF94
:107FA0009093C60008958091C00087FFFCCF809118
:107FB000C00084FD01C0A8958091C6000895E0E648
:107FC000F0E098E1908380830895EDDF803219F02E
:107FD00088E0F5DFFFCF84E1DECF1F93182FE3DFCA
:107FE0001150E9F7F2DF1F91089580E0E8DFEE27F6
:047FF000FF270994CA
:027FFE00040479
:00000001FF
