:020000040000FA
:100000000C945D000C9485000C9485000C94850084
:100010000C9485000C9485000C9485000C9485004C
:100020000C9485000C9485000C9485000C9485003C
:100030000C9485000C9485000C9485000C9485002C
:100040000C9450040C9485000C94C0040C949A04F5
:100050000C9485000C9485000C9485000C9485000C
:100060000C94F2040C9485000000000800020100CA
:100070000003040700000000000000000000000072
:10008000250028002B0000000000240027002A0083
:10009000040404040404040402020202020203032E
:1000A0000303030301020408102040800102040836
:1000B00010200102040810200D0611241FBECFEFEE
:1000C000D8E0DEBFCDBF11E0A0E0B1E0E6E2FEE0A7
:1000D00002C005900D92A033B107D9F722E0A0E34A
:1000E000B1E001C01D92A438B207E1F710E0CDE500
:1000F000D0E004C02197FE010E940B07CC35D10748
:10010000C9F70E9457060C9411070C94000090E068
:10011000FC01EC55FF4F249180579F4FFC018491C7
:10012000882399F090E0880F991FFC01EA57FF4F50
:10013000A591B491FC01E458FF4F859194918FB73C
:10014000F894EC91E22BEC938FBF089590E0FC01C2
:10015000E859FF4F2491FC01EC55FF4F3491FC010D
:10016000E057FF4FE491EE23C9F0222339F023300A
:1001700001F1A8F4213019F1223029F1F0E0EE0F5D
:10018000FF1FE458FF4FA591B4918FB7F894EC91FD
:10019000611126C030953E233C938FBF08952730D0
:1001A000A9F02830C9F0243049F7809180008F7D74
:1001B00003C0809180008F7780938000DFCF84B56B
:1001C0008F7784BDDBCF84B58F7DFBCF8091B0006E
:1001D0008F778093B000D2CF8091B0008F7DF9CF20
:1001E0003E2BDACF3FB7F8948091CB019091CC01B0
:1001F000A091CD01B091CE0126B5A89B05C02F3F9F
:1002000019F00196A11DB11D3FBFBA2FA92F982F3C
:100210008827BC01CD01620F711D811D911D42E037
:10022000660F771F881F991F4A95D1F70895AF92DF
:10023000BF92CF92DF92EF92FF920F931F93CF93D3
:10024000DF936C017B018B01040F151FEB015E0135
:10025000AE18BF08C017D10759F06991D601ED91CA
:10026000FC910190F081E02DC6010995892B79F769
:10027000C501DF91CF911F910F91FF90EF90DF901B
:10028000CF90BF90AF900895FC01538D448D252FE2
:1002900030E0842F90E0821B930B541710F0CF9620
:1002A000089501970895FC01918D828D981761F052
:1002B000A28DAE0FBF2FB11D5D968C91928D9F5F69
:1002C0009F73928F90E008958FEF9FEF0895FC0148
:1002D000918D828D981731F0828DE80FF11D858DFB
:1002E00090E008958FEF9FEF0895FC01918D228D8E
:1002F000892F90E0805C9F4F821B91098F73992713
:1003000008958FEC91E00E94750121E0892B09F49A
:1003100020E0822F089580E090E0892B29F00E9450
:10032000810181110C9400000895FC01A48DA80F97
:10033000B92FB11DA35ABF4F2C91848D90E0019627
:100340008F739927848FA689B7892C93A089B18947
:100350008C91837080648C93938D848D981306C0E8
:100360000288F389E02D80818F7D80830895EF924C
:10037000FF920F931F93CF93DF93EC0181E0888F5F
:100380009B8D8C8D98131AC0E889F989808185FF2F
:1003900015C09FB7F894EE89FF896083E889F989D1
:1003A00080818370806480839FBF81E090E0DF91D3
:1003B000CF911F910F91FF90EF900895F62E0B8D26
:1003C00010E00F5F1F4F0F731127E02E8C8D8E11E1
:1003D0000CC00FB607FCFACFE889F989808185FF48
:1003E000F5CFCE010E949501F1CFEB8DEC0FFD2FE3
:1003F000F11DE35AFF4FF0829FB7F8940B8FEA8903
:10040000FB8980818062CFCFCF93DF93EC01888D11
:100410008823B9F0AA89BB89E889F9898C9185FD7F
:1004200003C0808186FD0DC00FB607FCF7CF8C910D
:1004300085FFF2CF808185FFEDCFCE010E9495012F
:10044000E9CFDF91CF9108951F93CF93DF93C1E060
:10045000C0935A01882399F1D091B8001091BA0045
:100460008091BC008A7B8093BC0060E082E10E94A6
:10047000A60060E083E10E94A60010929F01C09355
:10048000A1011092A00161E082E10E94A60061E05A
:1004900083E10E94A6008091B9008E7F8093B9000D
:1004A0008091B9008D7F8093B90088E48093B80073
:1004B00085E48093BC001093BA00D093B800DF911C
:1004C000CF911F91089520917B01260F3327331F71
:1004D00021323105ECF420919F01FC0190E080E095
:1004E000243069F082E00895A0917B012191AC0154
:1004F000455A5E4FA40FB52FB11D2C930196861758
:1005000098F380917B01680F60937B0180E00895F0
:1005100081E0089508958FEF9FEF08958FEF9FEF8B
:1005200008958091540190E09195819591090895E5
:10053000CF92DF92EF92FF920F931F93CF93DF93AF
:100540007C01CB018A0120915301222389F0EB0128
:100550006B01C40ED51ECC15DD0569F06991D7017C
:10056000ED91FC910190F081E02DC7010995F3CF49
:10057000642F0E946302C801DF91CF911F910F91F8
:10058000FF90EF90DF90CF900895CF93DF931F926D
:10059000CDB7DEB76983209153012223F9F0209172
:1005A0005201203258F021E030E0FC0133832283F5
:1005B00090E080E00F90DF91CF91089580915101FC
:1005C000E82FF0E0EF5CFE4F998190838F5F80937E
:1005D00051018093520181E090E0ECCF61E0CE01C7
:1005E00001960E946302F7CFCF92DF92EF92FF92C3
:1005F0000F931F93CF93DF93FC01C48121E02093DD
:100600005301C09330011092510110925201838521
:10061000682B8CE692E00E94C502D0915201D13243
:1006200008F092C00E94F2006B017C0180919F0152
:10063000811165C082E080939F0181E08093A101D8
:100640008FEF80939E011092C301D093C201A1E36A
:10065000B1E0E2EAF1E080E0D81385C01092C40175
:100660008091C401CC0FC82BC093C4018091A0011C
:10067000813009F07CC01092A0010E94F2006B0151
:100680007C018091C4018093BB00809156019091C0
:100690005701A0915801B0915901892B8A2B8B2BBE
:1006A00099F00E94F200009156011091570120919B
:1006B0005801309159016C197D098E099F0906175F
:1006C000170728073907E0F18091BC0083FDD9CFD7
:1006D00085EC8093BC000E94F2006B017C0180914C
:1006E0009F01823009F445C080919E018F3F61F1E6
:1006F00080919E01803241F180919E0125C08091C0
:10070000560190915701A0915801B0915901892B40
:100710008A2B8B2B09F48ACF0E94F200009156019C
:100720001091570120915801309159016C197D09A0
:100730008E099F09061717072807390708F076CF93
:10074000809155010E942402109251011092520191
:1007500010925301DF91CF911F910F91FF90EF9075
:10076000DF90CF9008959D9191938F5F75CF85EE27
:10077000B0CF8091560190915701A0915801B0914E
:100780005901892B8A2B8B2B09F4A9CF0E94F200E7
:100790000091560110915701209158013091590153
:1007A0006C197D098E099F09061717072807390755
:1007B00008F095CFC5CF089590E080E0089585EDCD
:1007C0008093BC008091560190915701A0915801EF
:1007D000B09159010796A11DB11D23E0B695A795CB
:1007E000979587952A95D1F72091BC0024FD03C0E9
:1007F00010929F01089540915601509157016091C8
:10080000580170915901452B462B472B69F30097EE
:10081000A105B10541F02AE22A95F1F700C0019740
:10082000A109B109E1CF809155010C9424020F93E5
:100830001F93CF938C01C62F64600E94F4026C2F2B
:100840006B7FC8010E94F40283EC90E00197F1F7FE
:10085000CF911F910F9108950F931F93CF93DF9323
:100860008C01C62FD62FD07FD1606D2F0E94F4024D
:100870006D2FC8010E94170480E1C89FE001112478
:10088000C1606C2FC8010E94F4026C2FC8010E9445
:10089000170481E090E0DF91CF911F910F910895AF
:1008A0001F920F920FB60F9211242F933F938F93A5
:1008B0009F93AF93BF938091C7019091C801A0917E
:1008C000C901B091CA013091C60123E0230F2D3731
:1008D00058F50196A11DB11D2093C6018093C70153
:1008E0009093C801A093C901B093CA018091CB0134
:1008F0009091CC01A091CD01B091CE010196A11DA6
:10090000B11D8093CB019093CC01A093CD01B09306
:10091000CE01BF91AF919F918F913F912F910F90F9
:100920000FBE0F901F90189526E8230F0296A11D69
:10093000B11DD2CF1F920F920FB60F9211242F9399
:100940003F934F935F936F937F938F939F93AF9357
:10095000BF93EF93FF938FEC91E00E949501FF917D
:10096000EF91BF91AF919F918F917F916F915F9127
:100970004F913F912F910F900FBE0F901F901895A0
:100980001F920F920FB60F9211242F938F939F9364
:10099000EF93FF93E091DF01F091E0018081E0911E
:1009A000E501F091E60182FD1BC090818091E80194
:1009B0008F5F8F732091E901821741F0E091E80188
:1009C000F0E0E153FE4F958F8093E801FF91EF91A6
:1009D0009F918F912F910F900FBE0F901F901895A0
:1009E0008081F4CF1F920F920FB60F9211242F9394
:1009F0003F934F935F936F937F938F939F93AF93A7
:100A0000BF93EF93FF938091B900887F803609F4FC
:100A10004AC0F0F5883209F4A5C018F5803109F410
:100A200099C0B8F4882309F4F5C0883009F492C05D
:100A3000FF91EF91BF91AF919F918F917F916F91B6
:100A40005F914F913F912F910F900FBE0F901F908C
:100A50001895883109F486C0803251F780939E0141
:100A600014C0803409F49BC040F48033B9F3883358
:100A7000F9F680939E0185ECAEC0803509F483C001
:100A8000883509F494C0883499F60E94DF03D0CFEA
:100A9000883909F48AC038F5883729F050F4883647
:100AA00011F0803729F683E080939F0110929D0119
:100AB00055C0883809F479C0803919F0803809F0B8
:100AC000B7CF80919D01803208F06FC0E0919D0109
:100AD00081E08E0F80939D018091BB00F0E0E35890
:100AE000FE4F80833BC0803B39F0D0F4803A09F45C
:100AF00077C0883A09F09CCF84E080939F011092E0
:100B00007C0110927B01F0E0E0E0099580917B018F
:100B100081110FC081E080937B0110925B0109C0BD
:100B2000803C09F4A8CF883C09F4A5CF883B09F0A4
:100B30007FCFE0917C0181E08E0F80937C01F0E01B
:100B4000E55AFE4F80818093BB0090917C0180919B
:100B50007B0129C08091C4018093BB0085EC809308
:100B6000BC0066CF9091C3018091C201981758F5DF
:100B7000E091C30181E08E0F8093C301F0E0EE5558
:100B8000FE4F8081E9CFE091C30181E08E0F809319
:100B9000C3018091BB00F0E0EE55FE4F8083909141
:100BA000C3018091C2019817C8F285E8D8CFE091BF
:100BB000C30181E08E0F8093C3018091BB00F0E000
:100BC000EE55FE4F80838091A10181115ECF81E0BF
:100BD0008093A00184EA8093BC0010929F0128CFEB
:100BE00085EC8093BC0010929F0180919D01803222
:100BF00030F4E0919D01F0E0E358FE4F10826091E7
:100C00009D0170E08DE791E0F0E0E0E00995109241
:100C10009D010ECF10929E0138CFEFECF1E01382D0
:100C2000128288EE93E0A0E0B0E084839583A683EF
:100C3000B78324E031E03183208325EC30E0358731
:100C4000248724EC30E03787268720EC30E0318B96
:100C5000208B21EC30E0338B228B22EC30E0358B83
:100C6000248B26EC30E0378B268B118E128E138E60
:100C7000148EECE6F2E01382128284839583A683BD
:100C8000B78386E191E091838083E8E7F2E0138205
:100C9000128288E291E09183808387E2848380E1FD
:100CA000808782E08187128688E083870895789420
:100CB00084B5826084BD84B5816084BD85B5826061
:100CC00085BD85B5816085BD80916E008160809312
:100CD0006E0010928100809181008260809381007B
:100CE000809181008160809381008091800081608B
:100CF000809380008091B10084608093B1008091E6
:100D0000B00081608093B00080917A00846080930D
:100D10007A0080917A00826080937A0080917A00D4
:100D2000816080937A0080917A00806880937A0055
:100D30001092C100E091DF01F091E00182E0808338
:100D4000E091DB01F091DC011082E091DD01F09196
:100D5000DE018FEC80831092E701E091E301F091D6
:100D6000E40186E08083E091E101F091E20180817D
:100D700080618083E091E101F091E20180818860EF
:100D80008083E091E101F091E201808180688083BD
:100D9000E091E101F091E20180818F7D808387E025
:100DA0000E94870088E00E948700C0E0D0E08FECBE
:100DB00091E00E947501892B59F08FEC91E00E941F
:100DC00053018093C501682F8FEC91E00E94B70119
:100DD0008091C50161E0863431F060E08234B1F089
:100DE000833589F460E087E00E94A60060E088E037
:100DF0000E94A6002097D9F20E9481018823B9F2AF
:100E00000E940000D4CF8C34A9F761E087E00E94F3
:100E1000A60061E0ECCFEE0FFF1F0590F491E02DEE
:100E20000994F894FFCF00000000B70117014401B6
:100E3000040275015301670100000000C502980219
:100E4000DC038A0291028E028B02000000002C0457
:060E50001701DC03DB03C7
:107E0000112484B714BE81FFF0D085E080938100F7
:107E100082E08093C00088E18093C10086E0809377
:107E2000C20080E18093C4008EE0C9D0259A86E02C
:107E300020E33CEF91E0309385002093840096BBD3
:107E4000B09BFECF1D9AA8958150A9F7CC24DD24C4
:107E500088248394B5E0AB2EA1E19A2EF3E0BF2EE7
:107E6000A2D0813461F49FD0082FAFD0023811F036
:107E7000013811F484E001C083E08DD089C08234E0
:107E800011F484E103C0853419F485E0A6D080C0E4
:107E9000853579F488D0E82EFF2485D0082F10E0AE
:107EA000102F00270E291F29000F111F8ED06801E7
:107EB0006FC0863521F484E090D080E0DECF843638
:107EC00009F040C070D06FD0082F6DD080E0C81688
:107ED00080E7D80618F4F601B7BEE895C0E0D1E017
:107EE00062D089930C17E1F7F0E0CF16F0E7DF06D8
:107EF00018F0F601B7BEE89568D007B600FCFDCFD4
:107F0000A601A0E0B1E02C9130E011968C91119780
:107F100090E0982F8827822B932B1296FA010C0160
:107F200087BEE89511244E5F5F4FF1E0A038BF0790
:107F300051F7F601A7BEE89507B600FCFDCF97BE46
:107F4000E89526C08437B1F42ED02DD0F82E2BD052
:107F50003CD0F601EF2C8F010F5F1F4F84911BD097
:107F6000EA94F801C1F70894C11CD11CFA94CF0C13
:107F7000D11C0EC0853739F428D08EE10CD085E9AC
:107F80000AD08FE07ACF813511F488E018D01DD067
:107F900080E101D065CF982F8091C00085FFFCCF94
:107FA0009093C60008958091C00087FFFCCF809118
:107FB000C00084FD01C0A8958091C6000895E0E648
:107FC000F0E098E1908380830895EDDF803219F02E
:107FD00088E0F5DFFFCF84E1DECF1F93182FE3DFCA
:107FE0001150E9F7F2DF1F91089580E0E8DFEE27F6
:047FF000FF270994CA
:027FFE00040479
:00000001FF
